{
  "_format": "hh-sol-artifact-1",
  "contractName": "RewardDistribution",
  "sourceName": "contracts/RewardDistribution.sol",
  "abi": [
    {
      "inputs": [
        {
          "internalType": "address",
          "name": "admin",
          "type": "address"
        },
        {
          "internalType": "address",
          "name": "tokenAddress",
          "type": "address"
        }
      ],
      "stateMutability": "nonpayable",
      "type": "constructor"
    },
    {
      "anonymous": false,
      "inputs": [
        {
          "indexed": true,
          "internalType": "address",
          "name": "user",
          "type": "address"
        },
        {
          "indexed": false,
          "internalType": "string",
          "name": "activityType",
          "type": "string"
        },
        {
          "indexed": false,
          "internalType": "uint256",
          "name": "activityId",
          "type": "uint256"
        },
        {
          "indexed": false,
          "internalType": "uint256",
          "name": "amount",
          "type": "uint256"
        },
        {
          "indexed": false,
          "internalType": "string",
          "name": "reason",
          "type": "string"
        }
      ],
      "name": "RewardDistributed",
      "type": "event"
    },
    {
      "anonymous": false,
      "inputs": [
        {
          "indexed": true,
          "internalType": "bytes32",
          "name": "role",
          "type": "bytes32"
        },
        {
          "indexed": true,
          "internalType": "bytes32",
          "name": "previousAdminRole",
          "type": "bytes32"
        },
        {
          "indexed": true,
          "internalType": "bytes32",
          "name": "newAdminRole",
          "type": "bytes32"
        }
      ],
      "name": "RoleAdminChanged",
      "type": "event"
    },
    {
      "anonymous": false,
      "inputs": [
        {
          "indexed": true,
          "internalType": "bytes32",
          "name": "role",
          "type": "bytes32"
        },
        {
          "indexed": true,
          "internalType": "address",
          "name": "account",
          "type": "address"
        },
        {
          "indexed": true,
          "internalType": "address",
          "name": "sender",
          "type": "address"
        }
      ],
      "name": "RoleGranted",
      "type": "event"
    },
    {
      "anonymous": false,
      "inputs": [
        {
          "indexed": true,
          "internalType": "bytes32",
          "name": "role",
          "type": "bytes32"
        },
        {
          "indexed": true,
          "internalType": "address",
          "name": "account",
          "type": "address"
        },
        {
          "indexed": true,
          "internalType": "address",
          "name": "sender",
          "type": "address"
        }
      ],
      "name": "RoleRevoked",
      "type": "event"
    },
    {
      "inputs": [],
      "name": "DEFAULT_ADMIN_ROLE",
      "outputs": [
        {
          "internalType": "bytes32",
          "name": "",
          "type": "bytes32"
        }
      ],
      "stateMutability": "view",
      "type": "function"
    },
    {
      "inputs": [],
      "name": "DISTRIBUTOR_ROLE",
      "outputs": [
        {
          "internalType": "bytes32",
          "name": "",
          "type": "bytes32"
        }
      ],
      "stateMutability": "view",
      "type": "function"
    },
    {
      "inputs": [],
      "name": "assignmentReward",
      "outputs": [
        {
          "internalType": "uint256",
          "name": "",
          "type": "uint256"
        }
      ],
      "stateMutability": "view",
      "type": "function"
    },
    {
      "inputs": [],
      "name": "courseCompletionReward",
      "outputs": [
        {
          "internalType": "uint256",
          "name": "",
          "type": "uint256"
        }
      ],
      "stateMutability": "view",
      "type": "function"
    },
    {
      "inputs": [
        {
          "internalType": "address",
          "name": "user",
          "type": "address"
        },
        {
          "internalType": "uint256",
          "name": "assignmentId",
          "type": "uint256"
        }
      ],
      "name": "distributeAssignmentReward",
      "outputs": [],
      "stateMutability": "nonpayable",
      "type": "function"
    },
    {
      "inputs": [
        {
          "internalType": "address",
          "name": "user",
          "type": "address"
        },
        {
          "internalType": "uint256",
          "name": "courseId",
          "type": "uint256"
        }
      ],
      "name": "distributeCourseCompletionReward",
      "outputs": [],
      "stateMutability": "nonpayable",
      "type": "function"
    },
    {
      "inputs": [
        {
          "internalType": "address",
          "name": "user",
          "type": "address"
        },
        {
          "internalType": "uint256",
          "name": "forumId",
          "type": "uint256"
        }
      ],
      "name": "distributeForumReward",
      "outputs": [],
      "stateMutability": "nonpayable",
      "type": "function"
    },
    {
      "inputs": [
        {
          "internalType": "address",
          "name": "user",
          "type": "address"
        },
        {
          "internalType": "uint256",
          "name": "lessonId",
          "type": "uint256"
        }
      ],
      "name": "distributeLessonReward",
      "outputs": [],
      "stateMutability": "nonpayable",
      "type": "function"
    },
    {
      "inputs": [
        {
          "internalType": "address",
          "name": "user",
          "type": "address"
        },
        {
          "internalType": "uint256",
          "name": "quizId",
          "type": "uint256"
        },
        {
          "internalType": "uint256",
          "name": "score",
          "type": "uint256"
        }
      ],
      "name": "distributeQuizReward",
      "outputs": [],
      "stateMutability": "nonpayable",
      "type": "function"
    },
    {
      "inputs": [
        {
          "internalType": "address",
          "name": "user",
          "type": "address"
        },
        {
          "internalType": "uint256",
          "name": "reviewId",
          "type": "uint256"
        }
      ],
      "name": "distributeReviewReward",
      "outputs": [],
      "stateMutability": "nonpayable",
      "type": "function"
    },
    {
      "inputs": [
        {
          "internalType": "address",
          "name": "user",
          "type": "address"
        },
        {
          "internalType": "uint256",
          "name": "streakDays",
          "type": "uint256"
        }
      ],
      "name": "distributeStreakReward",
      "outputs": [],
      "stateMutability": "nonpayable",
      "type": "function"
    },
    {
      "inputs": [],
      "name": "forumReward",
      "outputs": [
        {
          "internalType": "uint256",
          "name": "",
          "type": "uint256"
        }
      ],
      "stateMutability": "view",
      "type": "function"
    },
    {
      "inputs": [
        {
          "internalType": "bytes32",
          "name": "role",
          "type": "bytes32"
        }
      ],
      "name": "getRoleAdmin",
      "outputs": [
        {
          "internalType": "bytes32",
          "name": "",
          "type": "bytes32"
        }
      ],
      "stateMutability": "view",
      "type": "function"
    },
    {
      "inputs": [
        {
          "internalType": "address",
          "name": "account",
          "type": "address"
        }
      ],
      "name": "grantDistributorRole",
      "outputs": [],
      "stateMutability": "nonpayable",
      "type": "function"
    },
    {
      "inputs": [
        {
          "internalType": "bytes32",
          "name": "role",
          "type": "bytes32"
        },
        {
          "internalType": "address",
          "name": "account",
          "type": "address"
        }
      ],
      "name": "grantRole",
      "outputs": [],
      "stateMutability": "nonpayable",
      "type": "function"
    },
    {
      "inputs": [
        {
          "internalType": "bytes32",
          "name": "role",
          "type": "bytes32"
        },
        {
          "internalType": "address",
          "name": "account",
          "type": "address"
        }
      ],
      "name": "hasRole",
      "outputs": [
        {
          "internalType": "bool",
          "name": "",
          "type": "bool"
        }
      ],
      "stateMutability": "view",
      "type": "function"
    },
    {
      "inputs": [
        {
          "internalType": "address",
          "name": "user",
          "type": "address"
        },
        {
          "internalType": "string",
          "name": "activityType",
          "type": "string"
        },
        {
          "internalType": "uint256",
          "name": "activityId",
          "type": "uint256"
        }
      ],
      "name": "isRewardClaimed",
      "outputs": [
        {
          "internalType": "bool",
          "name": "",
          "type": "bool"
        }
      ],
      "stateMutability": "view",
      "type": "function"
    },
    {
      "inputs": [],
      "name": "lessonReward",
      "outputs": [
        {
          "internalType": "uint256",
          "name": "",
          "type": "uint256"
        }
      ],
      "stateMutability": "view",
      "type": "function"
    },
    {
      "inputs": [],
      "name": "quizBaseReward",
      "outputs": [
        {
          "internalType": "uint256",
          "name": "",
          "type": "uint256"
        }
      ],
      "stateMutability": "view",
      "type": "function"
    },
    {
      "inputs": [
        {
          "internalType": "bytes32",
          "name": "role",
          "type": "bytes32"
        },
        {
          "internalType": "address",
          "name": "account",
          "type": "address"
        }
      ],
      "name": "renounceRole",
      "outputs": [],
      "stateMutability": "nonpayable",
      "type": "function"
    },
    {
      "inputs": [],
      "name": "reviewReward",
      "outputs": [
        {
          "internalType": "uint256",
          "name": "",
          "type": "uint256"
        }
      ],
      "stateMutability": "view",
      "type": "function"
    },
    {
      "inputs": [
        {
          "internalType": "bytes32",
          "name": "role",
          "type": "bytes32"
        },
        {
          "internalType": "address",
          "name": "account",
          "type": "address"
        }
      ],
      "name": "revokeRole",
      "outputs": [],
      "stateMutability": "nonpayable",
      "type": "function"
    },
    {
      "inputs": [
        {
          "internalType": "address",
          "name": "",
          "type": "address"
        },
        {
          "internalType": "string",
          "name": "",
          "type": "string"
        },
        {
          "internalType": "uint256",
          "name": "",
          "type": "uint256"
        }
      ],
      "name": "rewardsClaimed",
      "outputs": [
        {
          "internalType": "bool",
          "name": "",
          "type": "bool"
        }
      ],
      "stateMutability": "view",
      "type": "function"
    },
    {
      "inputs": [],
      "name": "streakReward",
      "outputs": [
        {
          "internalType": "uint256",
          "name": "",
          "type": "uint256"
        }
      ],
      "stateMutability": "view",
      "type": "function"
    },
    {
      "inputs": [
        {
          "internalType": "bytes4",
          "name": "interfaceId",
          "type": "bytes4"
        }
      ],
      "name": "supportsInterface",
      "outputs": [
        {
          "internalType": "bool",
          "name": "",
          "type": "bool"
        }
      ],
      "stateMutability": "view",
      "type": "function"
    },
    {
      "inputs": [],
      "name": "token",
      "outputs": [
        {
          "internalType": "contract LearnHubToken",
          "name": "",
          "type": "address"
        }
      ],
      "stateMutability": "view",
      "type": "function"
    },
    {
      "inputs": [
        {
          "internalType": "uint256",
          "name": "_lessonReward",
          "type": "uint256"
        },
        {
          "internalType": "uint256",
          "name": "_quizBaseReward",
          "type": "uint256"
        },
        {
          "internalType": "uint256",
          "name": "_assignmentReward",
          "type": "uint256"
        },
        {
          "internalType": "uint256",
          "name": "_courseCompletionReward",
          "type": "uint256"
        },
        {
          "internalType": "uint256",
          "name": "_reviewReward",
          "type": "uint256"
        },
        {
          "internalType": "uint256",
          "name": "_forumReward",
          "type": "uint256"
        },
        {
          "internalType": "uint256",
          "name": "_streakReward",
          "type": "uint256"
        }
      ],
      "name": "updateRewardAmounts",
      "outputs": [],
      "stateMutability": "nonpayable",
      "type": "function"
    }
  ],
  "bytecode": "0x6080604052678ac7230489e80000600255678ac7230489e800006003556802b5e3af16b1880000600455680ad78ebc5ac6200000600555674563918244f400006006556729a2241af62c00006007556801158e460913d000006008553480156200006857600080fd5b5060405162001fd838038062001fd88339810160408190526200008b91620001a9565b62000098600083620000eb565b620000c47ffbd454f36a7e1a388bd6fc3ab10d434aa4578f811acbbcf33afb1c697486313c83620000eb565b600180546001600160a01b0319166001600160a01b039290921691909117905550620001e1565b6000828152602081815260408083206001600160a01b038516845290915290205460ff1662000188576000828152602081815260408083206001600160a01b03851684529091529020805460ff19166001179055620001473390565b6001600160a01b0316816001600160a01b0316837f2f8788117e7eff1d82e926ec794901d17c78024a50270940304540a733656f0d60405160405180910390a45b5050565b80516001600160a01b0381168114620001a457600080fd5b919050565b60008060408385031215620001bd57600080fd5b620001c8836200018c565b9150620001d8602084016200018c565b90509250929050565b611de780620001f16000396000f3fe608060405234801561001057600080fd5b50600436106101a95760003560e01c80638bba2a0a116100f9578063daa3f56b11610097578063f241842911610071578063f241842914610385578063f33a7edd14610398578063f41a7832146103a1578063fc0c546a146103b457600080fd5b8063daa3f56b1461035e578063e07bc59214610367578063f0bd87cc1461037057600080fd5b8063a217fddf116100d3578063a217fddf1461031d578063a2dcbb3214610325578063d39746a214610338578063d547741f1461034b57600080fd5b80638bba2a0a146102ee5780638be1c84a1461030157806391d148541461030a57600080fd5b806325e3dfbc116101665780633cf21d48116101405780633cf21d48146102b65780633efe458a146102c957806350bc5d08146102d25780638457e243146102db57600080fd5b806325e3dfbc1461027d5780632f2ff15d1461029057806336568abe146102a357600080fd5b806301ffc9a7146101ae57806311926bc4146101d657806316ba6b82146101eb578063184fa302146102025780631a50cc1914610247578063248a9ca31461025a575b600080fd5b6101c16101bc3660046116d4565b6103df565b60405190151581526020015b60405180910390f35b6101e96101e43660046116fe565b610416565b005b6101f460075481565b6040519081526020016101cd565b6101c161021036600461177c565b6009602090815260009384526040808520845180860184018051928152908401958401959095209452929052825290205460ff1681565b6101e9610255366004611847565b610442565b6101f4610268366004611871565b60009081526020819052604090206001015490565b6101c161028b36600461177c565b6106d5565b6101e961029e36600461188a565b610722565b6101e96102b136600461188a565b61074c565b6101e96102c4366004611847565b6107ca565b6101f460085481565b6101f460055481565b6101e96102e9366004611847565b6109a8565b6101e96102fc3660046118b6565b610b79565b6101f460045481565b6101c161031836600461188a565b610b9c565b6101f4600081565b6101e9610333366004611847565b610bc5565b6101e96103463660046118d1565b610d95565b6101e961035936600461188a565b611015565b6101f460025481565b6101f460065481565b6101f4600080516020611d9283398151915281565b6101e9610393366004611847565b61103a565b6101f460035481565b6101e96103af366004611847565b61120f565b6001546103c7906001600160a01b031681565b6040516001600160a01b0390911681526020016101cd565b60006001600160e01b03198216637965db0b60e01b148061041057506301ffc9a760e01b6001600160e01b03198316145b92915050565b6000610421816113d0565b50600296909655600394909455600492909255600555600655600755600855565b61045a600080516020611d9283398151915233610b9c565b61047f5760405162461bcd60e51b815260040161047690611904565b60405180910390fd5b60018110156104ea5760405162461bcd60e51b815260206004820152603160248201527f526577617264446973747269627574696f6e3a2053747265616b206d757374206044820152706265206174206c6561737420312064617960781b6064820152608401610476565b604080518082018252600681526573747265616b60d01b6020808301919091526001600160a01b03851660009081526009909152829020915190919061053190839061196d565b90815260408051602092819003830190206000858152925290205460ff161561056c5760405162461bcd60e51b815260040161047690611989565b60008260010361058657506801158e460913d000006105bc565b6105916001846119e2565b61059c90600a6119f5565b6105a7906014611a0c565b6105b990670de0b6b3a76400006119f5565b90505b6001600160a01b038416600090815260096020526040908190209051600191906105e790859061196d565b9081526040805160209281900383018120600088815293529120805460ff1916921515929092179091556001546334ff261960e21b82526001600160a01b03868116600484015260248301849052606060448401526013606484015272131bd9da5b881cdd1c99585ac81c995dd85c99606a1b6084840152169063d3fc98649060a401600060405180830381600087803b15801561068457600080fd5b505af1158015610698573d6000803e3d6000fd5b50505050836001600160a01b0316600080516020611d728339815191528385846040516106c793929190611a4b565b60405180910390a250505050565b6001600160a01b03831660009081526009602052604080822090516106fb90859061196d565b908152604080516020928190038301902060009485529091529091205460ff169392505050565b60008281526020819052604090206001015461073d816113d0565b61074783836113dd565b505050565b6001600160a01b03811633146107bc5760405162461bcd60e51b815260206004820152602f60248201527f416363657373436f6e74726f6c3a2063616e206f6e6c792072656e6f756e636560448201526e103937b632b9903337b91039b2b63360891b6064820152608401610476565b6107c68282611461565b5050565b6107e2600080516020611d9283398151915233610b9c565b6107fe5760405162461bcd60e51b815260040161047690611904565b6040805180820182526006815265636f7572736560d01b6020808301919091526001600160a01b03851660009081526009909152829020915190919061084590839061196d565b90815260408051602092819003830190206000858152925290205460ff16156108805760405162461bcd60e51b815260040161047690611989565b6001600160a01b038316600090815260096020526040908190209051600191906108ab90849061196d565b9081526040805160209281900383018120600087815293529120805460ff1916921515929092179091556001546005546334ff261960e21b83526001600160a01b038681166004850152602484019190915260606044840152601860648401527f436f7572736520636f6d706c6574696f6e2072657761726400000000000000006084840152169063d3fc98649060a401600060405180830381600087803b15801561095657600080fd5b505af115801561096a573d6000803e3d6000fd5b50505050826001600160a01b0316600080516020611d72833981519152828460055460405161099b93929190611aa3565b60405180910390a2505050565b6109c0600080516020611d9283398151915233610b9c565b6109dc5760405162461bcd60e51b815260040161047690611904565b60408051808201825260068152653632b9b9b7b760d11b6020808301919091526001600160a01b038516600090815260099091528290209151909190610a2390839061196d565b90815260408051602092819003830190206000858152925290205460ff1615610a5e5760405162461bcd60e51b815260040161047690611989565b6001600160a01b03831660009081526009602052604090819020905160019190610a8990849061196d565b9081526040805160209281900383018120600087815293529120805460ff1916921515929092179091556001546002546334ff261960e21b83526001600160a01b038681166004850152602484019190915260606044840152601860648401527f4c6573736f6e20636f6d706c6574696f6e2072657761726400000000000000006084840152169063d3fc98649060a401600060405180830381600087803b158015610b3457600080fd5b505af1158015610b48573d6000803e3d6000fd5b50505050826001600160a01b0316600080516020611d72833981519152828460025460405161099b93929190611af6565b6000610b84816113d0565b6107c6600080516020611d92833981519152836113dd565b6000918252602082815260408084206001600160a01b0393909316845291905290205460ff1690565b610bdd600080516020611d9283398151915233610b9c565b610bf95760405162461bcd60e51b815260040161047690611904565b6040805180820182526005815264666f72756d60d81b6020808301919091526001600160a01b038516600090815260099091528290209151909190610c3f90839061196d565b90815260408051602092819003830190206000858152925290205460ff1615610c7a5760405162461bcd60e51b815260040161047690611989565b6001600160a01b03831660009081526009602052604090819020905160019190610ca590849061196d565b9081526040805160209281900383018120600087815293529120805460ff1916921515929092179091556001546007546334ff261960e21b83526001600160a01b038681166004850152602484019190915260606044840152601a60648401527f466f72756d2070617274696369706174696f6e207265776172640000000000006084840152169063d3fc98649060a401600060405180830381600087803b158015610d5057600080fd5b505af1158015610d64573d6000803e3d6000fd5b50505050826001600160a01b0316600080516020611d72833981519152828460075460405161099b93929190611b49565b610dad600080516020611d9283398151915233610b9c565b610dc95760405162461bcd60e51b815260040161047690611904565b6046811015610e245760405162461bcd60e51b815260206004820152602160248201527f526577617264446973747269627574696f6e3a2053636f726520746f6f206c6f6044820152607760f81b6064820152608401610476565b604080518082018252600481526338bab4bd60e11b6020808301919091526001600160a01b038616600090815260099091528290209151909190610e6990839061196d565b90815260408051602092819003830190206000868152925290205460ff1615610ea45760405162461bcd60e51b815260040161047690611989565b6000601e600354604685610eb891906119e2565b610ec291906119f5565b610ecc9190611b9f565b600354610ed99190611a0c565b90506802b5e3af16b1880000811115610ef857506802b5e3af16b18800005b6001600160a01b03851660009081526009602052604090819020905160019190610f2390859061196d565b9081526040805160209281900383018120600089815293529120805460ff1916921515929092179091556001546334ff261960e21b82526001600160a01b03878116600484015260248301849052606060448401526016606484015275145d5a5e8818dbdb5c1b195d1a5bdb881c995dd85c9960521b6084840152169063d3fc98649060a401600060405180830381600087803b158015610fc357600080fd5b505af1158015610fd7573d6000803e3d6000fd5b50505050846001600160a01b0316600080516020611d7283398151915283868460405161100693929190611bc1565b60405180910390a25050505050565b600082815260208190526040902060010154611030816113d0565b6107478383611461565b611052600080516020611d9283398151915233610b9c565b61106e5760405162461bcd60e51b815260040161047690611904565b604080518082018252600a815269185cdcda59db9b595b9d60b21b6020808301919091526001600160a01b0385166000908152600990915282902091519091906110b990839061196d565b90815260408051602092819003830190206000858152925290205460ff16156110f45760405162461bcd60e51b815260040161047690611989565b6001600160a01b0383166000908152600960205260409081902090516001919061111f90849061196d565b9081526040805160209281900383018120600087815293529120805460ff191692151592909217909155600154600480546334ff261960e21b84526001600160a01b0387811692850192909252602484015260606044840152601c60648401527f41737369676e6d656e7420636f6d706c6574696f6e20726577617264000000006084840152169063d3fc98649060a401600060405180830381600087803b1580156111ca57600080fd5b505af11580156111de573d6000803e3d6000fd5b50505050826001600160a01b0316600080516020611d72833981519152828460045460405161099b93929190611c12565b611227600080516020611d9283398151915233610b9c565b6112435760405162461bcd60e51b815260040161047690611904565b604080518082018252600681526572657669657760d01b6020808301919091526001600160a01b03851660009081526009909152829020915190919061128a90839061196d565b90815260408051602092819003830190206000858152925290205460ff16156112c55760405162461bcd60e51b815260040161047690611989565b6001600160a01b038316600090815260096020526040908190209051600191906112f090849061196d565b9081526040805160209281900383018120600087815293529120805460ff1916921515929092179091556001546006546334ff261960e21b83526001600160a01b038681166004850152602484019190915260606044840152600d60648401526c14995d9a595dc81c995dd85c99609a1b6084840152169063d3fc98649060a401600060405180830381600087803b15801561138b57600080fd5b505af115801561139f573d6000803e3d6000fd5b50505050826001600160a01b0316600080516020611d72833981519152828460065460405161099b93929190611c69565b6113da81336114c6565b50565b6113e78282610b9c565b6107c6576000828152602081815260408083206001600160a01b03851684529091529020805460ff1916600117905561141d3390565b6001600160a01b0316816001600160a01b0316837f2f8788117e7eff1d82e926ec794901d17c78024a50270940304540a733656f0d60405160405180910390a45050565b61146b8282610b9c565b156107c6576000828152602081815260408083206001600160a01b0385168085529252808320805460ff1916905551339285917ff6391f5c32d9c69d2a47ea670b442974b53935d1edc7fd64eb21e047a839171b9190a45050565b6114d08282610b9c565b6107c6576114dd8161151f565b6114e8836020611531565b6040516020016114f9929190611cbc565b60408051601f198184030181529082905262461bcd60e51b825261047691600401611d31565b60606104106001600160a01b03831660145b606060006115408360026119f5565b61154b906002611a0c565b67ffffffffffffffff81111561156357611563611766565b6040519080825280601f01601f19166020018201604052801561158d576020820181803683370190505b509050600360fc1b816000815181106115a8576115a8611d44565b60200101906001600160f81b031916908160001a905350600f60fb1b816001815181106115d7576115d7611d44565b60200101906001600160f81b031916908160001a90535060006115fb8460026119f5565b611606906001611a0c565b90505b600181111561167e576f181899199a1a9b1b9c1cb0b131b232b360811b85600f166010811061163a5761163a611d44565b1a60f81b82828151811061165057611650611d44565b60200101906001600160f81b031916908160001a90535060049490941c9361167781611d5a565b9050611609565b5083156116cd5760405162461bcd60e51b815260206004820181905260248201527f537472696e67733a20686578206c656e67746820696e73756666696369656e746044820152606401610476565b9392505050565b6000602082840312156116e657600080fd5b81356001600160e01b0319811681146116cd57600080fd5b600080600080600080600060e0888a03121561171957600080fd5b505085359760208701359750604087013596606081013596506080810135955060a0810135945060c0013592509050565b80356001600160a01b038116811461176157600080fd5b919050565b634e487b7160e01b600052604160045260246000fd5b60008060006060848603121561179157600080fd5b61179a8461174a565b9250602084013567ffffffffffffffff808211156117b757600080fd5b818601915086601f8301126117cb57600080fd5b8135818111156117dd576117dd611766565b604051601f8201601f19908116603f0116810190838211818310171561180557611805611766565b8160405282815289602084870101111561181e57600080fd5b826020860160208301376000602084830101528096505050505050604084013590509250925092565b6000806040838503121561185a57600080fd5b6118638361174a565b946020939093013593505050565b60006020828403121561188357600080fd5b5035919050565b6000806040838503121561189d57600080fd5b823591506118ad6020840161174a565b90509250929050565b6000602082840312156118c857600080fd5b6116cd8261174a565b6000806000606084860312156118e657600080fd5b6118ef8461174a565b95602085013595506040909401359392505050565b60208082526025908201527f526577617264446973747269627574696f6e3a204e6f74206120646973747269604082015264313aba37b960d91b606082015260800190565b60005b8381101561196457818101518382015260200161194c565b50506000910152565b6000825161197f818460208701611949565b9190910192915050565b60208082526023908201527f526577617264446973747269627574696f6e3a20416c726561647920636c61696040820152621b595960ea1b606082015260800190565b634e487b7160e01b600052601160045260246000fd5b81810381811115610410576104106119cc565b8082028115828204841417610410576104106119cc565b80820180821115610410576104106119cc565b60008151808452611a37816020860160208601611949565b601f01601f19169290920160200192915050565b608081526000611a5e6080830186611a1f565b84602084015283604084015282810360608401526015815274131bd9da5b881cdd1c99585ac81858da1a595d9959605a1b602082015260408101915050949350505050565b608081526000611ab66080830186611a1f565b8460208401528360408401528281036060840152601081526f10dbdd5c9cd94818dbdb5c1b195d195960821b602082015260408101915050949350505050565b608081526000611b096080830186611a1f565b8460208401528360408401528281036060840152601081526f13195cdcdbdb8818dbdb5c1b195d195960821b602082015260408101915050949350505050565b608081526000611b5c6080830186611a1f565b846020840152836040840152828103606084015260138152722337b93ab6903830b93a34b1b4b830ba34b7b760691b602082015260408101915050949350505050565b600082611bbc57634e487b7160e01b600052601260045260246000fd5b500490565b608081526000611bd46080830186611a1f565b8460208401528360408401528281036060840152600e81526d145d5a5e8818dbdb5c1b195d195960921b602082015260408101915050949350505050565b608081526000611c256080830186611a1f565b84602084015283604084015282810360608401526014815273105cdcda59db9b595b9d0818dbdb5c1b195d195960621b602082015260408101915050949350505050565b608081526000611c7c6080830186611a1f565b8460208401528360408401528281036060840152601081526f14995d9a595dc81cdd589b5a5d1d195960821b602082015260408101915050949350505050565b7f416363657373436f6e74726f6c3a206163636f756e7420000000000000000000815260008351611cf4816017850160208801611949565b7001034b99036b4b9b9b4b733903937b6329607d1b6017918401918201528351611d25816028840160208801611949565b01602801949350505050565b6020815260006116cd6020830184611a1f565b634e487b7160e01b600052603260045260246000fd5b600081611d6957611d696119cc565b50600019019056fea2d9b4164a0c44976c7dfa39703c8b5c1fc4e6df45e707bc4aac5e958cafca3cfbd454f36a7e1a388bd6fc3ab10d434aa4578f811acbbcf33afb1c697486313ca2646970667358221220a123a64c5211a04e1444930b35711f2ba03919d6b0f01d2de659f9247416d96564736f6c63430008130033",
  "linkReferences": {},
  "deployedLinkReferences": {}
}