{
  "_format": "hh-sol-artifact-1",
  "contractName": "LearnHubToken",
  "sourceName": "contracts/LearnHubToken.sol",
  "abi": [
    {
      "inputs": [
        {
          "internalType": "address",
          "name": "admin",
          "type": "address"
        }
      ],
      "stateMutability": "nonpayable",
      "type": "constructor"
    },
    {
      "anonymous": false,
      "inputs": [
        {
          "indexed": true,
          "internalType": "address",
          "name": "owner",
          "type": "address"
        },
        {
          "indexed": true,
          "internalType": "address",
          "name": "spender",
          "type": "address"
        },
        {
          "indexed": false,
          "internalType": "uint256",
          "name": "value",
          "type": "uint256"
        }
      ],
      "name": "Approval",
      "type": "event"
    },
    {
      "anonymous": false,
      "inputs": [
        {
          "indexed": true,
          "internalType": "bytes32",
          "name": "role",
          "type": "bytes32"
        },
        {
          "indexed": true,
          "internalType": "bytes32",
          "name": "previousAdminRole",
          "type": "bytes32"
        },
        {
          "indexed": true,
          "internalType": "bytes32",
          "name": "newAdminRole",
          "type": "bytes32"
        }
      ],
      "name": "RoleAdminChanged",
      "type": "event"
    },
    {
      "anonymous": false,
      "inputs": [
        {
          "indexed": true,
          "internalType": "bytes32",
          "name": "role",
          "type": "bytes32"
        },
        {
          "indexed": true,
          "internalType": "address",
          "name": "account",
          "type": "address"
        },
        {
          "indexed": true,
          "internalType": "address",
          "name": "sender",
          "type": "address"
        }
      ],
      "name": "RoleGranted",
      "type": "event"
    },
    {
      "anonymous": false,
      "inputs": [
        {
          "indexed": true,
          "internalType": "bytes32",
          "name": "role",
          "type": "bytes32"
        },
        {
          "indexed": true,
          "internalType": "address",
          "name": "account",
          "type": "address"
        },
        {
          "indexed": true,
          "internalType": "address",
          "name": "sender",
          "type": "address"
        }
      ],
      "name": "RoleRevoked",
      "type": "event"
    },
    {
      "anonymous": false,
      "inputs": [
        {
          "indexed": true,
          "internalType": "address",
          "name": "from",
          "type": "address"
        },
        {
          "indexed": false,
          "internalType": "uint256",
          "name": "amount",
          "type": "uint256"
        },
        {
          "indexed": false,
          "internalType": "string",
          "name": "reason",
          "type": "string"
        }
      ],
      "name": "TokensBurned",
      "type": "event"
    },
    {
      "anonymous": false,
      "inputs": [
        {
          "indexed": true,
          "internalType": "address",
          "name": "to",
          "type": "address"
        },
        {
          "indexed": false,
          "internalType": "uint256",
          "name": "amount",
          "type": "uint256"
        },
        {
          "indexed": false,
          "internalType": "string",
          "name": "reason",
          "type": "string"
        }
      ],
      "name": "TokensMinted",
      "type": "event"
    },
    {
      "anonymous": false,
      "inputs": [
        {
          "indexed": true,
          "internalType": "address",
          "name": "from",
          "type": "address"
        },
        {
          "indexed": true,
          "internalType": "address",
          "name": "to",
          "type": "address"
        },
        {
          "indexed": false,
          "internalType": "uint256",
          "name": "value",
          "type": "uint256"
        }
      ],
      "name": "Transfer",
      "type": "event"
    },
    {
      "inputs": [],
      "name": "BURNER_ROLE",
      "outputs": [
        {
          "internalType": "bytes32",
          "name": "",
          "type": "bytes32"
        }
      ],
      "stateMutability": "view",
      "type": "function"
    },
    {
      "inputs": [],
      "name": "DEFAULT_ADMIN_ROLE",
      "outputs": [
        {
          "internalType": "bytes32",
          "name": "",
          "type": "bytes32"
        }
      ],
      "stateMutability": "view",
      "type": "function"
    },
    {
      "inputs": [],
      "name": "MAX_SUPPLY",
      "outputs": [
        {
          "internalType": "uint256",
          "name": "",
          "type": "uint256"
        }
      ],
      "stateMutability": "view",
      "type": "function"
    },
    {
      "inputs": [],
      "name": "MINTER_ROLE",
      "outputs": [
        {
          "internalType": "bytes32",
          "name": "",
          "type": "bytes32"
        }
      ],
      "stateMutability": "view",
      "type": "function"
    },
    {
      "inputs": [
        {
          "internalType": "address",
          "name": "owner",
          "type": "address"
        },
        {
          "internalType": "address",
          "name": "spender",
          "type": "address"
        }
      ],
      "name": "allowance",
      "outputs": [
        {
          "internalType": "uint256",
          "name": "",
          "type": "uint256"
        }
      ],
      "stateMutability": "view",
      "type": "function"
    },
    {
      "inputs": [
        {
          "internalType": "address",
          "name": "spender",
          "type": "address"
        },
        {
          "internalType": "uint256",
          "name": "amount",
          "type": "uint256"
        }
      ],
      "name": "approve",
      "outputs": [
        {
          "internalType": "bool",
          "name": "",
          "type": "bool"
        }
      ],
      "stateMutability": "nonpayable",
      "type": "function"
    },
    {
      "inputs": [
        {
          "internalType": "address",
          "name": "account",
          "type": "address"
        }
      ],
      "name": "balanceOf",
      "outputs": [
        {
          "internalType": "uint256",
          "name": "",
          "type": "uint256"
        }
      ],
      "stateMutability": "view",
      "type": "function"
    },
    {
      "inputs": [
        {
          "internalType": "uint256",
          "name": "amount",
          "type": "uint256"
        }
      ],
      "name": "burn",
      "outputs": [],
      "stateMutability": "nonpayable",
      "type": "function"
    },
    {
      "inputs": [
        {
          "internalType": "address",
          "name": "account",
          "type": "address"
        },
        {
          "internalType": "uint256",
          "name": "amount",
          "type": "uint256"
        }
      ],
      "name": "burnFrom",
      "outputs": [],
      "stateMutability": "nonpayable",
      "type": "function"
    },
    {
      "inputs": [
        {
          "internalType": "address",
          "name": "from",
          "type": "address"
        },
        {
          "internalType": "uint256",
          "name": "amount",
          "type": "uint256"
        },
        {
          "internalType": "string",
          "name": "reason",
          "type": "string"
        }
      ],
      "name": "burnFrom",
      "outputs": [],
      "stateMutability": "nonpayable",
      "type": "function"
    },
    {
      "inputs": [],
      "name": "decimals",
      "outputs": [
        {
          "internalType": "uint8",
          "name": "",
          "type": "uint8"
        }
      ],
      "stateMutability": "view",
      "type": "function"
    },
    {
      "inputs": [
        {
          "internalType": "address",
          "name": "spender",
          "type": "address"
        },
        {
          "internalType": "uint256",
          "name": "subtractedValue",
          "type": "uint256"
        }
      ],
      "name": "decreaseAllowance",
      "outputs": [
        {
          "internalType": "bool",
          "name": "",
          "type": "bool"
        }
      ],
      "stateMutability": "nonpayable",
      "type": "function"
    },
    {
      "inputs": [
        {
          "internalType": "bytes32",
          "name": "role",
          "type": "bytes32"
        }
      ],
      "name": "getRoleAdmin",
      "outputs": [
        {
          "internalType": "bytes32",
          "name": "",
          "type": "bytes32"
        }
      ],
      "stateMutability": "view",
      "type": "function"
    },
    {
      "inputs": [
        {
          "internalType": "address",
          "name": "account",
          "type": "address"
        }
      ],
      "name": "grantBurnerRole",
      "outputs": [],
      "stateMutability": "nonpayable",
      "type": "function"
    },
    {
      "inputs": [
        {
          "internalType": "address",
          "name": "account",
          "type": "address"
        }
      ],
      "name": "grantMinterRole",
      "outputs": [],
      "stateMutability": "nonpayable",
      "type": "function"
    },
    {
      "inputs": [
        {
          "internalType": "bytes32",
          "name": "role",
          "type": "bytes32"
        },
        {
          "internalType": "address",
          "name": "account",
          "type": "address"
        }
      ],
      "name": "grantRole",
      "outputs": [],
      "stateMutability": "nonpayable",
      "type": "function"
    },
    {
      "inputs": [
        {
          "internalType": "bytes32",
          "name": "role",
          "type": "bytes32"
        },
        {
          "internalType": "address",
          "name": "account",
          "type": "address"
        }
      ],
      "name": "hasRole",
      "outputs": [
        {
          "internalType": "bool",
          "name": "",
          "type": "bool"
        }
      ],
      "stateMutability": "view",
      "type": "function"
    },
    {
      "inputs": [
        {
          "internalType": "address",
          "name": "spender",
          "type": "address"
        },
        {
          "internalType": "uint256",
          "name": "addedValue",
          "type": "uint256"
        }
      ],
      "name": "increaseAllowance",
      "outputs": [
        {
          "internalType": "bool",
          "name": "",
          "type": "bool"
        }
      ],
      "stateMutability": "nonpayable",
      "type": "function"
    },
    {
      "inputs": [
        {
          "internalType": "address",
          "name": "to",
          "type": "address"
        },
        {
          "internalType": "uint256",
          "name": "amount",
          "type": "uint256"
        },
        {
          "internalType": "string",
          "name": "reason",
          "type": "string"
        }
      ],
      "name": "mint",
      "outputs": [],
      "stateMutability": "nonpayable",
      "type": "function"
    },
    {
      "inputs": [],
      "name": "name",
      "outputs": [
        {
          "internalType": "string",
          "name": "",
          "type": "string"
        }
      ],
      "stateMutability": "view",
      "type": "function"
    },
    {
      "inputs": [
        {
          "internalType": "bytes32",
          "name": "role",
          "type": "bytes32"
        },
        {
          "internalType": "address",
          "name": "account",
          "type": "address"
        }
      ],
      "name": "renounceRole",
      "outputs": [],
      "stateMutability": "nonpayable",
      "type": "function"
    },
    {
      "inputs": [
        {
          "internalType": "bytes32",
          "name": "role",
          "type": "bytes32"
        },
        {
          "internalType": "address",
          "name": "account",
          "type": "address"
        }
      ],
      "name": "revokeRole",
      "outputs": [],
      "stateMutability": "nonpayable",
      "type": "function"
    },
    {
      "inputs": [
        {
          "internalType": "bytes4",
          "name": "interfaceId",
          "type": "bytes4"
        }
      ],
      "name": "supportsInterface",
      "outputs": [
        {
          "internalType": "bool",
          "name": "",
          "type": "bool"
        }
      ],
      "stateMutability": "view",
      "type": "function"
    },
    {
      "inputs": [],
      "name": "symbol",
      "outputs": [
        {
          "internalType": "string",
          "name": "",
          "type": "string"
        }
      ],
      "stateMutability": "view",
      "type": "function"
    },
    {
      "inputs": [],
      "name": "totalSupply",
      "outputs": [
        {
          "internalType": "uint256",
          "name": "",
          "type": "uint256"
        }
      ],
      "stateMutability": "view",
      "type": "function"
    },
    {
      "inputs": [
        {
          "internalType": "address",
          "name": "to",
          "type": "address"
        },
        {
          "internalType": "uint256",
          "name": "amount",
          "type": "uint256"
        }
      ],
      "name": "transfer",
      "outputs": [
        {
          "internalType": "bool",
          "name": "",
          "type": "bool"
        }
      ],
      "stateMutability": "nonpayable",
      "type": "function"
    },
    {
      "inputs": [
        {
          "internalType": "address",
          "name": "from",
          "type": "address"
        },
        {
          "internalType": "address",
          "name": "to",
          "type": "address"
        },
        {
          "internalType": "uint256",
          "name": "amount",
          "type": "uint256"
        }
      ],
      "name": "transferFrom",
      "outputs": [
        {
          "internalType": "bool",
          "name": "",
          "type": "bool"
        }
      ],
      "stateMutability": "nonpayable",
      "type": "function"
    }
  ],
  "bytecode": "0x60806040523480156200001157600080fd5b5060405162001858380380620018588339810160408190526200003491620001ad565b6040518060400160405280600e81526020016d2632b0b937243ab1102a37b5b2b760911b8152506040518060400160405280600381526020016213121560ea1b815250816003908162000088919062000284565b50600462000097828262000284565b50620000a99150600090508262000108565b620000d57f9f2df0fed2c77648de5860a4cc508cd0818c85b8b8a1ab4ceeef8d981c8956a68262000108565b620001017f3c11d16cbaffd01df69ce1c404f6340ee057498f5f00246190ea54220576a8488262000108565b5062000350565b60008281526005602090815260408083206001600160a01b038516845290915290205460ff16620001a95760008281526005602090815260408083206001600160a01b03851684529091529020805460ff19166001179055620001683390565b6001600160a01b0316816001600160a01b0316837f2f8788117e7eff1d82e926ec794901d17c78024a50270940304540a733656f0d60405160405180910390a45b5050565b600060208284031215620001c057600080fd5b81516001600160a01b0381168114620001d857600080fd5b9392505050565b634e487b7160e01b600052604160045260246000fd5b600181811c908216806200020a57607f821691505b6020821081036200022b57634e487b7160e01b600052602260045260246000fd5b50919050565b601f8211156200027f57600081815260208120601f850160051c810160208610156200025a5750805b601f850160051c820191505b818110156200027b5782815560010162000266565b5050505b505050565b81516001600160401b03811115620002a057620002a0620001df565b620002b881620002b18454620001f5565b8462000231565b602080601f831160018114620002f05760008415620002d75750858301515b600019600386901b1c1916600185901b1785556200027b565b600085815260208120601f198616915b82811015620003215788860151825594840194600190910190840162000300565b5085821015620003405787850151600019600388901b60f8161c191681555b5050505050600190811b01905550565b6114f880620003606000396000f3fe608060405234801561001057600080fd5b50600436106101a95760003560e01c806342966c68116100f9578063a457c2d711610097578063d539139311610071578063d53913931461039b578063d547741f146103c2578063d98d23b1146103d5578063dd62ed3e146103e857600080fd5b8063a457c2d714610362578063a9059cbb14610375578063d3fc98641461038857600080fd5b806391d14854116100d357806391d148541461032c57806395d89b411461033f578063979430d214610347578063a217fddf1461035a57600080fd5b806342966c68146102dd57806370a08231146102f057806379cc67901461031957600080fd5b8063282c51f31161016657806332cb6b0c1161014057806332cb6b0c1461029157806336568abe146102a457806339509351146102b75780633dd1eb61146102ca57600080fd5b8063282c51f3146102465780632f2ff15d1461026d578063313ce5671461028257600080fd5b806301ffc9a7146101ae57806306fdde03146101d6578063095ea7b3146101eb57806318160ddd146101fe57806323b872dd14610210578063248a9ca314610223575b600080fd5b6101c16101bc36600461110b565b6103fb565b60405190151581526020015b60405180910390f35b6101de610432565b6040516101cd9190611185565b6101c16101f93660046111b4565b6104c4565b6002545b6040519081526020016101cd565b6101c161021e3660046111de565b6104dc565b61020261023136600461121a565b60009081526005602052604090206001015490565b6102027f3c11d16cbaffd01df69ce1c404f6340ee057498f5f00246190ea54220576a84881565b61028061027b366004611233565b610500565b005b604051601281526020016101cd565b6102026b033b2e3c9fd0803ce800000081565b6102806102b2366004611233565b61052a565b6101c16102c53660046111b4565b6105ad565b6102806102d836600461125f565b6105cf565b6102806102eb36600461121a565b610604565b6102026102fe36600461125f565b6001600160a01b031660009081526020819052604090205490565b6102806103273660046111b4565b610611565b6101c161033a366004611233565b610626565b6101de610651565b610280610355366004611290565b610660565b610202600081565b6101c16103703660046111b4565b6106dd565b6101c16103833660046111b4565b610758565b610280610396366004611290565b610766565b6102027f9f2df0fed2c77648de5860a4cc508cd0818c85b8b8a1ab4ceeef8d981c8956a681565b6102806103d0366004611233565b61084e565b6102806103e336600461125f565b610873565b6102026103f636600461135b565b6108a8565b60006001600160e01b03198216637965db0b60e01b148061042c57506301ffc9a760e01b6001600160e01b03198316145b92915050565b60606003805461044190611385565b80601f016020809104026020016040519081016040528092919081815260200182805461046d90611385565b80156104ba5780601f1061048f576101008083540402835291602001916104ba565b820191906000526020600020905b81548152906001019060200180831161049d57829003601f168201915b5050505050905090565b6000336104d28185856108d3565b5060019392505050565b6000336104ea8582856109f7565b6104f5858585610a71565b506001949350505050565b60008281526005602052604090206001015461051b81610c15565b6105258383610c1f565b505050565b6001600160a01b038116331461059f5760405162461bcd60e51b815260206004820152602f60248201527f416363657373436f6e74726f6c3a2063616e206f6e6c792072656e6f756e636560448201526e103937b632b9903337b91039b2b63360891b60648201526084015b60405180910390fd5b6105a98282610ca5565b5050565b6000336104d28185856105c083836108a8565b6105ca91906113d5565b6108d3565b60006105da81610c15565b6105a97f9f2df0fed2c77648de5860a4cc508cd0818c85b8b8a1ab4ceeef8d981c8956a683610c1f565b61060e3382610d0c565b50565b61061c8233836109f7565b6105a98282610d0c565b60009182526005602090815260408084206001600160a01b0393909316845291905290205460ff1690565b60606004805461044190611385565b7f3c11d16cbaffd01df69ce1c404f6340ee057498f5f00246190ea54220576a84861068a81610c15565b6106948484610d0c565b836001600160a01b03167ffad31924d655455395c87544c8aa1ffdb5a7505a22a3c2e03f28003b6556a75f84846040516106cf9291906113e8565b60405180910390a250505050565b600033816106eb82866108a8565b90508381101561074b5760405162461bcd60e51b815260206004820152602560248201527f45524332303a2064656372656173656420616c6c6f77616e63652062656c6f77604482015264207a65726f60d81b6064820152608401610596565b6104f582868684036108d3565b6000336104d2818585610a71565b7f9f2df0fed2c77648de5860a4cc508cd0818c85b8b8a1ab4ceeef8d981c8956a661079081610c15565b6b033b2e3c9fd0803ce8000000836107a760025490565b6107b191906113d5565b11156108095760405162461bcd60e51b815260206004820152602160248201527f4c6561726e487562546f6b656e3a2045786365656473206d617820737570706c6044820152607960f81b6064820152608401610596565b6108138484610e3e565b836001600160a01b03167f9d89e36eadf856db0ad9ffb5a569e07f95634dddd9501141ecf04820484ad0dc84846040516106cf9291906113e8565b60008281526005602052604090206001015461086981610c15565b6105258383610ca5565b600061087e81610c15565b6105a97f3c11d16cbaffd01df69ce1c404f6340ee057498f5f00246190ea54220576a84883610c1f565b6001600160a01b03918216600090815260016020908152604080832093909416825291909152205490565b6001600160a01b0383166109355760405162461bcd60e51b8152602060048201526024808201527f45524332303a20617070726f76652066726f6d20746865207a65726f206164646044820152637265737360e01b6064820152608401610596565b6001600160a01b0382166109965760405162461bcd60e51b815260206004820152602260248201527f45524332303a20617070726f766520746f20746865207a65726f206164647265604482015261737360f01b6064820152608401610596565b6001600160a01b0383811660008181526001602090815260408083209487168084529482529182902085905590518481527f8c5be1e5ebec7d5bd14f71427d1e84f3dd0314c0f7b2291e5b200ac8c7c3b925910160405180910390a3505050565b6000610a0384846108a8565b90506000198114610a6b5781811015610a5e5760405162461bcd60e51b815260206004820152601d60248201527f45524332303a20696e73756666696369656e7420616c6c6f77616e63650000006044820152606401610596565b610a6b84848484036108d3565b50505050565b6001600160a01b038316610ad55760405162461bcd60e51b815260206004820152602560248201527f45524332303a207472616e736665722066726f6d20746865207a65726f206164604482015264647265737360d81b6064820152608401610596565b6001600160a01b038216610b375760405162461bcd60e51b815260206004820152602360248201527f45524332303a207472616e7366657220746f20746865207a65726f206164647260448201526265737360e81b6064820152608401610596565b6001600160a01b03831660009081526020819052604090205481811015610baf5760405162461bcd60e51b815260206004820152602660248201527f45524332303a207472616e7366657220616d6f756e7420657863656564732062604482015265616c616e636560d01b6064820152608401610596565b6001600160a01b03848116600081815260208181526040808320878703905593871680835291849020805487019055925185815290927fddf252ad1be2c89b69c2b068fc378daa952ba7f163c4a11628f55a4df523b3ef910160405180910390a3610a6b565b61060e8133610efd565b610c298282610626565b6105a95760008281526005602090815260408083206001600160a01b03851684529091529020805460ff19166001179055610c613390565b6001600160a01b0316816001600160a01b0316837f2f8788117e7eff1d82e926ec794901d17c78024a50270940304540a733656f0d60405160405180910390a45050565b610caf8282610626565b156105a95760008281526005602090815260408083206001600160a01b0385168085529252808320805460ff1916905551339285917ff6391f5c32d9c69d2a47ea670b442974b53935d1edc7fd64eb21e047a839171b9190a45050565b6001600160a01b038216610d6c5760405162461bcd60e51b815260206004820152602160248201527f45524332303a206275726e2066726f6d20746865207a65726f206164647265736044820152607360f81b6064820152608401610596565b6001600160a01b03821660009081526020819052604090205481811015610de05760405162461bcd60e51b815260206004820152602260248201527f45524332303a206275726e20616d6f756e7420657863656564732062616c616e604482015261636560f01b6064820152608401610596565b6001600160a01b0383166000818152602081815260408083208686039055600280548790039055518581529192917fddf252ad1be2c89b69c2b068fc378daa952ba7f163c4a11628f55a4df523b3ef910160405180910390a3505050565b6001600160a01b038216610e945760405162461bcd60e51b815260206004820152601f60248201527f45524332303a206d696e7420746f20746865207a65726f2061646472657373006044820152606401610596565b8060026000828254610ea691906113d5565b90915550506001600160a01b038216600081815260208181526040808320805486019055518481527fddf252ad1be2c89b69c2b068fc378daa952ba7f163c4a11628f55a4df523b3ef910160405180910390a35050565b610f078282610626565b6105a957610f1481610f56565b610f1f836020610f68565b604051602001610f30929190611409565b60408051601f198184030181529082905262461bcd60e51b825261059691600401611185565b606061042c6001600160a01b03831660145b60606000610f7783600261147e565b610f829060026113d5565b67ffffffffffffffff811115610f9a57610f9a61127a565b6040519080825280601f01601f191660200182016040528015610fc4576020820181803683370190505b509050600360fc1b81600081518110610fdf57610fdf611495565b60200101906001600160f81b031916908160001a905350600f60fb1b8160018151811061100e5761100e611495565b60200101906001600160f81b031916908160001a905350600061103284600261147e565b61103d9060016113d5565b90505b60018111156110b5576f181899199a1a9b1b9c1cb0b131b232b360811b85600f166010811061107157611071611495565b1a60f81b82828151811061108757611087611495565b60200101906001600160f81b031916908160001a90535060049490941c936110ae816114ab565b9050611040565b5083156111045760405162461bcd60e51b815260206004820181905260248201527f537472696e67733a20686578206c656e67746820696e73756666696369656e746044820152606401610596565b9392505050565b60006020828403121561111d57600080fd5b81356001600160e01b03198116811461110457600080fd5b60005b83811015611150578181015183820152602001611138565b50506000910152565b60008151808452611171816020860160208601611135565b601f01601f19169290920160200192915050565b6020815260006111046020830184611159565b80356001600160a01b03811681146111af57600080fd5b919050565b600080604083850312156111c757600080fd5b6111d083611198565b946020939093013593505050565b6000806000606084860312156111f357600080fd5b6111fc84611198565b925061120a60208501611198565b9150604084013590509250925092565b60006020828403121561122c57600080fd5b5035919050565b6000806040838503121561124657600080fd5b8235915061125660208401611198565b90509250929050565b60006020828403121561127157600080fd5b61110482611198565b634e487b7160e01b600052604160045260246000fd5b6000806000606084860312156112a557600080fd5b6112ae84611198565b925060208401359150604084013567ffffffffffffffff808211156112d257600080fd5b818601915086601f8301126112e657600080fd5b8135818111156112f8576112f861127a565b604051601f8201601f19908116603f011681019083821181831017156113205761132061127a565b8160405282815289602084870101111561133957600080fd5b8260208601602083013760006020848301015280955050505050509250925092565b6000806040838503121561136e57600080fd5b61137783611198565b915061125660208401611198565b600181811c9082168061139957607f821691505b6020821081036113b957634e487b7160e01b600052602260045260246000fd5b50919050565b634e487b7160e01b600052601160045260246000fd5b8082018082111561042c5761042c6113bf565b8281526040602082015260006114016040830184611159565b949350505050565b7f416363657373436f6e74726f6c3a206163636f756e7420000000000000000000815260008351611441816017850160208801611135565b7001034b99036b4b9b9b4b733903937b6329607d1b6017918401918201528351611472816028840160208801611135565b01602801949350505050565b808202811582820484141761042c5761042c6113bf565b634e487b7160e01b600052603260045260246000fd5b6000816114ba576114ba6113bf565b50600019019056fea2646970667358221220467fff937379b94143bb6c94c4343d9c2852c54e1a7a7d4c477f14bcf1a9e81b64736f6c63430008130033",
  "linkReferences": {},
  "deployedLinkReferences": {}
}