{
  "_format": "hh-sol-artifact-1",
  "contractName": "CoursePayment",
  "sourceName": "contracts/CoursePayment.sol",
  "abi": [
    {
      "inputs": [
        {
          "internalType": "address",
          "name": "admin",
          "type": "address"
        },
        {
          "internalType": "address",
          "name": "tokenAddress",
          "type": "address"
        },
        {
          "internalType": "address",
          "name": "treasuryAddress",
          "type": "address"
        },
        {
          "internalType": "uint256",
          "name": "initialRate",
          "type": "uint256"
        }
      ],
      "stateMutability": "nonpayable",
      "type": "constructor"
    },
    {
      "anonymous": false,
      "inputs": [
        {
          "indexed": true,
          "internalType": "address",
          "name": "buyer",
          "type": "address"
        },
        {
          "indexed": true,
          "internalType": "uint256",
          "name": "orderId",
          "type": "uint256"
        },
        {
          "indexed": false,
          "internalType": "uint256",
          "name": "vndAmount",
          "type": "uint256"
        },
        {
          "indexed": false,
          "internalType": "uint256",
          "name": "lhtAmount",
          "type": "uint256"
        },
        {
          "indexed": false,
          "internalType": "string",
          "name": "reason",
          "type": "string"
        }
      ],
      "name": "CoursePurchased",
      "type": "event"
    },
    {
      "anonymous": false,
      "inputs": [
        {
          "indexed": false,
          "internalType": "uint256",
          "name": "newRate",
          "type": "uint256"
        }
      ],
      "name": "ExchangeRateUpdated",
      "type": "event"
    },
    {
      "anonymous": false,
      "inputs": [
        {
          "indexed": true,
          "internalType": "bytes32",
          "name": "role",
          "type": "bytes32"
        },
        {
          "indexed": true,
          "internalType": "bytes32",
          "name": "previousAdminRole",
          "type": "bytes32"
        },
        {
          "indexed": true,
          "internalType": "bytes32",
          "name": "newAdminRole",
          "type": "bytes32"
        }
      ],
      "name": "RoleAdminChanged",
      "type": "event"
    },
    {
      "anonymous": false,
      "inputs": [
        {
          "indexed": true,
          "internalType": "bytes32",
          "name": "role",
          "type": "bytes32"
        },
        {
          "indexed": true,
          "internalType": "address",
          "name": "account",
          "type": "address"
        },
        {
          "indexed": true,
          "internalType": "address",
          "name": "sender",
          "type": "address"
        }
      ],
      "name": "RoleGranted",
      "type": "event"
    },
    {
      "anonymous": false,
      "inputs": [
        {
          "indexed": true,
          "internalType": "bytes32",
          "name": "role",
          "type": "bytes32"
        },
        {
          "indexed": true,
          "internalType": "address",
          "name": "account",
          "type": "address"
        },
        {
          "indexed": true,
          "internalType": "address",
          "name": "sender",
          "type": "address"
        }
      ],
      "name": "RoleRevoked",
      "type": "event"
    },
    {
      "anonymous": false,
      "inputs": [
        {
          "indexed": false,
          "internalType": "address",
          "name": "newTreasury",
          "type": "address"
        }
      ],
      "name": "TreasuryUpdated",
      "type": "event"
    },
    {
      "inputs": [],
      "name": "DEFAULT_ADMIN_ROLE",
      "outputs": [
        {
          "internalType": "bytes32",
          "name": "",
          "type": "bytes32"
        }
      ],
      "stateMutability": "view",
      "type": "function"
    },
    {
      "inputs": [],
      "name": "PAYMENT_HANDLER_ROLE",
      "outputs": [
        {
          "internalType": "bytes32",
          "name": "",
          "type": "bytes32"
        }
      ],
      "stateMutability": "view",
      "type": "function"
    },
    {
      "inputs": [
        {
          "internalType": "uint256",
          "name": "vndAmount",
          "type": "uint256"
        }
      ],
      "name": "calculateLHTAmount",
      "outputs": [
        {
          "internalType": "uint256",
          "name": "",
          "type": "uint256"
        }
      ],
      "stateMutability": "view",
      "type": "function"
    },
    {
      "inputs": [
        {
          "internalType": "bytes32",
          "name": "role",
          "type": "bytes32"
        }
      ],
      "name": "getRoleAdmin",
      "outputs": [
        {
          "internalType": "bytes32",
          "name": "",
          "type": "bytes32"
        }
      ],
      "stateMutability": "view",
      "type": "function"
    },
    {
      "inputs": [
        {
          "internalType": "bytes32",
          "name": "role",
          "type": "bytes32"
        },
        {
          "internalType": "address",
          "name": "account",
          "type": "address"
        }
      ],
      "name": "grantRole",
      "outputs": [],
      "stateMutability": "nonpayable",
      "type": "function"
    },
    {
      "inputs": [
        {
          "internalType": "bytes32",
          "name": "role",
          "type": "bytes32"
        },
        {
          "internalType": "address",
          "name": "account",
          "type": "address"
        }
      ],
      "name": "hasRole",
      "outputs": [
        {
          "internalType": "bool",
          "name": "",
          "type": "bool"
        }
      ],
      "stateMutability": "view",
      "type": "function"
    },
    {
      "inputs": [
        {
          "internalType": "uint256",
          "name": "orderId",
          "type": "uint256"
        }
      ],
      "name": "isOrderPaid",
      "outputs": [
        {
          "internalType": "bool",
          "name": "",
          "type": "bool"
        }
      ],
      "stateMutability": "view",
      "type": "function"
    },
    {
      "inputs": [
        {
          "internalType": "uint256",
          "name": "",
          "type": "uint256"
        }
      ],
      "name": "orderPaid",
      "outputs": [
        {
          "internalType": "bool",
          "name": "",
          "type": "bool"
        }
      ],
      "stateMutability": "view",
      "type": "function"
    },
    {
      "inputs": [
        {
          "internalType": "address",
          "name": "buyer",
          "type": "address"
        },
        {
          "internalType": "uint256",
          "name": "orderId",
          "type": "uint256"
        },
        {
          "internalType": "uint256",
          "name": "vndAmount",
          "type": "uint256"
        },
        {
          "internalType": "string",
          "name": "reason",
          "type": "string"
        }
      ],
      "name": "payWithLHT",
      "outputs": [],
      "stateMutability": "nonpayable",
      "type": "function"
    },
    {
      "inputs": [
        {
          "internalType": "bytes32",
          "name": "role",
          "type": "bytes32"
        },
        {
          "internalType": "address",
          "name": "account",
          "type": "address"
        }
      ],
      "name": "renounceRole",
      "outputs": [],
      "stateMutability": "nonpayable",
      "type": "function"
    },
    {
      "inputs": [
        {
          "internalType": "bytes32",
          "name": "role",
          "type": "bytes32"
        },
        {
          "internalType": "address",
          "name": "account",
          "type": "address"
        }
      ],
      "name": "revokeRole",
      "outputs": [],
      "stateMutability": "nonpayable",
      "type": "function"
    },
    {
      "inputs": [
        {
          "internalType": "bytes4",
          "name": "interfaceId",
          "type": "bytes4"
        }
      ],
      "name": "supportsInterface",
      "outputs": [
        {
          "internalType": "bool",
          "name": "",
          "type": "bool"
        }
      ],
      "stateMutability": "view",
      "type": "function"
    },
    {
      "inputs": [],
      "name": "token",
      "outputs": [
        {
          "internalType": "contract LearnHubToken",
          "name": "",
          "type": "address"
        }
      ],
      "stateMutability": "view",
      "type": "function"
    },
    {
      "inputs": [],
      "name": "treasury",
      "outputs": [
        {
          "internalType": "address",
          "name": "",
          "type": "address"
        }
      ],
      "stateMutability": "view",
      "type": "function"
    },
    {
      "inputs": [
        {
          "internalType": "uint256",
          "name": "newRate",
          "type": "uint256"
        }
      ],
      "name": "updateExchangeRate",
      "outputs": [],
      "stateMutability": "nonpayable",
      "type": "function"
    },
    {
      "inputs": [
        {
          "internalType": "address",
          "name": "newTreasury",
          "type": "address"
        }
      ],
      "name": "updateTreasury",
      "outputs": [],
      "stateMutability": "nonpayable",
      "type": "function"
    },
    {
      "inputs": [],
      "name": "vndToLhtRate",
      "outputs": [
        {
          "internalType": "uint256",
          "name": "",
          "type": "uint256"
        }
      ],
      "stateMutability": "view",
      "type": "function"
    }
  ],
  "bytecode": "0x60806040523480156200001157600080fd5b50604051620011e7380380620011e7833981016040819052620000349162000165565b62000041600085620000a7565b6200006d7ff557328d2e5d38858ea134f7563b83561f4d585e7de365dd760441717fa6cc8785620000a7565b600180546001600160a01b039485166001600160a01b031991821617909155600280549390941692169190911790915560035550620001b7565b6000828152602081815260408083206001600160a01b038516845290915290205460ff1662000144576000828152602081815260408083206001600160a01b03851684529091529020805460ff19166001179055620001033390565b6001600160a01b0316816001600160a01b0316837f2f8788117e7eff1d82e926ec794901d17c78024a50270940304540a733656f0d60405160405180910390a45b5050565b80516001600160a01b03811681146200016057600080fd5b919050565b600080600080608085870312156200017c57600080fd5b620001878562000148565b9350620001976020860162000148565b9250620001a76040860162000148565b6060959095015193969295505050565b61102080620001c76000396000f3fe608060405234801561001057600080fd5b506004361061010b5760003560e01c806384ec5316116100a2578063b9e205ae11610071578063b9e205ae14610250578063d547741f14610263578063e4224cd314610276578063f660233d14610289578063fc0c546a146102ac57600080fd5b806384ec5316146101ff57806391d1485414610212578063a217fddf14610225578063a84a357c1461022d57600080fd5b806361d027b3116100de57806361d027b31461019157806376da4494146101bc5780637f51bb1f146101e357806384004c3b146101f657600080fd5b806301ffc9a714610110578063248a9ca3146101385780632f2ff15d1461016957806336568abe1461017e575b600080fd5b61012361011e366004610c8f565b6102bf565b60405190151581526020015b60405180910390f35b61015b610146366004610cb9565b60009081526020819052604090206001015490565b60405190815260200161012f565b61017c610177366004610cee565b6102f6565b005b61017c61018c366004610cee565b610320565b6002546101a4906001600160a01b031681565b6040516001600160a01b03909116815260200161012f565b61015b7ff557328d2e5d38858ea134f7563b83561f4d585e7de365dd760441717fa6cc8781565b61017c6101f1366004610d1a565b6103a3565b61015b60035481565b61015b61020d366004610cb9565b61046a565b610123610220366004610cee565b61048d565b61015b600081565b61012361023b366004610cb9565b60009081526004602052604090205460ff1690565b61017c61025e366004610cb9565b6104b6565b61017c610271366004610cee565b610546565b61017c610284366004610d4b565b61056b565b610123610297366004610cb9565b60046020526000908152604090205460ff1681565b6001546101a4906001600160a01b031681565b60006001600160e01b03198216637965db0b60e01b14806102f057506301ffc9a760e01b6001600160e01b03198316145b92915050565b6000828152602081905260409020600101546103118161098b565b61031b8383610998565b505050565b6001600160a01b03811633146103955760405162461bcd60e51b815260206004820152602f60248201527f416363657373436f6e74726f6c3a2063616e206f6e6c792072656e6f756e636560448201526e103937b632b9903337b91039b2b63360891b60648201526084015b60405180910390fd5b61039f8282610a1c565b5050565b60006103ae8161098b565b6001600160a01b0382166104145760405162461bcd60e51b815260206004820152602760248201527f436f757273655061796d656e743a20496e76616c6964207472656173757279206044820152666164647265737360c81b606482015260840161038c565b600280546001600160a01b0319166001600160a01b0384169081179091556040519081527f7dae230f18360d76a040c81f050aa14eb9d6dc7901b20fc5d855e2a20fe814d1906020015b60405180910390a15050565b6000670de0b6b3a7640000600354836104839190610e36565b6102f09190610e4d565b6000918252602082815260408084206001600160a01b0393909316845291905290205460ff1690565b60006104c18161098b565b600082116105115760405162461bcd60e51b815260206004820152601b60248201527f436f757273655061796d656e743a20496e76616c696420726174650000000000604482015260640161038c565b60038290556040518281527f388f446e9526fe5c9af20a5919b342370c8a7c0cb05245afe1e545658fa3cdba9060200161045e565b6000828152602081905260409020600101546105618161098b565b61031b8383610a1c565b6105957ff557328d2e5d38858ea134f7563b83561f4d585e7de365dd760441717fa6cc873361048d565b6105ed5760405162461bcd60e51b8152602060048201526024808201527f436f757273655061796d656e743a204e6f742061207061796d656e742068616e604482015263323632b960e11b606482015260840161038c565b60008381526004602052604090205460ff16156106565760405162461bcd60e51b815260206004820152602160248201527f436f757273655061796d656e743a204f7264657220616c7265616479207061696044820152601960fa1b606482015260840161038c565b6001600160a01b0384166106b85760405162461bcd60e51b8152602060048201526024808201527f436f757273655061796d656e743a20496e76616c6964206275796572206164646044820152637265737360e01b606482015260840161038c565b600082116107085760405162461bcd60e51b815260206004820152601d60248201527f436f757273655061796d656e743a20496e76616c696420616d6f756e74000000604482015260640161038c565b6000670de0b6b3a7640000600354846107219190610e36565b61072b9190610e4d565b9050600081116107895760405162461bcd60e51b815260206004820152602360248201527f436f757273655061796d656e743a204c485420616d6f756e7420746f6f20736d604482015262185b1b60ea1b606482015260840161038c565b6001546040516370a0823160e01b81526001600160a01b038781166004830152839216906370a0823190602401602060405180830381865afa1580156107d3573d6000803e3d6000fd5b505050506040513d601f19601f820116820180604052508101906107f79190610e6f565b10156108555760405162461bcd60e51b815260206004820152602760248201527f436f757273655061796d656e743a20496e73756666696369656e74204c48542060448201526662616c616e636560c81b606482015260840161038c565b6001546002546040516323b872dd60e01b81526001600160a01b0388811660048301529182166024820152604481018490529116906323b872dd906064016020604051808303816000875af11580156108b2573d6000803e3d6000fd5b505050506040513d601f19601f820116820180604052508101906108d69190610e88565b6109225760405162461bcd60e51b815260206004820152601e60248201527f436f757273655061796d656e743a205472616e73666572206661696c65640000604482015260640161038c565b60008481526004602052604090819020805460ff191660011790555184906001600160a01b038716907fabbbabd2d7dc3b5cc86ef5a8f39539e6a4bae264508e8a832591e069521f36439061097c90879086908890610efa565b60405180910390a35050505050565b6109958133610a81565b50565b6109a2828261048d565b61039f576000828152602081815260408083206001600160a01b03851684529091529020805460ff191660011790556109d83390565b6001600160a01b0316816001600160a01b0316837f2f8788117e7eff1d82e926ec794901d17c78024a50270940304540a733656f0d60405160405180910390a45050565b610a26828261048d565b1561039f576000828152602081815260408083206001600160a01b0385168085529252808320805460ff1916905551339285917ff6391f5c32d9c69d2a47ea670b442974b53935d1edc7fd64eb21e047a839171b9190a45050565b610a8b828261048d565b61039f57610a9881610ada565b610aa3836020610aec565b604051602001610ab4929190610f22565b60408051601f198184030181529082905262461bcd60e51b825261038c91600401610f97565b60606102f06001600160a01b03831660145b60606000610afb836002610e36565b610b06906002610faa565b67ffffffffffffffff811115610b1e57610b1e610d35565b6040519080825280601f01601f191660200182016040528015610b48576020820181803683370190505b509050600360fc1b81600081518110610b6357610b63610fbd565b60200101906001600160f81b031916908160001a905350600f60fb1b81600181518110610b9257610b92610fbd565b60200101906001600160f81b031916908160001a9053506000610bb6846002610e36565b610bc1906001610faa565b90505b6001811115610c39576f181899199a1a9b1b9c1cb0b131b232b360811b85600f1660108110610bf557610bf5610fbd565b1a60f81b828281518110610c0b57610c0b610fbd565b60200101906001600160f81b031916908160001a90535060049490941c93610c3281610fd3565b9050610bc4565b508315610c885760405162461bcd60e51b815260206004820181905260248201527f537472696e67733a20686578206c656e67746820696e73756666696369656e74604482015260640161038c565b9392505050565b600060208284031215610ca157600080fd5b81356001600160e01b031981168114610c8857600080fd5b600060208284031215610ccb57600080fd5b5035919050565b80356001600160a01b0381168114610ce957600080fd5b919050565b60008060408385031215610d0157600080fd5b82359150610d1160208401610cd2565b90509250929050565b600060208284031215610d2c57600080fd5b610c8882610cd2565b634e487b7160e01b600052604160045260246000fd5b60008060008060808587031215610d6157600080fd5b610d6a85610cd2565b93506020850135925060408501359150606085013567ffffffffffffffff80821115610d9557600080fd5b818701915087601f830112610da957600080fd5b813581811115610dbb57610dbb610d35565b604051601f8201601f19908116603f01168101908382118183101715610de357610de3610d35565b816040528281528a6020848701011115610dfc57600080fd5b82602086016020830137600060208483010152809550505050505092959194509250565b634e487b7160e01b600052601160045260246000fd5b80820281158282048414176102f0576102f0610e20565b600082610e6a57634e487b7160e01b600052601260045260246000fd5b500490565b600060208284031215610e8157600080fd5b5051919050565b600060208284031215610e9a57600080fd5b81518015158114610c8857600080fd5b60005b83811015610ec5578181015183820152602001610ead565b50506000910152565b60008151808452610ee6816020860160208601610eaa565b601f01601f19169290920160200192915050565b838152826020820152606060408201526000610f196060830184610ece565b95945050505050565b7f416363657373436f6e74726f6c3a206163636f756e7420000000000000000000815260008351610f5a816017850160208801610eaa565b7001034b99036b4b9b9b4b733903937b6329607d1b6017918401918201528351610f8b816028840160208801610eaa565b01602801949350505050565b602081526000610c886020830184610ece565b808201808211156102f0576102f0610e20565b634e487b7160e01b600052603260045260246000fd5b600081610fe257610fe2610e20565b50600019019056fea264697066735822122042c5d5eb7821fc7c174d432c04289478276a6f3ad04ee93136460efbd881e1a064736f6c63430008130033",
  "linkReferences": {},
  "deployedLinkReferences": {}
}