{
  "_format": "hh-sol-artifact-1",
  "contractName": "CertificateNFT",
  "sourceName": "contracts/CertificateNFT.sol",
  "abi": [
    {
      "inputs": [
        {
          "internalType": "address",
          "name": "admin",
          "type": "address"
        }
      ],
      "stateMutability": "nonpayable",
      "type": "constructor"
    },
    {
      "anonymous": false,
      "inputs": [
        {
          "indexed": true,
          "internalType": "address",
          "name": "owner",
          "type": "address"
        },
        {
          "indexed": true,
          "internalType": "address",
          "name": "approved",
          "type": "address"
        },
        {
          "indexed": true,
          "internalType": "uint256",
          "name": "tokenId",
          "type": "uint256"
        }
      ],
      "name": "Approval",
      "type": "event"
    },
    {
      "anonymous": false,
      "inputs": [
        {
          "indexed": true,
          "internalType": "address",
          "name": "owner",
          "type": "address"
        },
        {
          "indexed": true,
          "internalType": "address",
          "name": "operator",
          "type": "address"
        },
        {
          "indexed": false,
          "internalType": "bool",
          "name": "approved",
          "type": "bool"
        }
      ],
      "name": "ApprovalForAll",
      "type": "event"
    },
    {
      "anonymous": false,
      "inputs": [
        {
          "indexed": false,
          "internalType": "uint256",
          "name": "_fromTokenId",
          "type": "uint256"
        },
        {
          "indexed": false,
          "internalType": "uint256",
          "name": "_toTokenId",
          "type": "uint256"
        }
      ],
      "name": "BatchMetadataUpdate",
      "type": "event"
    },
    {
      "anonymous": false,
      "inputs": [
        {
          "indexed": true,
          "internalType": "address",
          "name": "to",
          "type": "address"
        },
        {
          "indexed": true,
          "internalType": "uint256",
          "name": "tokenId",
          "type": "uint256"
        },
        {
          "indexed": false,
          "internalType": "uint256",
          "name": "courseId",
          "type": "uint256"
        },
        {
          "indexed": false,
          "internalType": "string",
          "name": "metadataURI",
          "type": "string"
        }
      ],
      "name": "CertificateMinted",
      "type": "event"
    },
    {
      "anonymous": false,
      "inputs": [
        {
          "indexed": false,
          "internalType": "uint256",
          "name": "_tokenId",
          "type": "uint256"
        }
      ],
      "name": "MetadataUpdate",
      "type": "event"
    },
    {
      "anonymous": false,
      "inputs": [
        {
          "indexed": true,
          "internalType": "bytes32",
          "name": "role",
          "type": "bytes32"
        },
        {
          "indexed": true,
          "internalType": "bytes32",
          "name": "previousAdminRole",
          "type": "bytes32"
        },
        {
          "indexed": true,
          "internalType": "bytes32",
          "name": "newAdminRole",
          "type": "bytes32"
        }
      ],
      "name": "RoleAdminChanged",
      "type": "event"
    },
    {
      "anonymous": false,
      "inputs": [
        {
          "indexed": true,
          "internalType": "bytes32",
          "name": "role",
          "type": "bytes32"
        },
        {
          "indexed": true,
          "internalType": "address",
          "name": "account",
          "type": "address"
        },
        {
          "indexed": true,
          "internalType": "address",
          "name": "sender",
          "type": "address"
        }
      ],
      "name": "RoleGranted",
      "type": "event"
    },
    {
      "anonymous": false,
      "inputs": [
        {
          "indexed": true,
          "internalType": "bytes32",
          "name": "role",
          "type": "bytes32"
        },
        {
          "indexed": true,
          "internalType": "address",
          "name": "account",
          "type": "address"
        },
        {
          "indexed": true,
          "internalType": "address",
          "name": "sender",
          "type": "address"
        }
      ],
      "name": "RoleRevoked",
      "type": "event"
    },
    {
      "anonymous": false,
      "inputs": [
        {
          "indexed": true,
          "internalType": "address",
          "name": "from",
          "type": "address"
        },
        {
          "indexed": true,
          "internalType": "address",
          "name": "to",
          "type": "address"
        },
        {
          "indexed": true,
          "internalType": "uint256",
          "name": "tokenId",
          "type": "uint256"
        }
      ],
      "name": "Transfer",
      "type": "event"
    },
    {
      "inputs": [],
      "name": "DEFAULT_ADMIN_ROLE",
      "outputs": [
        {
          "internalType": "bytes32",
          "name": "",
          "type": "bytes32"
        }
      ],
      "stateMutability": "view",
      "type": "function"
    },
    {
      "inputs": [],
      "name": "MINTER_ROLE",
      "outputs": [
        {
          "internalType": "bytes32",
          "name": "",
          "type": "bytes32"
        }
      ],
      "stateMutability": "view",
      "type": "function"
    },
    {
      "inputs": [
        {
          "internalType": "address",
          "name": "to",
          "type": "address"
        },
        {
          "internalType": "uint256",
          "name": "tokenId",
          "type": "uint256"
        }
      ],
      "name": "approve",
      "outputs": [],
      "stateMutability": "nonpayable",
      "type": "function"
    },
    {
      "inputs": [
        {
          "internalType": "address",
          "name": "owner",
          "type": "address"
        }
      ],
      "name": "balanceOf",
      "outputs": [
        {
          "internalType": "uint256",
          "name": "",
          "type": "uint256"
        }
      ],
      "stateMutability": "view",
      "type": "function"
    },
    {
      "inputs": [
        {
          "internalType": "uint256",
          "name": "tokenId",
          "type": "uint256"
        }
      ],
      "name": "getApproved",
      "outputs": [
        {
          "internalType": "address",
          "name": "",
          "type": "address"
        }
      ],
      "stateMutability": "view",
      "type": "function"
    },
    {
      "inputs": [
        {
          "internalType": "address",
          "name": "user",
          "type": "address"
        },
        {
          "internalType": "uint256",
          "name": "courseId",
          "type": "uint256"
        }
      ],
      "name": "getCertificateTokenId",
      "outputs": [
        {
          "internalType": "uint256",
          "name": "",
          "type": "uint256"
        }
      ],
      "stateMutability": "view",
      "type": "function"
    },
    {
      "inputs": [
        {
          "internalType": "bytes32",
          "name": "role",
          "type": "bytes32"
        }
      ],
      "name": "getRoleAdmin",
      "outputs": [
        {
          "internalType": "bytes32",
          "name": "",
          "type": "bytes32"
        }
      ],
      "stateMutability": "view",
      "type": "function"
    },
    {
      "inputs": [
        {
          "internalType": "address",
          "name": "account",
          "type": "address"
        }
      ],
      "name": "grantMinterRole",
      "outputs": [],
      "stateMutability": "nonpayable",
      "type": "function"
    },
    {
      "inputs": [
        {
          "internalType": "bytes32",
          "name": "role",
          "type": "bytes32"
        },
        {
          "internalType": "address",
          "name": "account",
          "type": "address"
        }
      ],
      "name": "grantRole",
      "outputs": [],
      "stateMutability": "nonpayable",
      "type": "function"
    },
    {
      "inputs": [
        {
          "internalType": "address",
          "name": "user",
          "type": "address"
        },
        {
          "internalType": "uint256",
          "name": "courseId",
          "type": "uint256"
        }
      ],
      "name": "hasCertificate",
      "outputs": [
        {
          "internalType": "bool",
          "name": "",
          "type": "bool"
        }
      ],
      "stateMutability": "view",
      "type": "function"
    },
    {
      "inputs": [
        {
          "internalType": "bytes32",
          "name": "role",
          "type": "bytes32"
        },
        {
          "internalType": "address",
          "name": "account",
          "type": "address"
        }
      ],
      "name": "hasRole",
      "outputs": [
        {
          "internalType": "bool",
          "name": "",
          "type": "bool"
        }
      ],
      "stateMutability": "view",
      "type": "function"
    },
    {
      "inputs": [
        {
          "internalType": "address",
          "name": "owner",
          "type": "address"
        },
        {
          "internalType": "address",
          "name": "operator",
          "type": "address"
        }
      ],
      "name": "isApprovedForAll",
      "outputs": [
        {
          "internalType": "bool",
          "name": "",
          "type": "bool"
        }
      ],
      "stateMutability": "view",
      "type": "function"
    },
    {
      "inputs": [
        {
          "internalType": "address",
          "name": "to",
          "type": "address"
        },
        {
          "internalType": "uint256",
          "name": "courseId",
          "type": "uint256"
        },
        {
          "internalType": "string",
          "name": "metadataURI",
          "type": "string"
        }
      ],
      "name": "mintCertificate",
      "outputs": [
        {
          "internalType": "uint256",
          "name": "",
          "type": "uint256"
        }
      ],
      "stateMutability": "nonpayable",
      "type": "function"
    },
    {
      "inputs": [],
      "name": "name",
      "outputs": [
        {
          "internalType": "string",
          "name": "",
          "type": "string"
        }
      ],
      "stateMutability": "view",
      "type": "function"
    },
    {
      "inputs": [
        {
          "internalType": "uint256",
          "name": "tokenId",
          "type": "uint256"
        }
      ],
      "name": "ownerOf",
      "outputs": [
        {
          "internalType": "address",
          "name": "",
          "type": "address"
        }
      ],
      "stateMutability": "view",
      "type": "function"
    },
    {
      "inputs": [
        {
          "internalType": "bytes32",
          "name": "role",
          "type": "bytes32"
        },
        {
          "internalType": "address",
          "name": "account",
          "type": "address"
        }
      ],
      "name": "renounceRole",
      "outputs": [],
      "stateMutability": "nonpayable",
      "type": "function"
    },
    {
      "inputs": [
        {
          "internalType": "bytes32",
          "name": "role",
          "type": "bytes32"
        },
        {
          "internalType": "address",
          "name": "account",
          "type": "address"
        }
      ],
      "name": "revokeRole",
      "outputs": [],
      "stateMutability": "nonpayable",
      "type": "function"
    },
    {
      "inputs": [
        {
          "internalType": "address",
          "name": "from",
          "type": "address"
        },
        {
          "internalType": "address",
          "name": "to",
          "type": "address"
        },
        {
          "internalType": "uint256",
          "name": "tokenId",
          "type": "uint256"
        }
      ],
      "name": "safeTransferFrom",
      "outputs": [],
      "stateMutability": "nonpayable",
      "type": "function"
    },
    {
      "inputs": [
        {
          "internalType": "address",
          "name": "from",
          "type": "address"
        },
        {
          "internalType": "address",
          "name": "to",
          "type": "address"
        },
        {
          "internalType": "uint256",
          "name": "tokenId",
          "type": "uint256"
        },
        {
          "internalType": "bytes",
          "name": "data",
          "type": "bytes"
        }
      ],
      "name": "safeTransferFrom",
      "outputs": [],
      "stateMutability": "nonpayable",
      "type": "function"
    },
    {
      "inputs": [
        {
          "internalType": "address",
          "name": "operator",
          "type": "address"
        },
        {
          "internalType": "bool",
          "name": "approved",
          "type": "bool"
        }
      ],
      "name": "setApprovalForAll",
      "outputs": [],
      "stateMutability": "nonpayable",
      "type": "function"
    },
    {
      "inputs": [
        {
          "internalType": "bytes4",
          "name": "interfaceId",
          "type": "bytes4"
        }
      ],
      "name": "supportsInterface",
      "outputs": [
        {
          "internalType": "bool",
          "name": "",
          "type": "bool"
        }
      ],
      "stateMutability": "view",
      "type": "function"
    },
    {
      "inputs": [],
      "name": "symbol",
      "outputs": [
        {
          "internalType": "string",
          "name": "",
          "type": "string"
        }
      ],
      "stateMutability": "view",
      "type": "function"
    },
    {
      "inputs": [
        {
          "internalType": "uint256",
          "name": "",
          "type": "uint256"
        }
      ],
      "name": "tokenToCourse",
      "outputs": [
        {
          "internalType": "uint256",
          "name": "",
          "type": "uint256"
        }
      ],
      "stateMutability": "view",
      "type": "function"
    },
    {
      "inputs": [
        {
          "internalType": "uint256",
          "name": "tokenId",
          "type": "uint256"
        }
      ],
      "name": "tokenURI",
      "outputs": [
        {
          "internalType": "string",
          "name": "",
          "type": "string"
        }
      ],
      "stateMutability": "view",
      "type": "function"
    },
    {
      "inputs": [
        {
          "internalType": "address",
          "name": "from",
          "type": "address"
        },
        {
          "internalType": "address",
          "name": "to",
          "type": "address"
        },
        {
          "internalType": "uint256",
          "name": "tokenId",
          "type": "uint256"
        }
      ],
      "name": "transferFrom",
      "outputs": [],
      "stateMutability": "nonpayable",
      "type": "function"
    },
    {
      "inputs": [
        {
          "internalType": "address",
          "name": "",
          "type": "address"
        },
        {
          "internalType": "uint256",
          "name": "",
          "type": "uint256"
        }
      ],
      "name": "userCourseToToken",
      "outputs": [
        {
          "internalType": "uint256",
          "name": "",
          "type": "uint256"
        }
      ],
      "stateMutability": "view",
      "type": "function"
    }
  ],
  "bytecode": "0x60806040523480156200001157600080fd5b50604051620022bd380380620022bd833981016040819052620000349162000191565b6040518060400160405280601481526020017f4c6561726e48756220436572746966696361746500000000000000000000000081525060405180604001604052806004815260200163131210d560e21b815250816000908162000098919062000268565b506001620000a7828262000268565b50620000b991506000905082620000ec565b620000e57f9f2df0fed2c77648de5860a4cc508cd0818c85b8b8a1ab4ceeef8d981c8956a682620000ec565b5062000334565b60008281526007602090815260408083206001600160a01b038516845290915290205460ff166200018d5760008281526007602090815260408083206001600160a01b03851684529091529020805460ff191660011790556200014c3390565b6001600160a01b0316816001600160a01b0316837f2f8788117e7eff1d82e926ec794901d17c78024a50270940304540a733656f0d60405160405180910390a45b5050565b600060208284031215620001a457600080fd5b81516001600160a01b0381168114620001bc57600080fd5b9392505050565b634e487b7160e01b600052604160045260246000fd5b600181811c90821680620001ee57607f821691505b6020821081036200020f57634e487b7160e01b600052602260045260246000fd5b50919050565b601f8211156200026357600081815260208120601f850160051c810160208610156200023e5750805b601f850160051c820191505b818110156200025f578281556001016200024a565b5050505b505050565b81516001600160401b03811115620002845762000284620001c3565b6200029c81620002958454620001d9565b8462000215565b602080601f831160018114620002d45760008415620002bb5750858301515b600019600386901b1c1916600185901b1785556200025f565b600085815260208120601f198616915b828110156200030557888601518255948401946001909101908401620002e4565b5085821015620003245787850151600019600388901b60f8161c191681555b5050505050600190811b01905550565b611f7980620003446000396000f3fe608060405234801561001057600080fd5b506004361061018e5760003560e01c806347ce03de116100de578063a22cb46511610097578063c87b56dd11610071578063c87b56dd146103db578063d5391393146103ee578063d547741f14610415578063e985e9c51461042857600080fd5b8063a22cb465146103a2578063a70d0e45146103b5578063b88d4fde146103c857600080fd5b806347ce03de146103395780636352211e1461035957806370a082311461036c57806391d148541461037f57806395d89b4114610392578063a217fddf1461039a57600080fd5b806323b872dd1161014b5780632f2ff15d116101255780632f2ff15d146102ed57806336568abe146103005780633dd1eb611461031357806342842e0e1461032657600080fd5b806323b872dd14610281578063248a9ca3146102945780632bfe824f146102b757600080fd5b806301ffc9a71461019357806306fdde03146101bb578063081812fc146101d0578063095ea7b3146101fb5780630ce7ed98146102105780630fc58fe014610248575b600080fd5b6101a66101a1366004611858565b610464565b60405190151581526020015b60405180910390f35b6101c3610475565b6040516101b291906118c5565b6101e36101de3660046118d8565b610507565b6040516001600160a01b0390911681526020016101b2565b61020e61020936600461190d565b61052e565b005b6101a661021e36600461190d565b6001600160a01b03919091166000908152600a602090815260408083209383529290522054151590565b61027361025636600461190d565b600a60209081526000928352604080842090915290825290205481565b6040519081526020016101b2565b61020e61028f366004611937565b610648565b6102736102a23660046118d8565b60009081526007602052604090206001015490565b6102736102c536600461190d565b6001600160a01b03919091166000908152600a60209081526040808320938352929052205490565b61020e6102fb366004611973565b610679565b61020e61030e366004611973565b61069e565b61020e61032136600461199f565b61071c565b61020e610334366004611937565b610751565b6102736103473660046118d8565b60096020526000908152604090205481565b6101e36103673660046118d8565b61076c565b61027361037a36600461199f565b6107cc565b6101a661038d366004611973565b610852565b6101c361087d565b610273600081565b61020e6103b03660046119ba565b61088c565b6102736103c3366004611a82565b610897565b61020e6103d6366004611aed565b610a03565b6101c36103e93660046118d8565b610a3b565b6102737f9f2df0fed2c77648de5860a4cc508cd0818c85b8b8a1ab4ceeef8d981c8956a681565b61020e610423366004611973565b610a46565b6101a6610436366004611b69565b6001600160a01b03918216600090815260056020908152604080832093909416825291909152205460ff1690565b600061046f82610a6b565b92915050565b60606000805461048490611b93565b80601f01602080910402602001604051908101604052809291908181526020018280546104b090611b93565b80156104fd5780601f106104d2576101008083540402835291602001916104fd565b820191906000526020600020905b8154815290600101906020018083116104e057829003601f168201915b5050505050905090565b600061051282610a90565b506000908152600460205260409020546001600160a01b031690565b60006105398261076c565b9050806001600160a01b0316836001600160a01b0316036105ab5760405162461bcd60e51b815260206004820152602160248201527f4552433732313a20617070726f76616c20746f2063757272656e74206f776e656044820152603960f91b60648201526084015b60405180910390fd5b336001600160a01b03821614806105c757506105c78133610436565b6106395760405162461bcd60e51b815260206004820152603d60248201527f4552433732313a20617070726f76652063616c6c6572206973206e6f7420746f60448201527f6b656e206f776e6572206f7220617070726f76656420666f7220616c6c00000060648201526084016105a2565b6106438383610af2565b505050565b6106523382610b60565b61066e5760405162461bcd60e51b81526004016105a290611bcd565b610643838383610bdf565b60008281526007602052604090206001015461069481610d43565b6106438383610d4d565b6001600160a01b038116331461070e5760405162461bcd60e51b815260206004820152602f60248201527f416363657373436f6e74726f6c3a2063616e206f6e6c792072656e6f756e636560448201526e103937b632b9903337b91039b2b63360891b60648201526084016105a2565b6107188282610dd3565b5050565b600061072781610d43565b6107187f9f2df0fed2c77648de5860a4cc508cd0818c85b8b8a1ab4ceeef8d981c8956a683610d4d565b61064383838360405180602001604052806000815250610a03565b6000818152600260205260408120546001600160a01b03168061046f5760405162461bcd60e51b8152602060048201526018602482015277115490cdcc8c4e881a5b9d985b1a59081d1bdad95b88125160421b60448201526064016105a2565b60006001600160a01b0382166108365760405162461bcd60e51b815260206004820152602960248201527f4552433732313a2061646472657373207a65726f206973206e6f7420612076616044820152683634b21037bbb732b960b91b60648201526084016105a2565b506001600160a01b031660009081526003602052604090205490565b60009182526007602090815260408084206001600160a01b0393909316845291905290205460ff1690565b60606001805461048490611b93565b610718338383610e3a565b60007f9f2df0fed2c77648de5860a4cc508cd0818c85b8b8a1ab4ceeef8d981c8956a66108c381610d43565b6001600160a01b0385166000908152600a602090815260408083208784529091529020541561095a5760405162461bcd60e51b815260206004820152603a60248201527f43657274696669636174654e46543a20436572746966696361746520616c726560448201527f616479206d696e74656420666f72207468697320636f7572736500000000000060648201526084016105a2565b600061096560085490565b9050610975600880546001019055565b61097f8682610f08565b6109898185610f22565b60008181526009602090815260408083208890556001600160a01b038916808452600a83528184208985529092529182902083905590518291907fc54c7ef12eff8d20c7f387ef3dd8fb555d40e92c7faa7a200d3c5a4da6e2a7ed906109f29089908990611c1a565b60405180910390a395945050505050565b610a0d3383610b60565b610a295760405162461bcd60e51b81526004016105a290611bcd565b610a3584848484610fed565b50505050565b606061046f82611020565b600082815260076020526040902060010154610a6181610d43565b6106438383610dd3565b60006001600160e01b03198216637965db0b60e01b148061046f575061046f82611128565b6000818152600260205260409020546001600160a01b0316610aef5760405162461bcd60e51b8152602060048201526018602482015277115490cdcc8c4e881a5b9d985b1a59081d1bdad95b88125160421b60448201526064016105a2565b50565b600081815260046020526040902080546001600160a01b0319166001600160a01b0384169081179091558190610b278261076c565b6001600160a01b03167f8c5be1e5ebec7d5bd14f71427d1e84f3dd0314c0f7b2291e5b200ac8c7c3b92560405160405180910390a45050565b600080610b6c8361076c565b9050806001600160a01b0316846001600160a01b03161480610bb357506001600160a01b0380821660009081526005602090815260408083209388168352929052205460ff165b80610bd75750836001600160a01b0316610bcc84610507565b6001600160a01b0316145b949350505050565b826001600160a01b0316610bf28261076c565b6001600160a01b031614610c185760405162461bcd60e51b81526004016105a290611c33565b6001600160a01b038216610c7a5760405162461bcd60e51b8152602060048201526024808201527f4552433732313a207472616e7366657220746f20746865207a65726f206164646044820152637265737360e01b60648201526084016105a2565b826001600160a01b0316610c8d8261076c565b6001600160a01b031614610cb35760405162461bcd60e51b81526004016105a290611c33565b600081815260046020908152604080832080546001600160a01b03199081169091556001600160a01b0387811680865260038552838620805460001901905590871680865283862080546001019055868652600290945282852080549092168417909155905184937fddf252ad1be2c89b69c2b068fc378daa952ba7f163c4a11628f55a4df523b3ef91a4505050565b610aef813361114d565b610d578282610852565b6107185760008281526007602090815260408083206001600160a01b03851684529091529020805460ff19166001179055610d8f3390565b6001600160a01b0316816001600160a01b0316837f2f8788117e7eff1d82e926ec794901d17c78024a50270940304540a733656f0d60405160405180910390a45050565b610ddd8282610852565b156107185760008281526007602090815260408083206001600160a01b0385168085529252808320805460ff1916905551339285917ff6391f5c32d9c69d2a47ea670b442974b53935d1edc7fd64eb21e047a839171b9190a45050565b816001600160a01b0316836001600160a01b031603610e9b5760405162461bcd60e51b815260206004820152601960248201527f4552433732313a20617070726f766520746f2063616c6c65720000000000000060448201526064016105a2565b6001600160a01b03838116600081815260056020908152604080832094871680845294825291829020805460ff191686151590811790915591519182527f17307eab39ab6107e8899845ad3d59bd9653f200f220920489ca2b5937696c31910160405180910390a3505050565b6107188282604051806020016040528060008152506111a6565b6000828152600260205260409020546001600160a01b0316610f9d5760405162461bcd60e51b815260206004820152602e60248201527f45524337323155524953746f726167653a2055524920736574206f66206e6f6e60448201526d32bc34b9ba32b73a103a37b5b2b760911b60648201526084016105a2565b6000828152600660205260409020610fb58282611cc6565b506040518281527ff8e1a15aba9398e019f0b49df1a4fde98ee17ae345cb5f6b5e2c27f5033e8ce79060200160405180910390a15050565b610ff8848484610bdf565b611004848484846111d9565b610a355760405162461bcd60e51b81526004016105a290611d86565b606061102b82610a90565b6000828152600660205260408120805461104490611b93565b80601f016020809104026020016040519081016040528092919081815260200182805461107090611b93565b80156110bd5780601f10611092576101008083540402835291602001916110bd565b820191906000526020600020905b8154815290600101906020018083116110a057829003601f168201915b5050505050905060006110db60408051602081019091526000815290565b905080516000036110ed575092915050565b81511561111f578082604051602001611107929190611dd8565b60405160208183030381529060405292505050919050565b610bd7846112da565b60006001600160e01b03198216632483248360e11b148061046f575061046f8261134e565b6111578282610852565b610718576111648161139e565b61116f8360206113b0565b604051602001611180929190611e07565b60408051601f198184030181529082905262461bcd60e51b82526105a2916004016118c5565b6111b0838361154c565b6111bd60008484846111d9565b6106435760405162461bcd60e51b81526004016105a290611d86565b60006001600160a01b0384163b156112cf57604051630a85bd0160e11b81526001600160a01b0385169063150b7a029061121d903390899088908890600401611e7c565b6020604051808303816000875af1925050508015611258575060408051601f3d908101601f1916820190925261125591810190611eb9565b60015b6112b5573d808015611286576040519150601f19603f3d011682016040523d82523d6000602084013e61128b565b606091505b5080516000036112ad5760405162461bcd60e51b81526004016105a290611d86565b805181602001fd5b6001600160e01b031916630a85bd0160e11b149050610bd7565b506001949350505050565b60606112e582610a90565b60006112fc60408051602081019091526000815290565b9050600081511161131c5760405180602001604052806000815250611347565b80611326846116d7565b604051602001611337929190611dd8565b6040516020818303038152906040525b9392505050565b60006001600160e01b031982166380ac58cd60e01b148061137f57506001600160e01b03198216635b5e139f60e01b145b8061046f57506301ffc9a760e01b6001600160e01b031983161461046f565b606061046f6001600160a01b03831660145b606060006113bf836002611eec565b6113ca906002611f03565b67ffffffffffffffff8111156113e2576113e26119f6565b6040519080825280601f01601f19166020018201604052801561140c576020820181803683370190505b509050600360fc1b8160008151811061142757611427611f16565b60200101906001600160f81b031916908160001a905350600f60fb1b8160018151811061145657611456611f16565b60200101906001600160f81b031916908160001a905350600061147a846002611eec565b611485906001611f03565b90505b60018111156114fd576f181899199a1a9b1b9c1cb0b131b232b360811b85600f16601081106114b9576114b9611f16565b1a60f81b8282815181106114cf576114cf611f16565b60200101906001600160f81b031916908160001a90535060049490941c936114f681611f2c565b9050611488565b5083156113475760405162461bcd60e51b815260206004820181905260248201527f537472696e67733a20686578206c656e67746820696e73756666696369656e7460448201526064016105a2565b6001600160a01b0382166115a25760405162461bcd60e51b815260206004820181905260248201527f4552433732313a206d696e7420746f20746865207a65726f206164647265737360448201526064016105a2565b6000818152600260205260409020546001600160a01b0316156116075760405162461bcd60e51b815260206004820152601c60248201527f4552433732313a20746f6b656e20616c7265616479206d696e7465640000000060448201526064016105a2565b6000818152600260205260409020546001600160a01b03161561166c5760405162461bcd60e51b815260206004820152601c60248201527f4552433732313a20746f6b656e20616c7265616479206d696e7465640000000060448201526064016105a2565b6001600160a01b038216600081815260036020908152604080832080546001019055848352600290915280822080546001600160a01b0319168417905551839291907fddf252ad1be2c89b69c2b068fc378daa952ba7f163c4a11628f55a4df523b3ef908290a45050565b606060006116e48361176a565b600101905060008167ffffffffffffffff811115611704576117046119f6565b6040519080825280601f01601f19166020018201604052801561172e576020820181803683370190505b5090508181016020015b600019016f181899199a1a9b1b9c1cb0b131b232b360811b600a86061a8153600a850494508461173857509392505050565b60008072184f03e93ff9f4daa797ed6e38ed64bf6a1f0160401b83106117a95772184f03e93ff9f4daa797ed6e38ed64bf6a1f0160401b830492506040015b6d04ee2d6d415b85acef810000000083106117d5576d04ee2d6d415b85acef8100000000830492506020015b662386f26fc1000083106117f357662386f26fc10000830492506010015b6305f5e100831061180b576305f5e100830492506008015b612710831061181f57612710830492506004015b60648310611831576064830492506002015b600a831061046f5760010192915050565b6001600160e01b031981168114610aef57600080fd5b60006020828403121561186a57600080fd5b813561134781611842565b60005b83811015611890578181015183820152602001611878565b50506000910152565b600081518084526118b1816020860160208601611875565b601f01601f19169290920160200192915050565b6020815260006113476020830184611899565b6000602082840312156118ea57600080fd5b5035919050565b80356001600160a01b038116811461190857600080fd5b919050565b6000806040838503121561192057600080fd5b611929836118f1565b946020939093013593505050565b60008060006060848603121561194c57600080fd5b611955846118f1565b9250611963602085016118f1565b9150604084013590509250925092565b6000806040838503121561198657600080fd5b82359150611996602084016118f1565b90509250929050565b6000602082840312156119b157600080fd5b611347826118f1565b600080604083850312156119cd57600080fd5b6119d6836118f1565b9150602083013580151581146119eb57600080fd5b809150509250929050565b634e487b7160e01b600052604160045260246000fd5b600067ffffffffffffffff80841115611a2757611a276119f6565b604051601f8501601f19908116603f01168101908282118183101715611a4f57611a4f6119f6565b81604052809350858152868686011115611a6857600080fd5b858560208301376000602087830101525050509392505050565b600080600060608486031215611a9757600080fd5b611aa0846118f1565b925060208401359150604084013567ffffffffffffffff811115611ac357600080fd5b8401601f81018613611ad457600080fd5b611ae386823560208401611a0c565b9150509250925092565b60008060008060808587031215611b0357600080fd5b611b0c856118f1565b9350611b1a602086016118f1565b925060408501359150606085013567ffffffffffffffff811115611b3d57600080fd5b8501601f81018713611b4e57600080fd5b611b5d87823560208401611a0c565b91505092959194509250565b60008060408385031215611b7c57600080fd5b611b85836118f1565b9150611996602084016118f1565b600181811c90821680611ba757607f821691505b602082108103611bc757634e487b7160e01b600052602260045260246000fd5b50919050565b6020808252602d908201527f4552433732313a2063616c6c6572206973206e6f7420746f6b656e206f776e6560408201526c1c881bdc88185c1c1c9bdd9959609a1b606082015260800190565b828152604060208201526000610bd76040830184611899565b60208082526025908201527f4552433732313a207472616e736665722066726f6d20696e636f72726563742060408201526437bbb732b960d91b606082015260800190565b601f82111561064357600081815260208120601f850160051c81016020861015611c9f5750805b601f850160051c820191505b81811015611cbe57828155600101611cab565b505050505050565b815167ffffffffffffffff811115611ce057611ce06119f6565b611cf481611cee8454611b93565b84611c78565b602080601f831160018114611d295760008415611d115750858301515b600019600386901b1c1916600185901b178555611cbe565b600085815260208120601f198616915b82811015611d5857888601518255948401946001909101908401611d39565b5085821015611d765787850151600019600388901b60f8161c191681555b5050505050600190811b01905550565b60208082526032908201527f4552433732313a207472616e7366657220746f206e6f6e20455243373231526560408201527131b2b4bb32b91034b6b83632b6b2b73a32b960711b606082015260800190565b60008351611dea818460208801611875565b835190830190611dfe818360208801611875565b01949350505050565b7f416363657373436f6e74726f6c3a206163636f756e7420000000000000000000815260008351611e3f816017850160208801611875565b7001034b99036b4b9b9b4b733903937b6329607d1b6017918401918201528351611e70816028840160208801611875565b01602801949350505050565b6001600160a01b0385811682528416602082015260408101839052608060608201819052600090611eaf90830184611899565b9695505050505050565b600060208284031215611ecb57600080fd5b815161134781611842565b634e487b7160e01b600052601160045260246000fd5b808202811582820484141761046f5761046f611ed6565b8082018082111561046f5761046f611ed6565b634e487b7160e01b600052603260045260246000fd5b600081611f3b57611f3b611ed6565b50600019019056fea26469706673582212204e3e27123be1d72135b47f08b7e162a5302b30180d4ad4e067d5b237ce3b2f4664736f6c63430008130033",
  "linkReferences": {},
  "deployedLinkReferences": {}
}