{"contracts/RewardDistribution.sol":{"RewardDistribution":{"abi":[{"inputs":[{"internalType":"address","name":"admin","type":"address"},{"internalType":"address","name":"tokenAddress","type":"address"}],"stateMutability":"nonpayable","type":"constructor"},{"anonymous":false,"inputs":[{"indexed":true,"internalType":"address","name":"user","type":"address"},{"indexed":false,"internalType":"string","name":"activityType","type":"string"},{"indexed":false,"internalType":"uint256","name":"activityId","type":"uint256"},{"indexed":false,"internalType":"uint256","name":"amount","type":"uint256"},{"indexed":false,"internalType":"string","name":"reason","type":"string"}],"name":"RewardDistributed","type":"event"},{"anonymous":false,"inputs":[{"indexed":true,"internalType":"bytes32","name":"role","type":"bytes32"},{"indexed":true,"internalType":"bytes32","name":"previousAdminRole","type":"bytes32"},{"indexed":true,"internalType":"bytes32","name":"newAdminRole","type":"bytes32"}],"name":"RoleAdminChanged","type":"event"},{"anonymous":false,"inputs":[{"indexed":true,"internalType":"bytes32","name":"role","type":"bytes32"},{"indexed":true,"internalType":"address","name":"account","type":"address"},{"indexed":true,"internalType":"address","name":"sender","type":"address"}],"name":"RoleGranted","type":"event"},{"anonymous":false,"inputs":[{"indexed":true,"internalType":"bytes32","name":"role","type":"bytes32"},{"indexed":true,"internalType":"address","name":"account","type":"address"},{"indexed":true,"internalType":"address","name":"sender","type":"address"}],"name":"RoleRevoked","type":"event"},{"inputs":[],"name":"DEFAULT_ADMIN_ROLE","outputs":[{"internalType":"bytes32","name":"","type":"bytes32"}],"stateMutability":"view","type":"function"},{"inputs":[],"name":"DISTRIBUTOR_ROLE","outputs":[{"internalType":"bytes32","name":"","type":"bytes32"}],"stateMutability":"view","type":"function"},{"inputs":[],"name":"assignmentReward","outputs":[{"internalType":"uint256","name":"","type":"uint256"}],"stateMutability":"view","type":"function"},{"inputs":[],"name":"courseCompletionReward","outputs":[{"internalType":"uint256","name":"","type":"uint256"}],"stateMutability":"view","type":"function"},{"inputs":[{"internalType":"address","name":"user","type":"address"},{"internalType":"uint256","name":"assignmentId","type":"uint256"}],"name":"distributeAssignmentReward","outputs":[],"stateMutability":"nonpayable","type":"function"},{"inputs":[{"internalType":"address","name":"user","type":"address"},{"internalType":"uint256","name":"courseId","type":"uint256"}],"name":"distributeCourseCompletionReward","outputs":[],"stateMutability":"nonpayable","type":"function"},{"inputs":[{"internalType":"address","name":"user","type":"address"},{"internalType":"uint256","name":"forumId","type":"uint256"}],"name":"distributeForumReward","outputs":[],"stateMutability":"nonpayable","type":"function"},{"inputs":[{"internalType":"address","name":"user","type":"address"},{"internalType":"uint256","name":"lessonId","type":"uint256"}],"name":"distributeLessonReward","outputs":[],"stateMutability":"nonpayable","type":"function"},{"inputs":[{"internalType":"address","name":"user","type":"address"},{"internalType":"uint256","name":"quizId","type":"uint256"},{"internalType":"uint256","name":"score","type":"uint256"}],"name":"distributeQuizReward","outputs":[],"stateMutability":"nonpayable","type":"function"},{"inputs":[{"internalType":"address","name":"user","type":"address"},{"internalType":"uint256","name":"reviewId","type":"uint256"}],"name":"distributeReviewReward","outputs":[],"stateMutability":"nonpayable","type":"function"},{"inputs":[{"internalType":"address","name":"user","type":"address"},{"internalType":"uint256","name":"streakDays","type":"uint256"}],"name":"distributeStreakReward","outputs":[],"stateMutability":"nonpayable","type":"function"},{"inputs":[],"name":"forumReward","outputs":[{"internalType":"uint256","name":"","type":"uint256"}],"stateMutability":"view","type":"function"},{"inputs":[{"internalType":"bytes32","name":"role","type":"bytes32"}],"name":"getRoleAdmin","outputs":[{"internalType":"bytes32","name":"","type":"bytes32"}],"stateMutability":"view","type":"function"},{"inputs":[{"internalType":"address","name":"account","type":"address"}],"name":"grantDistributorRole","outputs":[],"stateMutability":"nonpayable","type":"function"},{"inputs":[{"internalType":"bytes32","name":"role","type":"bytes32"},{"internalType":"address","name":"account","type":"address"}],"name":"grantRole","outputs":[],"stateMutability":"nonpayable","type":"function"},{"inputs":[{"internalType":"bytes32","name":"role","type":"bytes32"},{"internalType":"address","name":"account","type":"address"}],"name":"hasRole","outputs":[{"internalType":"bool","name":"","type":"bool"}],"stateMutability":"view","type":"function"},{"inputs":[{"internalType":"address","name":"user","type":"address"},{"internalType":"string","name":"activityType","type":"string"},{"internalType":"uint256","name":"activityId","type":"uint256"}],"name":"isRewardClaimed","outputs":[{"internalType":"bool","name":"","type":"bool"}],"stateMutability":"view","type":"function"},{"inputs":[],"name":"lessonReward","outputs":[{"internalType":"uint256","name":"","type":"uint256"}],"stateMutability":"view","type":"function"},{"inputs":[],"name":"quizBaseReward","outputs":[{"internalType":"uint256","name":"","type":"uint256"}],"stateMutability":"view","type":"function"},{"inputs":[{"internalType":"bytes32","name":"role","type":"bytes32"},{"internalType":"address","name":"account","type":"address"}],"name":"renounceRole","outputs":[],"stateMutability":"nonpayable","type":"function"},{"inputs":[],"name":"reviewReward","outputs":[{"internalType":"uint256","name":"","type":"uint256"}],"stateMutability":"view","type":"function"},{"inputs":[{"internalType":"bytes32","name":"role","type":"bytes32"},{"internalType":"address","name":"account","type":"address"}],"name":"revokeRole","outputs":[],"stateMutability":"nonpayable","type":"function"},{"inputs":[{"internalType":"address","name":"","type":"address"},{"internalType":"string","name":"","type":"string"},{"internalType":"uint256","name":"","type":"uint256"}],"name":"rewardsClaimed","outputs":[{"internalType":"bool","name":"","type":"bool"}],"stateMutability":"view","type":"function"},{"inputs":[],"name":"streakReward","outputs":[{"internalType":"uint256","name":"","type":"uint256"}],"stateMutability":"view","type":"function"},{"inputs":[{"internalType":"bytes4","name":"interfaceId","type":"bytes4"}],"name":"supportsInterface","outputs":[{"internalType":"bool","name":"","type":"bool"}],"stateMutability":"view","type":"function"},{"inputs":[],"name":"token","outputs":[{"internalType":"contract LearnHubToken","name":"","type":"address"}],"stateMutability":"view","type":"function"},{"inputs":[{"internalType":"uint256","name":"_lessonReward","type":"uint256"},{"internalType":"uint256","name":"_quizBaseReward","type":"uint256"},{"internalType":"uint256","name":"_assignmentReward","type":"uint256"},{"internalType":"uint256","name":"_courseCompletionReward","type":"uint256"},{"internalType":"uint256","name":"_reviewReward","type":"uint256"},{"internalType":"uint256","name":"_forumReward","type":"uint256"},{"internalType":"uint256","name":"_streakReward","type":"uint256"}],"name":"updateRewardAmounts","outputs":[],"stateMutability":"nonpayable","type":"function"}],"evm":{"bytecode":{"linkReferences":{},"object":"6080604052678ac7230489e80000600255678ac7230489e800006003556802b5e3af16b1880000600455680ad78ebc5ac6200000600555674563918244f400006006556729a2241af62c00006007556801158e460913d000006008553480156200006857600080fd5b5060405162001fd838038062001fd88339810160408190526200008b91620001a9565b62000098600083620000eb565b620000c47ffbd454f36a7e1a388bd6fc3ab10d434aa4578f811acbbcf33afb1c697486313c83620000eb565b600180546001600160a01b0319166001600160a01b039290921691909117905550620001e1565b6000828152602081815260408083206001600160a01b038516845290915290205460ff1662000188576000828152602081815260408083206001600160a01b03851684529091529020805460ff19166001179055620001473390565b6001600160a01b0316816001600160a01b0316837f2f8788117e7eff1d82e926ec794901d17c78024a50270940304540a733656f0d60405160405180910390a45b5050565b80516001600160a01b0381168114620001a457600080fd5b919050565b60008060408385031215620001bd57600080fd5b620001c8836200018c565b9150620001d8602084016200018c565b90509250929050565b611de780620001f16000396000f3fe608060405234801561001057600080fd5b50600436106101a95760003560e01c80638bba2a0a116100f9578063daa3f56b11610097578063f241842911610071578063f241842914610385578063f33a7edd14610398578063f41a7832146103a1578063fc0c546a146103b457600080fd5b8063daa3f56b1461035e578063e07bc59214610367578063f0bd87cc1461037057600080fd5b8063a217fddf116100d3578063a217fddf1461031d578063a2dcbb3214610325578063d39746a214610338578063d547741f1461034b57600080fd5b80638bba2a0a146102ee5780638be1c84a1461030157806391d148541461030a57600080fd5b806325e3dfbc116101665780633cf21d48116101405780633cf21d48146102b65780633efe458a146102c957806350bc5d08146102d25780638457e243146102db57600080fd5b806325e3dfbc1461027d5780632f2ff15d1461029057806336568abe146102a357600080fd5b806301ffc9a7146101ae57806311926bc4146101d657806316ba6b82146101eb578063184fa302146102025780631a50cc1914610247578063248a9ca31461025a575b600080fd5b6101c16101bc3660046116d4565b6103df565b60405190151581526020015b60405180910390f35b6101e96101e43660046116fe565b610416565b005b6101f460075481565b6040519081526020016101cd565b6101c161021036600461177c565b6009602090815260009384526040808520845180860184018051928152908401958401959095209452929052825290205460ff1681565b6101e9610255366004611847565b610442565b6101f4610268366004611871565b60009081526020819052604090206001015490565b6101c161028b36600461177c565b6106d5565b6101e961029e36600461188a565b610722565b6101e96102b136600461188a565b61074c565b6101e96102c4366004611847565b6107ca565b6101f460085481565b6101f460055481565b6101e96102e9366004611847565b6109a8565b6101e96102fc3660046118b6565b610b79565b6101f460045481565b6101c161031836600461188a565b610b9c565b6101f4600081565b6101e9610333366004611847565b610bc5565b6101e96103463660046118d1565b610d95565b6101e961035936600461188a565b611015565b6101f460025481565b6101f460065481565b6101f4600080516020611d9283398151915281565b6101e9610393366004611847565b61103a565b6101f460035481565b6101e96103af366004611847565b61120f565b6001546103c7906001600160a01b031681565b6040516001600160a01b0390911681526020016101cd565b60006001600160e01b03198216637965db0b60e01b148061041057506301ffc9a760e01b6001600160e01b03198316145b92915050565b6000610421816113d0565b50600296909655600394909455600492909255600555600655600755600855565b61045a600080516020611d9283398151915233610b9c565b61047f5760405162461bcd60e51b815260040161047690611904565b60405180910390fd5b60018110156104ea5760405162461bcd60e51b815260206004820152603160248201527f526577617264446973747269627574696f6e3a2053747265616b206d757374206044820152706265206174206c6561737420312064617960781b6064820152608401610476565b604080518082018252600681526573747265616b60d01b6020808301919091526001600160a01b03851660009081526009909152829020915190919061053190839061196d565b90815260408051602092819003830190206000858152925290205460ff161561056c5760405162461bcd60e51b815260040161047690611989565b60008260010361058657506801158e460913d000006105bc565b6105916001846119e2565b61059c90600a6119f5565b6105a7906014611a0c565b6105b990670de0b6b3a76400006119f5565b90505b6001600160a01b038416600090815260096020526040908190209051600191906105e790859061196d565b9081526040805160209281900383018120600088815293529120805460ff1916921515929092179091556001546334ff261960e21b82526001600160a01b03868116600484015260248301849052606060448401526013606484015272131bd9da5b881cdd1c99585ac81c995dd85c99606a1b6084840152169063d3fc98649060a401600060405180830381600087803b15801561068457600080fd5b505af1158015610698573d6000803e3d6000fd5b50505050836001600160a01b0316600080516020611d728339815191528385846040516106c793929190611a4b565b60405180910390a250505050565b6001600160a01b03831660009081526009602052604080822090516106fb90859061196d565b908152604080516020928190038301902060009485529091529091205460ff169392505050565b60008281526020819052604090206001015461073d816113d0565b61074783836113dd565b505050565b6001600160a01b03811633146107bc5760405162461bcd60e51b815260206004820152602f60248201527f416363657373436f6e74726f6c3a2063616e206f6e6c792072656e6f756e636560448201526e103937b632b9903337b91039b2b63360891b6064820152608401610476565b6107c68282611461565b5050565b6107e2600080516020611d9283398151915233610b9c565b6107fe5760405162461bcd60e51b815260040161047690611904565b6040805180820182526006815265636f7572736560d01b6020808301919091526001600160a01b03851660009081526009909152829020915190919061084590839061196d565b90815260408051602092819003830190206000858152925290205460ff16156108805760405162461bcd60e51b815260040161047690611989565b6001600160a01b038316600090815260096020526040908190209051600191906108ab90849061196d565b9081526040805160209281900383018120600087815293529120805460ff1916921515929092179091556001546005546334ff261960e21b83526001600160a01b038681166004850152602484019190915260606044840152601860648401527f436f7572736520636f6d706c6574696f6e2072657761726400000000000000006084840152169063d3fc98649060a401600060405180830381600087803b15801561095657600080fd5b505af115801561096a573d6000803e3d6000fd5b50505050826001600160a01b0316600080516020611d72833981519152828460055460405161099b93929190611aa3565b60405180910390a2505050565b6109c0600080516020611d9283398151915233610b9c565b6109dc5760405162461bcd60e51b815260040161047690611904565b60408051808201825260068152653632b9b9b7b760d11b6020808301919091526001600160a01b038516600090815260099091528290209151909190610a2390839061196d565b90815260408051602092819003830190206000858152925290205460ff1615610a5e5760405162461bcd60e51b815260040161047690611989565b6001600160a01b03831660009081526009602052604090819020905160019190610a8990849061196d565b9081526040805160209281900383018120600087815293529120805460ff1916921515929092179091556001546002546334ff261960e21b83526001600160a01b038681166004850152602484019190915260606044840152601860648401527f4c6573736f6e20636f6d706c6574696f6e2072657761726400000000000000006084840152169063d3fc98649060a401600060405180830381600087803b158015610b3457600080fd5b505af1158015610b48573d6000803e3d6000fd5b50505050826001600160a01b0316600080516020611d72833981519152828460025460405161099b93929190611af6565b6000610b84816113d0565b6107c6600080516020611d92833981519152836113dd565b6000918252602082815260408084206001600160a01b0393909316845291905290205460ff1690565b610bdd600080516020611d9283398151915233610b9c565b610bf95760405162461bcd60e51b815260040161047690611904565b6040805180820182526005815264666f72756d60d81b6020808301919091526001600160a01b038516600090815260099091528290209151909190610c3f90839061196d565b90815260408051602092819003830190206000858152925290205460ff1615610c7a5760405162461bcd60e51b815260040161047690611989565b6001600160a01b03831660009081526009602052604090819020905160019190610ca590849061196d565b9081526040805160209281900383018120600087815293529120805460ff1916921515929092179091556001546007546334ff261960e21b83526001600160a01b038681166004850152602484019190915260606044840152601a60648401527f466f72756d2070617274696369706174696f6e207265776172640000000000006084840152169063d3fc98649060a401600060405180830381600087803b158015610d5057600080fd5b505af1158015610d64573d6000803e3d6000fd5b50505050826001600160a01b0316600080516020611d72833981519152828460075460405161099b93929190611b49565b610dad600080516020611d9283398151915233610b9c565b610dc95760405162461bcd60e51b815260040161047690611904565b6046811015610e245760405162461bcd60e51b815260206004820152602160248201527f526577617264446973747269627574696f6e3a2053636f726520746f6f206c6f6044820152607760f81b6064820152608401610476565b604080518082018252600481526338bab4bd60e11b6020808301919091526001600160a01b038616600090815260099091528290209151909190610e6990839061196d565b90815260408051602092819003830190206000868152925290205460ff1615610ea45760405162461bcd60e51b815260040161047690611989565b6000601e600354604685610eb891906119e2565b610ec291906119f5565b610ecc9190611b9f565b600354610ed99190611a0c565b90506802b5e3af16b1880000811115610ef857506802b5e3af16b18800005b6001600160a01b03851660009081526009602052604090819020905160019190610f2390859061196d565b9081526040805160209281900383018120600089815293529120805460ff1916921515929092179091556001546334ff261960e21b82526001600160a01b03878116600484015260248301849052606060448401526016606484015275145d5a5e8818dbdb5c1b195d1a5bdb881c995dd85c9960521b6084840152169063d3fc98649060a401600060405180830381600087803b158015610fc357600080fd5b505af1158015610fd7573d6000803e3d6000fd5b50505050846001600160a01b0316600080516020611d7283398151915283868460405161100693929190611bc1565b60405180910390a25050505050565b600082815260208190526040902060010154611030816113d0565b6107478383611461565b611052600080516020611d9283398151915233610b9c565b61106e5760405162461bcd60e51b815260040161047690611904565b604080518082018252600a815269185cdcda59db9b595b9d60b21b6020808301919091526001600160a01b0385166000908152600990915282902091519091906110b990839061196d565b90815260408051602092819003830190206000858152925290205460ff16156110f45760405162461bcd60e51b815260040161047690611989565b6001600160a01b0383166000908152600960205260409081902090516001919061111f90849061196d565b9081526040805160209281900383018120600087815293529120805460ff191692151592909217909155600154600480546334ff261960e21b84526001600160a01b0387811692850192909252602484015260606044840152601c60648401527f41737369676e6d656e7420636f6d706c6574696f6e20726577617264000000006084840152169063d3fc98649060a401600060405180830381600087803b1580156111ca57600080fd5b505af11580156111de573d6000803e3d6000fd5b50505050826001600160a01b0316600080516020611d72833981519152828460045460405161099b93929190611c12565b611227600080516020611d9283398151915233610b9c565b6112435760405162461bcd60e51b815260040161047690611904565b604080518082018252600681526572657669657760d01b6020808301919091526001600160a01b03851660009081526009909152829020915190919061128a90839061196d565b90815260408051602092819003830190206000858152925290205460ff16156112c55760405162461bcd60e51b815260040161047690611989565b6001600160a01b038316600090815260096020526040908190209051600191906112f090849061196d565b9081526040805160209281900383018120600087815293529120805460ff1916921515929092179091556001546006546334ff261960e21b83526001600160a01b038681166004850152602484019190915260606044840152600d60648401526c14995d9a595dc81c995dd85c99609a1b6084840152169063d3fc98649060a401600060405180830381600087803b15801561138b57600080fd5b505af115801561139f573d6000803e3d6000fd5b50505050826001600160a01b0316600080516020611d72833981519152828460065460405161099b93929190611c69565b6113da81336114c6565b50565b6113e78282610b9c565b6107c6576000828152602081815260408083206001600160a01b03851684529091529020805460ff1916600117905561141d3390565b6001600160a01b0316816001600160a01b0316837f2f8788117e7eff1d82e926ec794901d17c78024a50270940304540a733656f0d60405160405180910390a45050565b61146b8282610b9c565b156107c6576000828152602081815260408083206001600160a01b0385168085529252808320805460ff1916905551339285917ff6391f5c32d9c69d2a47ea670b442974b53935d1edc7fd64eb21e047a839171b9190a45050565b6114d08282610b9c565b6107c6576114dd8161151f565b6114e8836020611531565b6040516020016114f9929190611cbc565b60408051601f198184030181529082905262461bcd60e51b825261047691600401611d31565b60606104106001600160a01b03831660145b606060006115408360026119f5565b61154b906002611a0c565b67ffffffffffffffff81111561156357611563611766565b6040519080825280601f01601f19166020018201604052801561158d576020820181803683370190505b509050600360fc1b816000815181106115a8576115a8611d44565b60200101906001600160f81b031916908160001a905350600f60fb1b816001815181106115d7576115d7611d44565b60200101906001600160f81b031916908160001a90535060006115fb8460026119f5565b611606906001611a0c565b90505b600181111561167e576f181899199a1a9b1b9c1cb0b131b232b360811b85600f166010811061163a5761163a611d44565b1a60f81b82828151811061165057611650611d44565b60200101906001600160f81b031916908160001a90535060049490941c9361167781611d5a565b9050611609565b5083156116cd5760405162461bcd60e51b815260206004820181905260248201527f537472696e67733a20686578206c656e67746820696e73756666696369656e746044820152606401610476565b9392505050565b6000602082840312156116e657600080fd5b81356001600160e01b0319811681146116cd57600080fd5b600080600080600080600060e0888a03121561171957600080fd5b505085359760208701359750604087013596606081013596506080810135955060a0810135945060c0013592509050565b80356001600160a01b038116811461176157600080fd5b919050565b634e487b7160e01b600052604160045260246000fd5b60008060006060848603121561179157600080fd5b61179a8461174a565b9250602084013567ffffffffffffffff808211156117b757600080fd5b818601915086601f8301126117cb57600080fd5b8135818111156117dd576117dd611766565b604051601f8201601f19908116603f0116810190838211818310171561180557611805611766565b8160405282815289602084870101111561181e57600080fd5b826020860160208301376000602084830101528096505050505050604084013590509250925092565b6000806040838503121561185a57600080fd5b6118638361174a565b946020939093013593505050565b60006020828403121561188357600080fd5b5035919050565b6000806040838503121561189d57600080fd5b823591506118ad6020840161174a565b90509250929050565b6000602082840312156118c857600080fd5b6116cd8261174a565b6000806000606084860312156118e657600080fd5b6118ef8461174a565b95602085013595506040909401359392505050565b60208082526025908201527f526577617264446973747269627574696f6e3a204e6f74206120646973747269604082015264313aba37b960d91b606082015260800190565b60005b8381101561196457818101518382015260200161194c565b50506000910152565b6000825161197f818460208701611949565b9190910192915050565b60208082526023908201527f526577617264446973747269627574696f6e3a20416c726561647920636c61696040820152621b595960ea1b606082015260800190565b634e487b7160e01b600052601160045260246000fd5b81810381811115610410576104106119cc565b8082028115828204841417610410576104106119cc565b80820180821115610410576104106119cc565b60008151808452611a37816020860160208601611949565b601f01601f19169290920160200192915050565b608081526000611a5e6080830186611a1f565b84602084015283604084015282810360608401526015815274131bd9da5b881cdd1c99585ac81858da1a595d9959605a1b602082015260408101915050949350505050565b608081526000611ab66080830186611a1f565b8460208401528360408401528281036060840152601081526f10dbdd5c9cd94818dbdb5c1b195d195960821b602082015260408101915050949350505050565b608081526000611b096080830186611a1f565b8460208401528360408401528281036060840152601081526f13195cdcdbdb8818dbdb5c1b195d195960821b602082015260408101915050949350505050565b608081526000611b5c6080830186611a1f565b846020840152836040840152828103606084015260138152722337b93ab6903830b93a34b1b4b830ba34b7b760691b602082015260408101915050949350505050565b600082611bbc57634e487b7160e01b600052601260045260246000fd5b500490565b608081526000611bd46080830186611a1f565b8460208401528360408401528281036060840152600e81526d145d5a5e8818dbdb5c1b195d195960921b602082015260408101915050949350505050565b608081526000611c256080830186611a1f565b84602084015283604084015282810360608401526014815273105cdcda59db9b595b9d0818dbdb5c1b195d195960621b602082015260408101915050949350505050565b608081526000611c7c6080830186611a1f565b8460208401528360408401528281036060840152601081526f14995d9a595dc81cdd589b5a5d1d195960821b602082015260408101915050949350505050565b7f416363657373436f6e74726f6c3a206163636f756e7420000000000000000000815260008351611cf4816017850160208801611949565b7001034b99036b4b9b9b4b733903937b6329607d1b6017918401918201528351611d25816028840160208801611949565b01602801949350505050565b6020815260006116cd6020830184611a1f565b634e487b7160e01b600052603260045260246000fd5b600081611d6957611d696119cc565b50600019019056fea2d9b4164a0c44976c7dfa39703c8b5c1fc4e6df45e707bc4aac5e958cafca3cfbd454f36a7e1a388bd6fc3ab10d434aa4578f811acbbcf33afb1c697486313ca2646970667358221220a123a64c5211a04e1444930b35711f2ba03919d6b0f01d2de659f9247416d96564736f6c63430008130033","opcodes":"PUSH1 0x80 PUSH1 0x40 MSTORE PUSH8 0x8AC7230489E80000 PUSH1 0x2 SSTORE PUSH8 0x8AC7230489E80000 PUSH1 0x3 SSTORE PUSH9 0x2B5E3AF16B1880000 PUSH1 0x4 SSTORE PUSH9 0xAD78EBC5AC6200000 PUSH1 0x5 SSTORE PUSH8 0x4563918244F40000 PUSH1 0x6 SSTORE PUSH8 0x29A2241AF62C0000 PUSH1 0x7 SSTORE PUSH9 0x1158E460913D00000 PUSH1 0x8 SSTORE CALLVALUE DUP1 ISZERO PUSH3 0x68 JUMPI PUSH1 0x0 DUP1 REVERT JUMPDEST POP PUSH1 0x40 MLOAD PUSH3 0x1FD8 CODESIZE SUB DUP1 PUSH3 0x1FD8 DUP4 CODECOPY DUP2 ADD PUSH1 0x40 DUP2 SWAP1 MSTORE PUSH3 0x8B SWAP2 PUSH3 0x1A9 JUMP JUMPDEST PUSH3 0x98 PUSH1 0x0 DUP4 PUSH3 0xEB JUMP JUMPDEST PUSH3 0xC4 PUSH32 0xFBD454F36A7E1A388BD6FC3AB10D434AA4578F811ACBBCF33AFB1C697486313C DUP4 PUSH3 0xEB JUMP JUMPDEST PUSH1 0x1 DUP1 SLOAD PUSH1 0x1 PUSH1 0x1 PUSH1 0xA0 SHL SUB NOT AND PUSH1 0x1 PUSH1 0x1 PUSH1 0xA0 SHL SUB SWAP3 SWAP1 SWAP3 AND SWAP2 SWAP1 SWAP2 OR SWAP1 SSTORE POP PUSH3 0x1E1 JUMP JUMPDEST PUSH1 0x0 DUP3 DUP2 MSTORE PUSH1 0x20 DUP2 DUP2 MSTORE PUSH1 0x40 DUP1 DUP4 KECCAK256 PUSH1 0x1 PUSH1 0x1 PUSH1 0xA0 SHL SUB DUP6 AND DUP5 MSTORE SWAP1 SWAP2 MSTORE SWAP1 KECCAK256 SLOAD PUSH1 0xFF AND PUSH3 0x188 JUMPI PUSH1 0x0 DUP3 DUP2 MSTORE PUSH1 0x20 DUP2 DUP2 MSTORE PUSH1 0x40 DUP1 DUP4 KECCAK256 PUSH1 0x1 PUSH1 0x1 PUSH1 0xA0 SHL SUB DUP6 AND DUP5 MSTORE SWAP1 SWAP2 MSTORE SWAP1 KECCAK256 DUP1 SLOAD PUSH1 0xFF NOT AND PUSH1 0x1 OR SWAP1 SSTORE PUSH3 0x147 CALLER SWAP1 JUMP JUMPDEST PUSH1 0x1 PUSH1 0x1 PUSH1 0xA0 SHL SUB AND DUP2 PUSH1 0x1 PUSH1 0x1 PUSH1 0xA0 SHL SUB AND DUP4 PUSH32 0x2F8788117E7EFF1D82E926EC794901D17C78024A50270940304540A733656F0D PUSH1 0x40 MLOAD PUSH1 0x40 MLOAD DUP1 SWAP2 SUB SWAP1 LOG4 JUMPDEST POP POP JUMP JUMPDEST DUP1 MLOAD PUSH1 0x1 PUSH1 0x1 PUSH1 0xA0 SHL SUB DUP2 AND DUP2 EQ PUSH3 0x1A4 JUMPI PUSH1 0x0 DUP1 REVERT JUMPDEST SWAP2 SWAP1 POP JUMP JUMPDEST PUSH1 0x0 DUP1 PUSH1 0x40 DUP4 DUP6 SUB SLT ISZERO PUSH3 0x1BD JUMPI PUSH1 0x0 DUP1 REVERT JUMPDEST PUSH3 0x1C8 DUP4 PUSH3 0x18C JUMP JUMPDEST SWAP2 POP PUSH3 0x1D8 PUSH1 0x20 DUP5 ADD PUSH3 0x18C JUMP JUMPDEST SWAP1 POP SWAP3 POP SWAP3 SWAP1 POP JUMP JUMPDEST PUSH2 0x1DE7 DUP1 PUSH3 0x1F1 PUSH1 0x0 CODECOPY PUSH1 0x0 RETURN INVALID PUSH1 0x80 PUSH1 0x40 MSTORE CALLVALUE DUP1 ISZERO PUSH2 0x10 JUMPI PUSH1 0x0 DUP1 REVERT JUMPDEST POP PUSH1 0x4 CALLDATASIZE LT PUSH2 0x1A9 JUMPI PUSH1 0x0 CALLDATALOAD PUSH1 0xE0 SHR DUP1 PUSH4 0x8BBA2A0A GT PUSH2 0xF9 JUMPI DUP1 PUSH4 0xDAA3F56B GT PUSH2 0x97 JUMPI DUP1 PUSH4 0xF2418429 GT PUSH2 0x71 JUMPI DUP1 PUSH4 0xF2418429 EQ PUSH2 0x385 JUMPI DUP1 PUSH4 0xF33A7EDD EQ PUSH2 0x398 JUMPI DUP1 PUSH4 0xF41A7832 EQ PUSH2 0x3A1 JUMPI DUP1 PUSH4 0xFC0C546A EQ PUSH2 0x3B4 JUMPI PUSH1 0x0 DUP1 REVERT JUMPDEST DUP1 PUSH4 0xDAA3F56B EQ PUSH2 0x35E JUMPI DUP1 PUSH4 0xE07BC592 EQ PUSH2 0x367 JUMPI DUP1 PUSH4 0xF0BD87CC EQ PUSH2 0x370 JUMPI PUSH1 0x0 DUP1 REVERT JUMPDEST DUP1 PUSH4 0xA217FDDF GT PUSH2 0xD3 JUMPI DUP1 PUSH4 0xA217FDDF EQ PUSH2 0x31D JUMPI DUP1 PUSH4 0xA2DCBB32 EQ PUSH2 0x325 JUMPI DUP1 PUSH4 0xD39746A2 EQ PUSH2 0x338 JUMPI DUP1 PUSH4 0xD547741F EQ PUSH2 0x34B JUMPI PUSH1 0x0 DUP1 REVERT JUMPDEST DUP1 PUSH4 0x8BBA2A0A EQ PUSH2 0x2EE JUMPI DUP1 PUSH4 0x8BE1C84A EQ PUSH2 0x301 JUMPI DUP1 PUSH4 0x91D14854 EQ PUSH2 0x30A JUMPI PUSH1 0x0 DUP1 REVERT JUMPDEST DUP1 PUSH4 0x25E3DFBC GT PUSH2 0x166 JUMPI DUP1 PUSH4 0x3CF21D48 GT PUSH2 0x140 JUMPI DUP1 PUSH4 0x3CF21D48 EQ PUSH2 0x2B6 JUMPI DUP1 PUSH4 0x3EFE458A EQ PUSH2 0x2C9 JUMPI DUP1 PUSH4 0x50BC5D08 EQ PUSH2 0x2D2 JUMPI DUP1 PUSH4 0x8457E243 EQ PUSH2 0x2DB JUMPI PUSH1 0x0 DUP1 REVERT JUMPDEST DUP1 PUSH4 0x25E3DFBC EQ PUSH2 0x27D JUMPI DUP1 PUSH4 0x2F2FF15D EQ PUSH2 0x290 JUMPI DUP1 PUSH4 0x36568ABE EQ PUSH2 0x2A3 JUMPI PUSH1 0x0 DUP1 REVERT JUMPDEST DUP1 PUSH4 0x1FFC9A7 EQ PUSH2 0x1AE JUMPI DUP1 PUSH4 0x11926BC4 EQ PUSH2 0x1D6 JUMPI DUP1 PUSH4 0x16BA6B82 EQ PUSH2 0x1EB JUMPI DUP1 PUSH4 0x184FA302 EQ PUSH2 0x202 JUMPI DUP1 PUSH4 0x1A50CC19 EQ PUSH2 0x247 JUMPI DUP1 PUSH4 0x248A9CA3 EQ PUSH2 0x25A JUMPI JUMPDEST PUSH1 0x0 DUP1 REVERT JUMPDEST PUSH2 0x1C1 PUSH2 0x1BC CALLDATASIZE PUSH1 0x4 PUSH2 0x16D4 JUMP JUMPDEST PUSH2 0x3DF JUMP JUMPDEST PUSH1 0x40 MLOAD SWAP1 ISZERO ISZERO DUP2 MSTORE PUSH1 0x20 ADD JUMPDEST PUSH1 0x40 MLOAD DUP1 SWAP2 SUB SWAP1 RETURN JUMPDEST PUSH2 0x1E9 PUSH2 0x1E4 CALLDATASIZE PUSH1 0x4 PUSH2 0x16FE JUMP JUMPDEST PUSH2 0x416 JUMP JUMPDEST STOP JUMPDEST PUSH2 0x1F4 PUSH1 0x7 SLOAD DUP2 JUMP JUMPDEST PUSH1 0x40 MLOAD SWAP1 DUP2 MSTORE PUSH1 0x20 ADD PUSH2 0x1CD JUMP JUMPDEST PUSH2 0x1C1 PUSH2 0x210 CALLDATASIZE PUSH1 0x4 PUSH2 0x177C JUMP JUMPDEST PUSH1 0x9 PUSH1 0x20 SWAP1 DUP2 MSTORE PUSH1 0x0 SWAP4 DUP5 MSTORE PUSH1 0x40 DUP1 DUP6 KECCAK256 DUP5 MLOAD DUP1 DUP7 ADD DUP5 ADD DUP1 MLOAD SWAP3 DUP2 MSTORE SWAP1 DUP5 ADD SWAP6 DUP5 ADD SWAP6 SWAP1 SWAP6 KECCAK256 SWAP5 MSTORE SWAP3 SWAP1 MSTORE DUP3 MSTORE SWAP1 KECCAK256 SLOAD PUSH1 0xFF AND DUP2 JUMP JUMPDEST PUSH2 0x1E9 PUSH2 0x255 CALLDATASIZE PUSH1 0x4 PUSH2 0x1847 JUMP JUMPDEST PUSH2 0x442 JUMP JUMPDEST PUSH2 0x1F4 PUSH2 0x268 CALLDATASIZE PUSH1 0x4 PUSH2 0x1871 JUMP JUMPDEST PUSH1 0x0 SWAP1 DUP2 MSTORE PUSH1 0x20 DUP2 SWAP1 MSTORE PUSH1 0x40 SWAP1 KECCAK256 PUSH1 0x1 ADD SLOAD SWAP1 JUMP JUMPDEST PUSH2 0x1C1 PUSH2 0x28B CALLDATASIZE PUSH1 0x4 PUSH2 0x177C JUMP JUMPDEST PUSH2 0x6D5 JUMP JUMPDEST PUSH2 0x1E9 PUSH2 0x29E CALLDATASIZE PUSH1 0x4 PUSH2 0x188A JUMP JUMPDEST PUSH2 0x722 JUMP JUMPDEST PUSH2 0x1E9 PUSH2 0x2B1 CALLDATASIZE PUSH1 0x4 PUSH2 0x188A JUMP JUMPDEST PUSH2 0x74C JUMP JUMPDEST PUSH2 0x1E9 PUSH2 0x2C4 CALLDATASIZE PUSH1 0x4 PUSH2 0x1847 JUMP JUMPDEST PUSH2 0x7CA JUMP JUMPDEST PUSH2 0x1F4 PUSH1 0x8 SLOAD DUP2 JUMP JUMPDEST PUSH2 0x1F4 PUSH1 0x5 SLOAD DUP2 JUMP JUMPDEST PUSH2 0x1E9 PUSH2 0x2E9 CALLDATASIZE PUSH1 0x4 PUSH2 0x1847 JUMP JUMPDEST PUSH2 0x9A8 JUMP JUMPDEST PUSH2 0x1E9 PUSH2 0x2FC CALLDATASIZE PUSH1 0x4 PUSH2 0x18B6 JUMP JUMPDEST PUSH2 0xB79 JUMP JUMPDEST PUSH2 0x1F4 PUSH1 0x4 SLOAD DUP2 JUMP JUMPDEST PUSH2 0x1C1 PUSH2 0x318 CALLDATASIZE PUSH1 0x4 PUSH2 0x188A JUMP JUMPDEST PUSH2 0xB9C JUMP JUMPDEST PUSH2 0x1F4 PUSH1 0x0 DUP2 JUMP JUMPDEST PUSH2 0x1E9 PUSH2 0x333 CALLDATASIZE PUSH1 0x4 PUSH2 0x1847 JUMP JUMPDEST PUSH2 0xBC5 JUMP JUMPDEST PUSH2 0x1E9 PUSH2 0x346 CALLDATASIZE PUSH1 0x4 PUSH2 0x18D1 JUMP JUMPDEST PUSH2 0xD95 JUMP JUMPDEST PUSH2 0x1E9 PUSH2 0x359 CALLDATASIZE PUSH1 0x4 PUSH2 0x188A JUMP JUMPDEST PUSH2 0x1015 JUMP JUMPDEST PUSH2 0x1F4 PUSH1 0x2 SLOAD DUP2 JUMP JUMPDEST PUSH2 0x1F4 PUSH1 0x6 SLOAD DUP2 JUMP JUMPDEST PUSH2 0x1F4 PUSH1 0x0 DUP1 MLOAD PUSH1 0x20 PUSH2 0x1D92 DUP4 CODECOPY DUP2 MLOAD SWAP2 MSTORE DUP2 JUMP JUMPDEST PUSH2 0x1E9 PUSH2 0x393 CALLDATASIZE PUSH1 0x4 PUSH2 0x1847 JUMP JUMPDEST PUSH2 0x103A JUMP JUMPDEST PUSH2 0x1F4 PUSH1 0x3 SLOAD DUP2 JUMP JUMPDEST PUSH2 0x1E9 PUSH2 0x3AF CALLDATASIZE PUSH1 0x4 PUSH2 0x1847 JUMP JUMPDEST PUSH2 0x120F JUMP JUMPDEST PUSH1 0x1 SLOAD PUSH2 0x3C7 SWAP1 PUSH1 0x1 PUSH1 0x1 PUSH1 0xA0 SHL SUB AND DUP2 JUMP JUMPDEST PUSH1 0x40 MLOAD PUSH1 0x1 PUSH1 0x1 PUSH1 0xA0 SHL SUB SWAP1 SWAP2 AND DUP2 MSTORE PUSH1 0x20 ADD PUSH2 0x1CD JUMP JUMPDEST PUSH1 0x0 PUSH1 0x1 PUSH1 0x1 PUSH1 0xE0 SHL SUB NOT DUP3 AND PUSH4 0x7965DB0B PUSH1 0xE0 SHL EQ DUP1 PUSH2 0x410 JUMPI POP PUSH4 0x1FFC9A7 PUSH1 0xE0 SHL PUSH1 0x1 PUSH1 0x1 PUSH1 0xE0 SHL SUB NOT DUP4 AND EQ JUMPDEST SWAP3 SWAP2 POP POP JUMP JUMPDEST PUSH1 0x0 PUSH2 0x421 DUP2 PUSH2 0x13D0 JUMP JUMPDEST POP PUSH1 0x2 SWAP7 SWAP1 SWAP7 SSTORE PUSH1 0x3 SWAP5 SWAP1 SWAP5 SSTORE PUSH1 0x4 SWAP3 SWAP1 SWAP3 SSTORE PUSH1 0x5 SSTORE PUSH1 0x6 SSTORE PUSH1 0x7 SSTORE PUSH1 0x8 SSTORE JUMP JUMPDEST PUSH2 0x45A PUSH1 0x0 DUP1 MLOAD PUSH1 0x20 PUSH2 0x1D92 DUP4 CODECOPY DUP2 MLOAD SWAP2 MSTORE CALLER PUSH2 0xB9C JUMP JUMPDEST PUSH2 0x47F JUMPI PUSH1 0x40 MLOAD PUSH3 0x461BCD PUSH1 0xE5 SHL DUP2 MSTORE PUSH1 0x4 ADD PUSH2 0x476 SWAP1 PUSH2 0x1904 JUMP JUMPDEST PUSH1 0x40 MLOAD DUP1 SWAP2 SUB SWAP1 REVERT JUMPDEST PUSH1 0x1 DUP2 LT ISZERO PUSH2 0x4EA JUMPI PUSH1 0x40 MLOAD PUSH3 0x461BCD PUSH1 0xE5 SHL DUP2 MSTORE PUSH1 0x20 PUSH1 0x4 DUP3 ADD MSTORE PUSH1 0x31 PUSH1 0x24 DUP3 ADD MSTORE PUSH32 0x526577617264446973747269627574696F6E3A2053747265616B206D75737420 PUSH1 0x44 DUP3 ADD MSTORE PUSH17 0x6265206174206C65617374203120646179 PUSH1 0x78 SHL PUSH1 0x64 DUP3 ADD MSTORE PUSH1 0x84 ADD PUSH2 0x476 JUMP JUMPDEST PUSH1 0x40 DUP1 MLOAD DUP1 DUP3 ADD DUP3 MSTORE PUSH1 0x6 DUP2 MSTORE PUSH6 0x73747265616B PUSH1 0xD0 SHL PUSH1 0x20 DUP1 DUP4 ADD SWAP2 SWAP1 SWAP2 MSTORE PUSH1 0x1 PUSH1 0x1 PUSH1 0xA0 SHL SUB DUP6 AND PUSH1 0x0 SWAP1 DUP2 MSTORE PUSH1 0x9 SWAP1 SWAP2 MSTORE DUP3 SWAP1 KECCAK256 SWAP2 MLOAD SWAP1 SWAP2 SWAP1 PUSH2 0x531 SWAP1 DUP4 SWAP1 PUSH2 0x196D JUMP JUMPDEST SWAP1 DUP2 MSTORE PUSH1 0x40 DUP1 MLOAD PUSH1 0x20 SWAP3 DUP2 SWAP1 SUB DUP4 ADD SWAP1 KECCAK256 PUSH1 0x0 DUP6 DUP2 MSTORE SWAP3 MSTORE SWAP1 KECCAK256 SLOAD PUSH1 0xFF AND ISZERO PUSH2 0x56C JUMPI PUSH1 0x40 MLOAD PUSH3 0x461BCD PUSH1 0xE5 SHL DUP2 MSTORE PUSH1 0x4 ADD PUSH2 0x476 SWAP1 PUSH2 0x1989 JUMP JUMPDEST PUSH1 0x0 DUP3 PUSH1 0x1 SUB PUSH2 0x586 JUMPI POP PUSH9 0x1158E460913D00000 PUSH2 0x5BC JUMP JUMPDEST PUSH2 0x591 PUSH1 0x1 DUP5 PUSH2 0x19E2 JUMP JUMPDEST PUSH2 0x59C SWAP1 PUSH1 0xA PUSH2 0x19F5 JUMP JUMPDEST PUSH2 0x5A7 SWAP1 PUSH1 0x14 PUSH2 0x1A0C JUMP JUMPDEST PUSH2 0x5B9 SWAP1 PUSH8 0xDE0B6B3A7640000 PUSH2 0x19F5 JUMP JUMPDEST SWAP1 POP JUMPDEST PUSH1 0x1 PUSH1 0x1 PUSH1 0xA0 SHL SUB DUP5 AND PUSH1 0x0 SWAP1 DUP2 MSTORE PUSH1 0x9 PUSH1 0x20 MSTORE PUSH1 0x40 SWAP1 DUP2 SWAP1 KECCAK256 SWAP1 MLOAD PUSH1 0x1 SWAP2 SWAP1 PUSH2 0x5E7 SWAP1 DUP6 SWAP1 PUSH2 0x196D JUMP JUMPDEST SWAP1 DUP2 MSTORE PUSH1 0x40 DUP1 MLOAD PUSH1 0x20 SWAP3 DUP2 SWAP1 SUB DUP4 ADD DUP2 KECCAK256 PUSH1 0x0 DUP9 DUP2 MSTORE SWAP4 MSTORE SWAP2 KECCAK256 DUP1 SLOAD PUSH1 0xFF NOT AND SWAP3 ISZERO ISZERO SWAP3 SWAP1 SWAP3 OR SWAP1 SWAP2 SSTORE PUSH1 0x1 SLOAD PUSH4 0x34FF2619 PUSH1 0xE2 SHL DUP3 MSTORE PUSH1 0x1 PUSH1 0x1 PUSH1 0xA0 SHL SUB DUP7 DUP2 AND PUSH1 0x4 DUP5 ADD MSTORE PUSH1 0x24 DUP4 ADD DUP5 SWAP1 MSTORE PUSH1 0x60 PUSH1 0x44 DUP5 ADD MSTORE PUSH1 0x13 PUSH1 0x64 DUP5 ADD MSTORE PUSH19 0x131BD9DA5B881CDD1C99585AC81C995DD85C99 PUSH1 0x6A SHL PUSH1 0x84 DUP5 ADD MSTORE AND SWAP1 PUSH4 0xD3FC9864 SWAP1 PUSH1 0xA4 ADD PUSH1 0x0 PUSH1 0x40 MLOAD DUP1 DUP4 SUB DUP2 PUSH1 0x0 DUP8 DUP1 EXTCODESIZE ISZERO DUP1 ISZERO PUSH2 0x684 JUMPI PUSH1 0x0 DUP1 REVERT JUMPDEST POP GAS CALL ISZERO DUP1 ISZERO PUSH2 0x698 JUMPI RETURNDATASIZE PUSH1 0x0 DUP1 RETURNDATACOPY RETURNDATASIZE PUSH1 0x0 REVERT JUMPDEST POP POP POP POP DUP4 PUSH1 0x1 PUSH1 0x1 PUSH1 0xA0 SHL SUB AND PUSH1 0x0 DUP1 MLOAD PUSH1 0x20 PUSH2 0x1D72 DUP4 CODECOPY DUP2 MLOAD SWAP2 MSTORE DUP4 DUP6 DUP5 PUSH1 0x40 MLOAD PUSH2 0x6C7 SWAP4 SWAP3 SWAP2 SWAP1 PUSH2 0x1A4B JUMP JUMPDEST PUSH1 0x40 MLOAD DUP1 SWAP2 SUB SWAP1 LOG2 POP POP POP POP JUMP JUMPDEST PUSH1 0x1 PUSH1 0x1 PUSH1 0xA0 SHL SUB DUP4 AND PUSH1 0x0 SWAP1 DUP2 MSTORE PUSH1 0x9 PUSH1 0x20 MSTORE PUSH1 0x40 DUP1 DUP3 KECCAK256 SWAP1 MLOAD PUSH2 0x6FB SWAP1 DUP6 SWAP1 PUSH2 0x196D JUMP JUMPDEST SWAP1 DUP2 MSTORE PUSH1 0x40 DUP1 MLOAD PUSH1 0x20 SWAP3 DUP2 SWAP1 SUB DUP4 ADD SWAP1 KECCAK256 PUSH1 0x0 SWAP5 DUP6 MSTORE SWAP1 SWAP2 MSTORE SWAP1 SWAP2 KECCAK256 SLOAD PUSH1 0xFF AND SWAP4 SWAP3 POP POP POP JUMP JUMPDEST PUSH1 0x0 DUP3 DUP2 MSTORE PUSH1 0x20 DUP2 SWAP1 MSTORE PUSH1 0x40 SWAP1 KECCAK256 PUSH1 0x1 ADD SLOAD PUSH2 0x73D DUP2 PUSH2 0x13D0 JUMP JUMPDEST PUSH2 0x747 DUP4 DUP4 PUSH2 0x13DD JUMP JUMPDEST POP POP POP JUMP JUMPDEST PUSH1 0x1 PUSH1 0x1 PUSH1 0xA0 SHL SUB DUP2 AND CALLER EQ PUSH2 0x7BC JUMPI PUSH1 0x40 MLOAD PUSH3 0x461BCD PUSH1 0xE5 SHL DUP2 MSTORE PUSH1 0x20 PUSH1 0x4 DUP3 ADD MSTORE PUSH1 0x2F PUSH1 0x24 DUP3 ADD MSTORE PUSH32 0x416363657373436F6E74726F6C3A2063616E206F6E6C792072656E6F756E6365 PUSH1 0x44 DUP3 ADD MSTORE PUSH15 0x103937B632B9903337B91039B2B633 PUSH1 0x89 SHL PUSH1 0x64 DUP3 ADD MSTORE PUSH1 0x84 ADD PUSH2 0x476 JUMP JUMPDEST PUSH2 0x7C6 DUP3 DUP3 PUSH2 0x1461 JUMP JUMPDEST POP POP JUMP JUMPDEST PUSH2 0x7E2 PUSH1 0x0 DUP1 MLOAD PUSH1 0x20 PUSH2 0x1D92 DUP4 CODECOPY DUP2 MLOAD SWAP2 MSTORE CALLER PUSH2 0xB9C JUMP JUMPDEST PUSH2 0x7FE JUMPI PUSH1 0x40 MLOAD PUSH3 0x461BCD PUSH1 0xE5 SHL DUP2 MSTORE PUSH1 0x4 ADD PUSH2 0x476 SWAP1 PUSH2 0x1904 JUMP JUMPDEST PUSH1 0x40 DUP1 MLOAD DUP1 DUP3 ADD DUP3 MSTORE PUSH1 0x6 DUP2 MSTORE PUSH6 0x636F75727365 PUSH1 0xD0 SHL PUSH1 0x20 DUP1 DUP4 ADD SWAP2 SWAP1 SWAP2 MSTORE PUSH1 0x1 PUSH1 0x1 PUSH1 0xA0 SHL SUB DUP6 AND PUSH1 0x0 SWAP1 DUP2 MSTORE PUSH1 0x9 SWAP1 SWAP2 MSTORE DUP3 SWAP1 KECCAK256 SWAP2 MLOAD SWAP1 SWAP2 SWAP1 PUSH2 0x845 SWAP1 DUP4 SWAP1 PUSH2 0x196D JUMP JUMPDEST SWAP1 DUP2 MSTORE PUSH1 0x40 DUP1 MLOAD PUSH1 0x20 SWAP3 DUP2 SWAP1 SUB DUP4 ADD SWAP1 KECCAK256 PUSH1 0x0 DUP6 DUP2 MSTORE SWAP3 MSTORE SWAP1 KECCAK256 SLOAD PUSH1 0xFF AND ISZERO PUSH2 0x880 JUMPI PUSH1 0x40 MLOAD PUSH3 0x461BCD PUSH1 0xE5 SHL DUP2 MSTORE PUSH1 0x4 ADD PUSH2 0x476 SWAP1 PUSH2 0x1989 JUMP JUMPDEST PUSH1 0x1 PUSH1 0x1 PUSH1 0xA0 SHL SUB DUP4 AND PUSH1 0x0 SWAP1 DUP2 MSTORE PUSH1 0x9 PUSH1 0x20 MSTORE PUSH1 0x40 SWAP1 DUP2 SWAP1 KECCAK256 SWAP1 MLOAD PUSH1 0x1 SWAP2 SWAP1 PUSH2 0x8AB SWAP1 DUP5 SWAP1 PUSH2 0x196D JUMP JUMPDEST SWAP1 DUP2 MSTORE PUSH1 0x40 DUP1 MLOAD PUSH1 0x20 SWAP3 DUP2 SWAP1 SUB DUP4 ADD DUP2 KECCAK256 PUSH1 0x0 DUP8 DUP2 MSTORE SWAP4 MSTORE SWAP2 KECCAK256 DUP1 SLOAD PUSH1 0xFF NOT AND SWAP3 ISZERO ISZERO SWAP3 SWAP1 SWAP3 OR SWAP1 SWAP2 SSTORE PUSH1 0x1 SLOAD PUSH1 0x5 SLOAD PUSH4 0x34FF2619 PUSH1 0xE2 SHL DUP4 MSTORE PUSH1 0x1 PUSH1 0x1 PUSH1 0xA0 SHL SUB DUP7 DUP2 AND PUSH1 0x4 DUP6 ADD MSTORE PUSH1 0x24 DUP5 ADD SWAP2 SWAP1 SWAP2 MSTORE PUSH1 0x60 PUSH1 0x44 DUP5 ADD MSTORE PUSH1 0x18 PUSH1 0x64 DUP5 ADD MSTORE PUSH32 0x436F7572736520636F6D706C6574696F6E207265776172640000000000000000 PUSH1 0x84 DUP5 ADD MSTORE AND SWAP1 PUSH4 0xD3FC9864 SWAP1 PUSH1 0xA4 ADD PUSH1 0x0 PUSH1 0x40 MLOAD DUP1 DUP4 SUB DUP2 PUSH1 0x0 DUP8 DUP1 EXTCODESIZE ISZERO DUP1 ISZERO PUSH2 0x956 JUMPI PUSH1 0x0 DUP1 REVERT JUMPDEST POP GAS CALL ISZERO DUP1 ISZERO PUSH2 0x96A JUMPI RETURNDATASIZE PUSH1 0x0 DUP1 RETURNDATACOPY RETURNDATASIZE PUSH1 0x0 REVERT JUMPDEST POP POP POP POP DUP3 PUSH1 0x1 PUSH1 0x1 PUSH1 0xA0 SHL SUB AND PUSH1 0x0 DUP1 MLOAD PUSH1 0x20 PUSH2 0x1D72 DUP4 CODECOPY DUP2 MLOAD SWAP2 MSTORE DUP3 DUP5 PUSH1 0x5 SLOAD PUSH1 0x40 MLOAD PUSH2 0x99B SWAP4 SWAP3 SWAP2 SWAP1 PUSH2 0x1AA3 JUMP JUMPDEST PUSH1 0x40 MLOAD DUP1 SWAP2 SUB SWAP1 LOG2 POP POP POP JUMP JUMPDEST PUSH2 0x9C0 PUSH1 0x0 DUP1 MLOAD PUSH1 0x20 PUSH2 0x1D92 DUP4 CODECOPY DUP2 MLOAD SWAP2 MSTORE CALLER PUSH2 0xB9C JUMP JUMPDEST PUSH2 0x9DC JUMPI PUSH1 0x40 MLOAD PUSH3 0x461BCD PUSH1 0xE5 SHL DUP2 MSTORE PUSH1 0x4 ADD PUSH2 0x476 SWAP1 PUSH2 0x1904 JUMP JUMPDEST PUSH1 0x40 DUP1 MLOAD DUP1 DUP3 ADD DUP3 MSTORE PUSH1 0x6 DUP2 MSTORE PUSH6 0x3632B9B9B7B7 PUSH1 0xD1 SHL PUSH1 0x20 DUP1 DUP4 ADD SWAP2 SWAP1 SWAP2 MSTORE PUSH1 0x1 PUSH1 0x1 PUSH1 0xA0 SHL SUB DUP6 AND PUSH1 0x0 SWAP1 DUP2 MSTORE PUSH1 0x9 SWAP1 SWAP2 MSTORE DUP3 SWAP1 KECCAK256 SWAP2 MLOAD SWAP1 SWAP2 SWAP1 PUSH2 0xA23 SWAP1 DUP4 SWAP1 PUSH2 0x196D JUMP JUMPDEST SWAP1 DUP2 MSTORE PUSH1 0x40 DUP1 MLOAD PUSH1 0x20 SWAP3 DUP2 SWAP1 SUB DUP4 ADD SWAP1 KECCAK256 PUSH1 0x0 DUP6 DUP2 MSTORE SWAP3 MSTORE SWAP1 KECCAK256 SLOAD PUSH1 0xFF AND ISZERO PUSH2 0xA5E JUMPI PUSH1 0x40 MLOAD PUSH3 0x461BCD PUSH1 0xE5 SHL DUP2 MSTORE PUSH1 0x4 ADD PUSH2 0x476 SWAP1 PUSH2 0x1989 JUMP JUMPDEST PUSH1 0x1 PUSH1 0x1 PUSH1 0xA0 SHL SUB DUP4 AND PUSH1 0x0 SWAP1 DUP2 MSTORE PUSH1 0x9 PUSH1 0x20 MSTORE PUSH1 0x40 SWAP1 DUP2 SWAP1 KECCAK256 SWAP1 MLOAD PUSH1 0x1 SWAP2 SWAP1 PUSH2 0xA89 SWAP1 DUP5 SWAP1 PUSH2 0x196D JUMP JUMPDEST SWAP1 DUP2 MSTORE PUSH1 0x40 DUP1 MLOAD PUSH1 0x20 SWAP3 DUP2 SWAP1 SUB DUP4 ADD DUP2 KECCAK256 PUSH1 0x0 DUP8 DUP2 MSTORE SWAP4 MSTORE SWAP2 KECCAK256 DUP1 SLOAD PUSH1 0xFF NOT AND SWAP3 ISZERO ISZERO SWAP3 SWAP1 SWAP3 OR SWAP1 SWAP2 SSTORE PUSH1 0x1 SLOAD PUSH1 0x2 SLOAD PUSH4 0x34FF2619 PUSH1 0xE2 SHL DUP4 MSTORE PUSH1 0x1 PUSH1 0x1 PUSH1 0xA0 SHL SUB DUP7 DUP2 AND PUSH1 0x4 DUP6 ADD MSTORE PUSH1 0x24 DUP5 ADD SWAP2 SWAP1 SWAP2 MSTORE PUSH1 0x60 PUSH1 0x44 DUP5 ADD MSTORE PUSH1 0x18 PUSH1 0x64 DUP5 ADD MSTORE PUSH32 0x4C6573736F6E20636F6D706C6574696F6E207265776172640000000000000000 PUSH1 0x84 DUP5 ADD MSTORE AND SWAP1 PUSH4 0xD3FC9864 SWAP1 PUSH1 0xA4 ADD PUSH1 0x0 PUSH1 0x40 MLOAD DUP1 DUP4 SUB DUP2 PUSH1 0x0 DUP8 DUP1 EXTCODESIZE ISZERO DUP1 ISZERO PUSH2 0xB34 JUMPI PUSH1 0x0 DUP1 REVERT JUMPDEST POP GAS CALL ISZERO DUP1 ISZERO PUSH2 0xB48 JUMPI RETURNDATASIZE PUSH1 0x0 DUP1 RETURNDATACOPY RETURNDATASIZE PUSH1 0x0 REVERT JUMPDEST POP POP POP POP DUP3 PUSH1 0x1 PUSH1 0x1 PUSH1 0xA0 SHL SUB AND PUSH1 0x0 DUP1 MLOAD PUSH1 0x20 PUSH2 0x1D72 DUP4 CODECOPY DUP2 MLOAD SWAP2 MSTORE DUP3 DUP5 PUSH1 0x2 SLOAD PUSH1 0x40 MLOAD PUSH2 0x99B SWAP4 SWAP3 SWAP2 SWAP1 PUSH2 0x1AF6 JUMP JUMPDEST PUSH1 0x0 PUSH2 0xB84 DUP2 PUSH2 0x13D0 JUMP JUMPDEST PUSH2 0x7C6 PUSH1 0x0 DUP1 MLOAD PUSH1 0x20 PUSH2 0x1D92 DUP4 CODECOPY DUP2 MLOAD SWAP2 MSTORE DUP4 PUSH2 0x13DD JUMP JUMPDEST PUSH1 0x0 SWAP2 DUP3 MSTORE PUSH1 0x20 DUP3 DUP2 MSTORE PUSH1 0x40 DUP1 DUP5 KECCAK256 PUSH1 0x1 PUSH1 0x1 PUSH1 0xA0 SHL SUB SWAP4 SWAP1 SWAP4 AND DUP5 MSTORE SWAP2 SWAP1 MSTORE SWAP1 KECCAK256 SLOAD PUSH1 0xFF AND SWAP1 JUMP JUMPDEST PUSH2 0xBDD PUSH1 0x0 DUP1 MLOAD PUSH1 0x20 PUSH2 0x1D92 DUP4 CODECOPY DUP2 MLOAD SWAP2 MSTORE CALLER PUSH2 0xB9C JUMP JUMPDEST PUSH2 0xBF9 JUMPI PUSH1 0x40 MLOAD PUSH3 0x461BCD PUSH1 0xE5 SHL DUP2 MSTORE PUSH1 0x4 ADD PUSH2 0x476 SWAP1 PUSH2 0x1904 JUMP JUMPDEST PUSH1 0x40 DUP1 MLOAD DUP1 DUP3 ADD DUP3 MSTORE PUSH1 0x5 DUP2 MSTORE PUSH5 0x666F72756D PUSH1 0xD8 SHL PUSH1 0x20 DUP1 DUP4 ADD SWAP2 SWAP1 SWAP2 MSTORE PUSH1 0x1 PUSH1 0x1 PUSH1 0xA0 SHL SUB DUP6 AND PUSH1 0x0 SWAP1 DUP2 MSTORE PUSH1 0x9 SWAP1 SWAP2 MSTORE DUP3 SWAP1 KECCAK256 SWAP2 MLOAD SWAP1 SWAP2 SWAP1 PUSH2 0xC3F SWAP1 DUP4 SWAP1 PUSH2 0x196D JUMP JUMPDEST SWAP1 DUP2 MSTORE PUSH1 0x40 DUP1 MLOAD PUSH1 0x20 SWAP3 DUP2 SWAP1 SUB DUP4 ADD SWAP1 KECCAK256 PUSH1 0x0 DUP6 DUP2 MSTORE SWAP3 MSTORE SWAP1 KECCAK256 SLOAD PUSH1 0xFF AND ISZERO PUSH2 0xC7A JUMPI PUSH1 0x40 MLOAD PUSH3 0x461BCD PUSH1 0xE5 SHL DUP2 MSTORE PUSH1 0x4 ADD PUSH2 0x476 SWAP1 PUSH2 0x1989 JUMP JUMPDEST PUSH1 0x1 PUSH1 0x1 PUSH1 0xA0 SHL SUB DUP4 AND PUSH1 0x0 SWAP1 DUP2 MSTORE PUSH1 0x9 PUSH1 0x20 MSTORE PUSH1 0x40 SWAP1 DUP2 SWAP1 KECCAK256 SWAP1 MLOAD PUSH1 0x1 SWAP2 SWAP1 PUSH2 0xCA5 SWAP1 DUP5 SWAP1 PUSH2 0x196D JUMP JUMPDEST SWAP1 DUP2 MSTORE PUSH1 0x40 DUP1 MLOAD PUSH1 0x20 SWAP3 DUP2 SWAP1 SUB DUP4 ADD DUP2 KECCAK256 PUSH1 0x0 DUP8 DUP2 MSTORE SWAP4 MSTORE SWAP2 KECCAK256 DUP1 SLOAD PUSH1 0xFF NOT AND SWAP3 ISZERO ISZERO SWAP3 SWAP1 SWAP3 OR SWAP1 SWAP2 SSTORE PUSH1 0x1 SLOAD PUSH1 0x7 SLOAD PUSH4 0x34FF2619 PUSH1 0xE2 SHL DUP4 MSTORE PUSH1 0x1 PUSH1 0x1 PUSH1 0xA0 SHL SUB DUP7 DUP2 AND PUSH1 0x4 DUP6 ADD MSTORE PUSH1 0x24 DUP5 ADD SWAP2 SWAP1 SWAP2 MSTORE PUSH1 0x60 PUSH1 0x44 DUP5 ADD MSTORE PUSH1 0x1A PUSH1 0x64 DUP5 ADD MSTORE PUSH32 0x466F72756D2070617274696369706174696F6E20726577617264000000000000 PUSH1 0x84 DUP5 ADD MSTORE AND SWAP1 PUSH4 0xD3FC9864 SWAP1 PUSH1 0xA4 ADD PUSH1 0x0 PUSH1 0x40 MLOAD DUP1 DUP4 SUB DUP2 PUSH1 0x0 DUP8 DUP1 EXTCODESIZE ISZERO DUP1 ISZERO PUSH2 0xD50 JUMPI PUSH1 0x0 DUP1 REVERT JUMPDEST POP GAS CALL ISZERO DUP1 ISZERO PUSH2 0xD64 JUMPI RETURNDATASIZE PUSH1 0x0 DUP1 RETURNDATACOPY RETURNDATASIZE PUSH1 0x0 REVERT JUMPDEST POP POP POP POP DUP3 PUSH1 0x1 PUSH1 0x1 PUSH1 0xA0 SHL SUB AND PUSH1 0x0 DUP1 MLOAD PUSH1 0x20 PUSH2 0x1D72 DUP4 CODECOPY DUP2 MLOAD SWAP2 MSTORE DUP3 DUP5 PUSH1 0x7 SLOAD PUSH1 0x40 MLOAD PUSH2 0x99B SWAP4 SWAP3 SWAP2 SWAP1 PUSH2 0x1B49 JUMP JUMPDEST PUSH2 0xDAD PUSH1 0x0 DUP1 MLOAD PUSH1 0x20 PUSH2 0x1D92 DUP4 CODECOPY DUP2 MLOAD SWAP2 MSTORE CALLER PUSH2 0xB9C JUMP JUMPDEST PUSH2 0xDC9 JUMPI PUSH1 0x40 MLOAD PUSH3 0x461BCD PUSH1 0xE5 SHL DUP2 MSTORE PUSH1 0x4 ADD PUSH2 0x476 SWAP1 PUSH2 0x1904 JUMP JUMPDEST PUSH1 0x46 DUP2 LT ISZERO PUSH2 0xE24 JUMPI PUSH1 0x40 MLOAD PUSH3 0x461BCD PUSH1 0xE5 SHL DUP2 MSTORE PUSH1 0x20 PUSH1 0x4 DUP3 ADD MSTORE PUSH1 0x21 PUSH1 0x24 DUP3 ADD MSTORE PUSH32 0x526577617264446973747269627574696F6E3A2053636F726520746F6F206C6F PUSH1 0x44 DUP3 ADD MSTORE PUSH1 0x77 PUSH1 0xF8 SHL PUSH1 0x64 DUP3 ADD MSTORE PUSH1 0x84 ADD PUSH2 0x476 JUMP JUMPDEST PUSH1 0x40 DUP1 MLOAD DUP1 DUP3 ADD DUP3 MSTORE PUSH1 0x4 DUP2 MSTORE PUSH4 0x38BAB4BD PUSH1 0xE1 SHL PUSH1 0x20 DUP1 DUP4 ADD SWAP2 SWAP1 SWAP2 MSTORE PUSH1 0x1 PUSH1 0x1 PUSH1 0xA0 SHL SUB DUP7 AND PUSH1 0x0 SWAP1 DUP2 MSTORE PUSH1 0x9 SWAP1 SWAP2 MSTORE DUP3 SWAP1 KECCAK256 SWAP2 MLOAD SWAP1 SWAP2 SWAP1 PUSH2 0xE69 SWAP1 DUP4 SWAP1 PUSH2 0x196D JUMP JUMPDEST SWAP1 DUP2 MSTORE PUSH1 0x40 DUP1 MLOAD PUSH1 0x20 SWAP3 DUP2 SWAP1 SUB DUP4 ADD SWAP1 KECCAK256 PUSH1 0x0 DUP7 DUP2 MSTORE SWAP3 MSTORE SWAP1 KECCAK256 SLOAD PUSH1 0xFF AND ISZERO PUSH2 0xEA4 JUMPI PUSH1 0x40 MLOAD PUSH3 0x461BCD PUSH1 0xE5 SHL DUP2 MSTORE PUSH1 0x4 ADD PUSH2 0x476 SWAP1 PUSH2 0x1989 JUMP JUMPDEST PUSH1 0x0 PUSH1 0x1E PUSH1 0x3 SLOAD PUSH1 0x46 DUP6 PUSH2 0xEB8 SWAP2 SWAP1 PUSH2 0x19E2 JUMP JUMPDEST PUSH2 0xEC2 SWAP2 SWAP1 PUSH2 0x19F5 JUMP JUMPDEST PUSH2 0xECC SWAP2 SWAP1 PUSH2 0x1B9F JUMP JUMPDEST PUSH1 0x3 SLOAD PUSH2 0xED9 SWAP2 SWAP1 PUSH2 0x1A0C JUMP JUMPDEST SWAP1 POP PUSH9 0x2B5E3AF16B1880000 DUP2 GT ISZERO PUSH2 0xEF8 JUMPI POP PUSH9 0x2B5E3AF16B1880000 JUMPDEST PUSH1 0x1 PUSH1 0x1 PUSH1 0xA0 SHL SUB DUP6 AND PUSH1 0x0 SWAP1 DUP2 MSTORE PUSH1 0x9 PUSH1 0x20 MSTORE PUSH1 0x40 SWAP1 DUP2 SWAP1 KECCAK256 SWAP1 MLOAD PUSH1 0x1 SWAP2 SWAP1 PUSH2 0xF23 SWAP1 DUP6 SWAP1 PUSH2 0x196D JUMP JUMPDEST SWAP1 DUP2 MSTORE PUSH1 0x40 DUP1 MLOAD PUSH1 0x20 SWAP3 DUP2 SWAP1 SUB DUP4 ADD DUP2 KECCAK256 PUSH1 0x0 DUP10 DUP2 MSTORE SWAP4 MSTORE SWAP2 KECCAK256 DUP1 SLOAD PUSH1 0xFF NOT AND SWAP3 ISZERO ISZERO SWAP3 SWAP1 SWAP3 OR SWAP1 SWAP2 SSTORE PUSH1 0x1 SLOAD PUSH4 0x34FF2619 PUSH1 0xE2 SHL DUP3 MSTORE PUSH1 0x1 PUSH1 0x1 PUSH1 0xA0 SHL SUB DUP8 DUP2 AND PUSH1 0x4 DUP5 ADD MSTORE PUSH1 0x24 DUP4 ADD DUP5 SWAP1 MSTORE PUSH1 0x60 PUSH1 0x44 DUP5 ADD MSTORE PUSH1 0x16 PUSH1 0x64 DUP5 ADD MSTORE PUSH22 0x145D5A5E8818DBDB5C1B195D1A5BDB881C995DD85C99 PUSH1 0x52 SHL PUSH1 0x84 DUP5 ADD MSTORE AND SWAP1 PUSH4 0xD3FC9864 SWAP1 PUSH1 0xA4 ADD PUSH1 0x0 PUSH1 0x40 MLOAD DUP1 DUP4 SUB DUP2 PUSH1 0x0 DUP8 DUP1 EXTCODESIZE ISZERO DUP1 ISZERO PUSH2 0xFC3 JUMPI PUSH1 0x0 DUP1 REVERT JUMPDEST POP GAS CALL ISZERO DUP1 ISZERO PUSH2 0xFD7 JUMPI RETURNDATASIZE PUSH1 0x0 DUP1 RETURNDATACOPY RETURNDATASIZE PUSH1 0x0 REVERT JUMPDEST POP POP POP POP DUP5 PUSH1 0x1 PUSH1 0x1 PUSH1 0xA0 SHL SUB AND PUSH1 0x0 DUP1 MLOAD PUSH1 0x20 PUSH2 0x1D72 DUP4 CODECOPY DUP2 MLOAD SWAP2 MSTORE DUP4 DUP7 DUP5 PUSH1 0x40 MLOAD PUSH2 0x1006 SWAP4 SWAP3 SWAP2 SWAP1 PUSH2 0x1BC1 JUMP JUMPDEST PUSH1 0x40 MLOAD DUP1 SWAP2 SUB SWAP1 LOG2 POP POP POP POP POP JUMP JUMPDEST PUSH1 0x0 DUP3 DUP2 MSTORE PUSH1 0x20 DUP2 SWAP1 MSTORE PUSH1 0x40 SWAP1 KECCAK256 PUSH1 0x1 ADD SLOAD PUSH2 0x1030 DUP2 PUSH2 0x13D0 JUMP JUMPDEST PUSH2 0x747 DUP4 DUP4 PUSH2 0x1461 JUMP JUMPDEST PUSH2 0x1052 PUSH1 0x0 DUP1 MLOAD PUSH1 0x20 PUSH2 0x1D92 DUP4 CODECOPY DUP2 MLOAD SWAP2 MSTORE CALLER PUSH2 0xB9C JUMP JUMPDEST PUSH2 0x106E JUMPI PUSH1 0x40 MLOAD PUSH3 0x461BCD PUSH1 0xE5 SHL DUP2 MSTORE PUSH1 0x4 ADD PUSH2 0x476 SWAP1 PUSH2 0x1904 JUMP JUMPDEST PUSH1 0x40 DUP1 MLOAD DUP1 DUP3 ADD DUP3 MSTORE PUSH1 0xA DUP2 MSTORE PUSH10 0x185CDCDA59DB9B595B9D PUSH1 0xB2 SHL PUSH1 0x20 DUP1 DUP4 ADD SWAP2 SWAP1 SWAP2 MSTORE PUSH1 0x1 PUSH1 0x1 PUSH1 0xA0 SHL SUB DUP6 AND PUSH1 0x0 SWAP1 DUP2 MSTORE PUSH1 0x9 SWAP1 SWAP2 MSTORE DUP3 SWAP1 KECCAK256 SWAP2 MLOAD SWAP1 SWAP2 SWAP1 PUSH2 0x10B9 SWAP1 DUP4 SWAP1 PUSH2 0x196D JUMP JUMPDEST SWAP1 DUP2 MSTORE PUSH1 0x40 DUP1 MLOAD PUSH1 0x20 SWAP3 DUP2 SWAP1 SUB DUP4 ADD SWAP1 KECCAK256 PUSH1 0x0 DUP6 DUP2 MSTORE SWAP3 MSTORE SWAP1 KECCAK256 SLOAD PUSH1 0xFF AND ISZERO PUSH2 0x10F4 JUMPI PUSH1 0x40 MLOAD PUSH3 0x461BCD PUSH1 0xE5 SHL DUP2 MSTORE PUSH1 0x4 ADD PUSH2 0x476 SWAP1 PUSH2 0x1989 JUMP JUMPDEST PUSH1 0x1 PUSH1 0x1 PUSH1 0xA0 SHL SUB DUP4 AND PUSH1 0x0 SWAP1 DUP2 MSTORE PUSH1 0x9 PUSH1 0x20 MSTORE PUSH1 0x40 SWAP1 DUP2 SWAP1 KECCAK256 SWAP1 MLOAD PUSH1 0x1 SWAP2 SWAP1 PUSH2 0x111F SWAP1 DUP5 SWAP1 PUSH2 0x196D JUMP JUMPDEST SWAP1 DUP2 MSTORE PUSH1 0x40 DUP1 MLOAD PUSH1 0x20 SWAP3 DUP2 SWAP1 SUB DUP4 ADD DUP2 KECCAK256 PUSH1 0x0 DUP8 DUP2 MSTORE SWAP4 MSTORE SWAP2 KECCAK256 DUP1 SLOAD PUSH1 0xFF NOT AND SWAP3 ISZERO ISZERO SWAP3 SWAP1 SWAP3 OR SWAP1 SWAP2 SSTORE PUSH1 0x1 SLOAD PUSH1 0x4 DUP1 SLOAD PUSH4 0x34FF2619 PUSH1 0xE2 SHL DUP5 MSTORE PUSH1 0x1 PUSH1 0x1 PUSH1 0xA0 SHL SUB DUP8 DUP2 AND SWAP3 DUP6 ADD SWAP3 SWAP1 SWAP3 MSTORE PUSH1 0x24 DUP5 ADD MSTORE PUSH1 0x60 PUSH1 0x44 DUP5 ADD MSTORE PUSH1 0x1C PUSH1 0x64 DUP5 ADD MSTORE PUSH32 0x41737369676E6D656E7420636F6D706C6574696F6E2072657761726400000000 PUSH1 0x84 DUP5 ADD MSTORE AND SWAP1 PUSH4 0xD3FC9864 SWAP1 PUSH1 0xA4 ADD PUSH1 0x0 PUSH1 0x40 MLOAD DUP1 DUP4 SUB DUP2 PUSH1 0x0 DUP8 DUP1 EXTCODESIZE ISZERO DUP1 ISZERO PUSH2 0x11CA JUMPI PUSH1 0x0 DUP1 REVERT JUMPDEST POP GAS CALL ISZERO DUP1 ISZERO PUSH2 0x11DE JUMPI RETURNDATASIZE PUSH1 0x0 DUP1 RETURNDATACOPY RETURNDATASIZE PUSH1 0x0 REVERT JUMPDEST POP POP POP POP DUP3 PUSH1 0x1 PUSH1 0x1 PUSH1 0xA0 SHL SUB AND PUSH1 0x0 DUP1 MLOAD PUSH1 0x20 PUSH2 0x1D72 DUP4 CODECOPY DUP2 MLOAD SWAP2 MSTORE DUP3 DUP5 PUSH1 0x4 SLOAD PUSH1 0x40 MLOAD PUSH2 0x99B SWAP4 SWAP3 SWAP2 SWAP1 PUSH2 0x1C12 JUMP JUMPDEST PUSH2 0x1227 PUSH1 0x0 DUP1 MLOAD PUSH1 0x20 PUSH2 0x1D92 DUP4 CODECOPY DUP2 MLOAD SWAP2 MSTORE CALLER PUSH2 0xB9C JUMP JUMPDEST PUSH2 0x1243 JUMPI PUSH1 0x40 MLOAD PUSH3 0x461BCD PUSH1 0xE5 SHL DUP2 MSTORE PUSH1 0x4 ADD PUSH2 0x476 SWAP1 PUSH2 0x1904 JUMP JUMPDEST PUSH1 0x40 DUP1 MLOAD DUP1 DUP3 ADD DUP3 MSTORE PUSH1 0x6 DUP2 MSTORE PUSH6 0x726576696577 PUSH1 0xD0 SHL PUSH1 0x20 DUP1 DUP4 ADD SWAP2 SWAP1 SWAP2 MSTORE PUSH1 0x1 PUSH1 0x1 PUSH1 0xA0 SHL SUB DUP6 AND PUSH1 0x0 SWAP1 DUP2 MSTORE PUSH1 0x9 SWAP1 SWAP2 MSTORE DUP3 SWAP1 KECCAK256 SWAP2 MLOAD SWAP1 SWAP2 SWAP1 PUSH2 0x128A SWAP1 DUP4 SWAP1 PUSH2 0x196D JUMP JUMPDEST SWAP1 DUP2 MSTORE PUSH1 0x40 DUP1 MLOAD PUSH1 0x20 SWAP3 DUP2 SWAP1 SUB DUP4 ADD SWAP1 KECCAK256 PUSH1 0x0 DUP6 DUP2 MSTORE SWAP3 MSTORE SWAP1 KECCAK256 SLOAD PUSH1 0xFF AND ISZERO PUSH2 0x12C5 JUMPI PUSH1 0x40 MLOAD PUSH3 0x461BCD PUSH1 0xE5 SHL DUP2 MSTORE PUSH1 0x4 ADD PUSH2 0x476 SWAP1 PUSH2 0x1989 JUMP JUMPDEST PUSH1 0x1 PUSH1 0x1 PUSH1 0xA0 SHL SUB DUP4 AND PUSH1 0x0 SWAP1 DUP2 MSTORE PUSH1 0x9 PUSH1 0x20 MSTORE PUSH1 0x40 SWAP1 DUP2 SWAP1 KECCAK256 SWAP1 MLOAD PUSH1 0x1 SWAP2 SWAP1 PUSH2 0x12F0 SWAP1 DUP5 SWAP1 PUSH2 0x196D JUMP JUMPDEST SWAP1 DUP2 MSTORE PUSH1 0x40 DUP1 MLOAD PUSH1 0x20 SWAP3 DUP2 SWAP1 SUB DUP4 ADD DUP2 KECCAK256 PUSH1 0x0 DUP8 DUP2 MSTORE SWAP4 MSTORE SWAP2 KECCAK256 DUP1 SLOAD PUSH1 0xFF NOT AND SWAP3 ISZERO ISZERO SWAP3 SWAP1 SWAP3 OR SWAP1 SWAP2 SSTORE PUSH1 0x1 SLOAD PUSH1 0x6 SLOAD PUSH4 0x34FF2619 PUSH1 0xE2 SHL DUP4 MSTORE PUSH1 0x1 PUSH1 0x1 PUSH1 0xA0 SHL SUB DUP7 DUP2 AND PUSH1 0x4 DUP6 ADD MSTORE PUSH1 0x24 DUP5 ADD SWAP2 SWAP1 SWAP2 MSTORE PUSH1 0x60 PUSH1 0x44 DUP5 ADD MSTORE PUSH1 0xD PUSH1 0x64 DUP5 ADD MSTORE PUSH13 0x14995D9A595DC81C995DD85C99 PUSH1 0x9A SHL PUSH1 0x84 DUP5 ADD MSTORE AND SWAP1 PUSH4 0xD3FC9864 SWAP1 PUSH1 0xA4 ADD PUSH1 0x0 PUSH1 0x40 MLOAD DUP1 DUP4 SUB DUP2 PUSH1 0x0 DUP8 DUP1 EXTCODESIZE ISZERO DUP1 ISZERO PUSH2 0x138B JUMPI PUSH1 0x0 DUP1 REVERT JUMPDEST POP GAS CALL ISZERO DUP1 ISZERO PUSH2 0x139F JUMPI RETURNDATASIZE PUSH1 0x0 DUP1 RETURNDATACOPY RETURNDATASIZE PUSH1 0x0 REVERT JUMPDEST POP POP POP POP DUP3 PUSH1 0x1 PUSH1 0x1 PUSH1 0xA0 SHL SUB AND PUSH1 0x0 DUP1 MLOAD PUSH1 0x20 PUSH2 0x1D72 DUP4 CODECOPY DUP2 MLOAD SWAP2 MSTORE DUP3 DUP5 PUSH1 0x6 SLOAD PUSH1 0x40 MLOAD PUSH2 0x99B SWAP4 SWAP3 SWAP2 SWAP1 PUSH2 0x1C69 JUMP JUMPDEST PUSH2 0x13DA DUP2 CALLER PUSH2 0x14C6 JUMP JUMPDEST POP JUMP JUMPDEST PUSH2 0x13E7 DUP3 DUP3 PUSH2 0xB9C JUMP JUMPDEST PUSH2 0x7C6 JUMPI PUSH1 0x0 DUP3 DUP2 MSTORE PUSH1 0x20 DUP2 DUP2 MSTORE PUSH1 0x40 DUP1 DUP4 KECCAK256 PUSH1 0x1 PUSH1 0x1 PUSH1 0xA0 SHL SUB DUP6 AND DUP5 MSTORE SWAP1 SWAP2 MSTORE SWAP1 KECCAK256 DUP1 SLOAD PUSH1 0xFF NOT AND PUSH1 0x1 OR SWAP1 SSTORE PUSH2 0x141D CALLER SWAP1 JUMP JUMPDEST PUSH1 0x1 PUSH1 0x1 PUSH1 0xA0 SHL SUB AND DUP2 PUSH1 0x1 PUSH1 0x1 PUSH1 0xA0 SHL SUB AND DUP4 PUSH32 0x2F8788117E7EFF1D82E926EC794901D17C78024A50270940304540A733656F0D PUSH1 0x40 MLOAD PUSH1 0x40 MLOAD DUP1 SWAP2 SUB SWAP1 LOG4 POP POP JUMP JUMPDEST PUSH2 0x146B DUP3 DUP3 PUSH2 0xB9C JUMP JUMPDEST ISZERO PUSH2 0x7C6 JUMPI PUSH1 0x0 DUP3 DUP2 MSTORE PUSH1 0x20 DUP2 DUP2 MSTORE PUSH1 0x40 DUP1 DUP4 KECCAK256 PUSH1 0x1 PUSH1 0x1 PUSH1 0xA0 SHL SUB DUP6 AND DUP1 DUP6 MSTORE SWAP3 MSTORE DUP1 DUP4 KECCAK256 DUP1 SLOAD PUSH1 0xFF NOT AND SWAP1 SSTORE MLOAD CALLER SWAP3 DUP6 SWAP2 PUSH32 0xF6391F5C32D9C69D2A47EA670B442974B53935D1EDC7FD64EB21E047A839171B SWAP2 SWAP1 LOG4 POP POP JUMP JUMPDEST PUSH2 0x14D0 DUP3 DUP3 PUSH2 0xB9C JUMP JUMPDEST PUSH2 0x7C6 JUMPI PUSH2 0x14DD DUP2 PUSH2 0x151F JUMP JUMPDEST PUSH2 0x14E8 DUP4 PUSH1 0x20 PUSH2 0x1531 JUMP JUMPDEST PUSH1 0x40 MLOAD PUSH1 0x20 ADD PUSH2 0x14F9 SWAP3 SWAP2 SWAP1 PUSH2 0x1CBC JUMP JUMPDEST PUSH1 0x40 DUP1 MLOAD PUSH1 0x1F NOT DUP2 DUP5 SUB ADD DUP2 MSTORE SWAP1 DUP3 SWAP1 MSTORE PUSH3 0x461BCD PUSH1 0xE5 SHL DUP3 MSTORE PUSH2 0x476 SWAP2 PUSH1 0x4 ADD PUSH2 0x1D31 JUMP JUMPDEST PUSH1 0x60 PUSH2 0x410 PUSH1 0x1 PUSH1 0x1 PUSH1 0xA0 SHL SUB DUP4 AND PUSH1 0x14 JUMPDEST PUSH1 0x60 PUSH1 0x0 PUSH2 0x1540 DUP4 PUSH1 0x2 PUSH2 0x19F5 JUMP JUMPDEST PUSH2 0x154B SWAP1 PUSH1 0x2 PUSH2 0x1A0C JUMP JUMPDEST PUSH8 0xFFFFFFFFFFFFFFFF DUP2 GT ISZERO PUSH2 0x1563 JUMPI PUSH2 0x1563 PUSH2 0x1766 JUMP JUMPDEST PUSH1 0x40 MLOAD SWAP1 DUP1 DUP3 MSTORE DUP1 PUSH1 0x1F ADD PUSH1 0x1F NOT AND PUSH1 0x20 ADD DUP3 ADD PUSH1 0x40 MSTORE DUP1 ISZERO PUSH2 0x158D JUMPI PUSH1 0x20 DUP3 ADD DUP2 DUP1 CALLDATASIZE DUP4 CALLDATACOPY ADD SWAP1 POP JUMPDEST POP SWAP1 POP PUSH1 0x3 PUSH1 0xFC SHL DUP2 PUSH1 0x0 DUP2 MLOAD DUP2 LT PUSH2 0x15A8 JUMPI PUSH2 0x15A8 PUSH2 0x1D44 JUMP JUMPDEST PUSH1 0x20 ADD ADD SWAP1 PUSH1 0x1 PUSH1 0x1 PUSH1 0xF8 SHL SUB NOT AND SWAP1 DUP2 PUSH1 0x0 BYTE SWAP1 MSTORE8 POP PUSH1 0xF PUSH1 0xFB SHL DUP2 PUSH1 0x1 DUP2 MLOAD DUP2 LT PUSH2 0x15D7 JUMPI PUSH2 0x15D7 PUSH2 0x1D44 JUMP JUMPDEST PUSH1 0x20 ADD ADD SWAP1 PUSH1 0x1 PUSH1 0x1 PUSH1 0xF8 SHL SUB NOT AND SWAP1 DUP2 PUSH1 0x0 BYTE SWAP1 MSTORE8 POP PUSH1 0x0 PUSH2 0x15FB DUP5 PUSH1 0x2 PUSH2 0x19F5 JUMP JUMPDEST PUSH2 0x1606 SWAP1 PUSH1 0x1 PUSH2 0x1A0C JUMP JUMPDEST SWAP1 POP JUMPDEST PUSH1 0x1 DUP2 GT ISZERO PUSH2 0x167E JUMPI PUSH16 0x181899199A1A9B1B9C1CB0B131B232B3 PUSH1 0x81 SHL DUP6 PUSH1 0xF AND PUSH1 0x10 DUP2 LT PUSH2 0x163A JUMPI PUSH2 0x163A PUSH2 0x1D44 JUMP JUMPDEST BYTE PUSH1 0xF8 SHL DUP3 DUP3 DUP2 MLOAD DUP2 LT PUSH2 0x1650 JUMPI PUSH2 0x1650 PUSH2 0x1D44 JUMP JUMPDEST PUSH1 0x20 ADD ADD SWAP1 PUSH1 0x1 PUSH1 0x1 PUSH1 0xF8 SHL SUB NOT AND SWAP1 DUP2 PUSH1 0x0 BYTE SWAP1 MSTORE8 POP PUSH1 0x4 SWAP5 SWAP1 SWAP5 SHR SWAP4 PUSH2 0x1677 DUP2 PUSH2 0x1D5A JUMP JUMPDEST SWAP1 POP PUSH2 0x1609 JUMP JUMPDEST POP DUP4 ISZERO PUSH2 0x16CD JUMPI PUSH1 0x40 MLOAD PUSH3 0x461BCD PUSH1 0xE5 SHL DUP2 MSTORE PUSH1 0x20 PUSH1 0x4 DUP3 ADD DUP2 SWAP1 MSTORE PUSH1 0x24 DUP3 ADD MSTORE PUSH32 0x537472696E67733A20686578206C656E67746820696E73756666696369656E74 PUSH1 0x44 DUP3 ADD MSTORE PUSH1 0x64 ADD PUSH2 0x476 JUMP JUMPDEST SWAP4 SWAP3 POP POP POP JUMP JUMPDEST PUSH1 0x0 PUSH1 0x20 DUP3 DUP5 SUB SLT ISZERO PUSH2 0x16E6 JUMPI PUSH1 0x0 DUP1 REVERT JUMPDEST DUP2 CALLDATALOAD PUSH1 0x1 PUSH1 0x1 PUSH1 0xE0 SHL SUB NOT DUP2 AND DUP2 EQ PUSH2 0x16CD JUMPI PUSH1 0x0 DUP1 REVERT JUMPDEST PUSH1 0x0 DUP1 PUSH1 0x0 DUP1 PUSH1 0x0 DUP1 PUSH1 0x0 PUSH1 0xE0 DUP9 DUP11 SUB SLT ISZERO PUSH2 0x1719 JUMPI PUSH1 0x0 DUP1 REVERT JUMPDEST POP POP DUP6 CALLDATALOAD SWAP8 PUSH1 0x20 DUP8 ADD CALLDATALOAD SWAP8 POP PUSH1 0x40 DUP8 ADD CALLDATALOAD SWAP7 PUSH1 0x60 DUP2 ADD CALLDATALOAD SWAP7 POP PUSH1 0x80 DUP2 ADD CALLDATALOAD SWAP6 POP PUSH1 0xA0 DUP2 ADD CALLDATALOAD SWAP5 POP PUSH1 0xC0 ADD CALLDATALOAD SWAP3 POP SWAP1 POP JUMP JUMPDEST DUP1 CALLDATALOAD PUSH1 0x1 PUSH1 0x1 PUSH1 0xA0 SHL SUB DUP2 AND DUP2 EQ PUSH2 0x1761 JUMPI PUSH1 0x0 DUP1 REVERT JUMPDEST SWAP2 SWAP1 POP JUMP JUMPDEST PUSH4 0x4E487B71 PUSH1 0xE0 SHL PUSH1 0x0 MSTORE PUSH1 0x41 PUSH1 0x4 MSTORE PUSH1 0x24 PUSH1 0x0 REVERT JUMPDEST PUSH1 0x0 DUP1 PUSH1 0x0 PUSH1 0x60 DUP5 DUP7 SUB SLT ISZERO PUSH2 0x1791 JUMPI PUSH1 0x0 DUP1 REVERT JUMPDEST PUSH2 0x179A DUP5 PUSH2 0x174A JUMP JUMPDEST SWAP3 POP PUSH1 0x20 DUP5 ADD CALLDATALOAD PUSH8 0xFFFFFFFFFFFFFFFF DUP1 DUP3 GT ISZERO PUSH2 0x17B7 JUMPI PUSH1 0x0 DUP1 REVERT JUMPDEST DUP2 DUP7 ADD SWAP2 POP DUP7 PUSH1 0x1F DUP4 ADD SLT PUSH2 0x17CB JUMPI PUSH1 0x0 DUP1 REVERT JUMPDEST DUP2 CALLDATALOAD DUP2 DUP2 GT ISZERO PUSH2 0x17DD JUMPI PUSH2 0x17DD PUSH2 0x1766 JUMP JUMPDEST PUSH1 0x40 MLOAD PUSH1 0x1F DUP3 ADD PUSH1 0x1F NOT SWAP1 DUP2 AND PUSH1 0x3F ADD AND DUP2 ADD SWAP1 DUP4 DUP3 GT DUP2 DUP4 LT OR ISZERO PUSH2 0x1805 JUMPI PUSH2 0x1805 PUSH2 0x1766 JUMP JUMPDEST DUP2 PUSH1 0x40 MSTORE DUP3 DUP2 MSTORE DUP10 PUSH1 0x20 DUP5 DUP8 ADD ADD GT ISZERO PUSH2 0x181E JUMPI PUSH1 0x0 DUP1 REVERT JUMPDEST DUP3 PUSH1 0x20 DUP7 ADD PUSH1 0x20 DUP4 ADD CALLDATACOPY PUSH1 0x0 PUSH1 0x20 DUP5 DUP4 ADD ADD MSTORE DUP1 SWAP7 POP POP POP POP POP POP PUSH1 0x40 DUP5 ADD CALLDATALOAD SWAP1 POP SWAP3 POP SWAP3 POP SWAP3 JUMP JUMPDEST PUSH1 0x0 DUP1 PUSH1 0x40 DUP4 DUP6 SUB SLT ISZERO PUSH2 0x185A JUMPI PUSH1 0x0 DUP1 REVERT JUMPDEST PUSH2 0x1863 DUP4 PUSH2 0x174A JUMP JUMPDEST SWAP5 PUSH1 0x20 SWAP4 SWAP1 SWAP4 ADD CALLDATALOAD SWAP4 POP POP POP JUMP JUMPDEST PUSH1 0x0 PUSH1 0x20 DUP3 DUP5 SUB SLT ISZERO PUSH2 0x1883 JUMPI PUSH1 0x0 DUP1 REVERT JUMPDEST POP CALLDATALOAD SWAP2 SWAP1 POP JUMP JUMPDEST PUSH1 0x0 DUP1 PUSH1 0x40 DUP4 DUP6 SUB SLT ISZERO PUSH2 0x189D JUMPI PUSH1 0x0 DUP1 REVERT JUMPDEST DUP3 CALLDATALOAD SWAP2 POP PUSH2 0x18AD PUSH1 0x20 DUP5 ADD PUSH2 0x174A JUMP JUMPDEST SWAP1 POP SWAP3 POP SWAP3 SWAP1 POP JUMP JUMPDEST PUSH1 0x0 PUSH1 0x20 DUP3 DUP5 SUB SLT ISZERO PUSH2 0x18C8 JUMPI PUSH1 0x0 DUP1 REVERT JUMPDEST PUSH2 0x16CD DUP3 PUSH2 0x174A JUMP JUMPDEST PUSH1 0x0 DUP1 PUSH1 0x0 PUSH1 0x60 DUP5 DUP7 SUB SLT ISZERO PUSH2 0x18E6 JUMPI PUSH1 0x0 DUP1 REVERT JUMPDEST PUSH2 0x18EF DUP5 PUSH2 0x174A JUMP JUMPDEST SWAP6 PUSH1 0x20 DUP6 ADD CALLDATALOAD SWAP6 POP PUSH1 0x40 SWAP1 SWAP5 ADD CALLDATALOAD SWAP4 SWAP3 POP POP POP JUMP JUMPDEST PUSH1 0x20 DUP1 DUP3 MSTORE PUSH1 0x25 SWAP1 DUP3 ADD MSTORE PUSH32 0x526577617264446973747269627574696F6E3A204E6F74206120646973747269 PUSH1 0x40 DUP3 ADD MSTORE PUSH5 0x313ABA37B9 PUSH1 0xD9 SHL PUSH1 0x60 DUP3 ADD MSTORE PUSH1 0x80 ADD SWAP1 JUMP JUMPDEST PUSH1 0x0 JUMPDEST DUP4 DUP2 LT ISZERO PUSH2 0x1964 JUMPI DUP2 DUP2 ADD MLOAD DUP4 DUP3 ADD MSTORE PUSH1 0x20 ADD PUSH2 0x194C JUMP JUMPDEST POP POP PUSH1 0x0 SWAP2 ADD MSTORE JUMP JUMPDEST PUSH1 0x0 DUP3 MLOAD PUSH2 0x197F DUP2 DUP5 PUSH1 0x20 DUP8 ADD PUSH2 0x1949 JUMP JUMPDEST SWAP2 SWAP1 SWAP2 ADD SWAP3 SWAP2 POP POP JUMP JUMPDEST PUSH1 0x20 DUP1 DUP3 MSTORE PUSH1 0x23 SWAP1 DUP3 ADD MSTORE PUSH32 0x526577617264446973747269627574696F6E3A20416C726561647920636C6169 PUSH1 0x40 DUP3 ADD MSTORE PUSH3 0x1B5959 PUSH1 0xEA SHL PUSH1 0x60 DUP3 ADD MSTORE PUSH1 0x80 ADD SWAP1 JUMP JUMPDEST PUSH4 0x4E487B71 PUSH1 0xE0 SHL PUSH1 0x0 MSTORE PUSH1 0x11 PUSH1 0x4 MSTORE PUSH1 0x24 PUSH1 0x0 REVERT JUMPDEST DUP2 DUP2 SUB DUP2 DUP2 GT ISZERO PUSH2 0x410 JUMPI PUSH2 0x410 PUSH2 0x19CC JUMP JUMPDEST DUP1 DUP3 MUL DUP2 ISZERO DUP3 DUP3 DIV DUP5 EQ OR PUSH2 0x410 JUMPI PUSH2 0x410 PUSH2 0x19CC JUMP JUMPDEST DUP1 DUP3 ADD DUP1 DUP3 GT ISZERO PUSH2 0x410 JUMPI PUSH2 0x410 PUSH2 0x19CC JUMP JUMPDEST PUSH1 0x0 DUP2 MLOAD DUP1 DUP5 MSTORE PUSH2 0x1A37 DUP2 PUSH1 0x20 DUP7 ADD PUSH1 0x20 DUP7 ADD PUSH2 0x1949 JUMP JUMPDEST PUSH1 0x1F ADD PUSH1 0x1F NOT AND SWAP3 SWAP1 SWAP3 ADD PUSH1 0x20 ADD SWAP3 SWAP2 POP POP JUMP JUMPDEST PUSH1 0x80 DUP2 MSTORE PUSH1 0x0 PUSH2 0x1A5E PUSH1 0x80 DUP4 ADD DUP7 PUSH2 0x1A1F JUMP JUMPDEST DUP5 PUSH1 0x20 DUP5 ADD MSTORE DUP4 PUSH1 0x40 DUP5 ADD MSTORE DUP3 DUP2 SUB PUSH1 0x60 DUP5 ADD MSTORE PUSH1 0x15 DUP2 MSTORE PUSH21 0x131BD9DA5B881CDD1C99585AC81858DA1A595D9959 PUSH1 0x5A SHL PUSH1 0x20 DUP3 ADD MSTORE PUSH1 0x40 DUP2 ADD SWAP2 POP POP SWAP5 SWAP4 POP POP POP POP JUMP JUMPDEST PUSH1 0x80 DUP2 MSTORE PUSH1 0x0 PUSH2 0x1AB6 PUSH1 0x80 DUP4 ADD DUP7 PUSH2 0x1A1F JUMP JUMPDEST DUP5 PUSH1 0x20 DUP5 ADD MSTORE DUP4 PUSH1 0x40 DUP5 ADD MSTORE DUP3 DUP2 SUB PUSH1 0x60 DUP5 ADD MSTORE PUSH1 0x10 DUP2 MSTORE PUSH16 0x10DBDD5C9CD94818DBDB5C1B195D1959 PUSH1 0x82 SHL PUSH1 0x20 DUP3 ADD MSTORE PUSH1 0x40 DUP2 ADD SWAP2 POP POP SWAP5 SWAP4 POP POP POP POP JUMP JUMPDEST PUSH1 0x80 DUP2 MSTORE PUSH1 0x0 PUSH2 0x1B09 PUSH1 0x80 DUP4 ADD DUP7 PUSH2 0x1A1F JUMP JUMPDEST DUP5 PUSH1 0x20 DUP5 ADD MSTORE DUP4 PUSH1 0x40 DUP5 ADD MSTORE DUP3 DUP2 SUB PUSH1 0x60 DUP5 ADD MSTORE PUSH1 0x10 DUP2 MSTORE PUSH16 0x13195CDCDBDB8818DBDB5C1B195D1959 PUSH1 0x82 SHL PUSH1 0x20 DUP3 ADD MSTORE PUSH1 0x40 DUP2 ADD SWAP2 POP POP SWAP5 SWAP4 POP POP POP POP JUMP JUMPDEST PUSH1 0x80 DUP2 MSTORE PUSH1 0x0 PUSH2 0x1B5C PUSH1 0x80 DUP4 ADD DUP7 PUSH2 0x1A1F JUMP JUMPDEST DUP5 PUSH1 0x20 DUP5 ADD MSTORE DUP4 PUSH1 0x40 DUP5 ADD MSTORE DUP3 DUP2 SUB PUSH1 0x60 DUP5 ADD MSTORE PUSH1 0x13 DUP2 MSTORE PUSH19 0x2337B93AB6903830B93A34B1B4B830BA34B7B7 PUSH1 0x69 SHL PUSH1 0x20 DUP3 ADD MSTORE PUSH1 0x40 DUP2 ADD SWAP2 POP POP SWAP5 SWAP4 POP POP POP POP JUMP JUMPDEST PUSH1 0x0 DUP3 PUSH2 0x1BBC JUMPI PUSH4 0x4E487B71 PUSH1 0xE0 SHL PUSH1 0x0 MSTORE PUSH1 0x12 PUSH1 0x4 MSTORE PUSH1 0x24 PUSH1 0x0 REVERT JUMPDEST POP DIV SWAP1 JUMP JUMPDEST PUSH1 0x80 DUP2 MSTORE PUSH1 0x0 PUSH2 0x1BD4 PUSH1 0x80 DUP4 ADD DUP7 PUSH2 0x1A1F JUMP JUMPDEST DUP5 PUSH1 0x20 DUP5 ADD MSTORE DUP4 PUSH1 0x40 DUP5 ADD MSTORE DUP3 DUP2 SUB PUSH1 0x60 DUP5 ADD MSTORE PUSH1 0xE DUP2 MSTORE PUSH14 0x145D5A5E8818DBDB5C1B195D1959 PUSH1 0x92 SHL PUSH1 0x20 DUP3 ADD MSTORE PUSH1 0x40 DUP2 ADD SWAP2 POP POP SWAP5 SWAP4 POP POP POP POP JUMP JUMPDEST PUSH1 0x80 DUP2 MSTORE PUSH1 0x0 PUSH2 0x1C25 PUSH1 0x80 DUP4 ADD DUP7 PUSH2 0x1A1F JUMP JUMPDEST DUP5 PUSH1 0x20 DUP5 ADD MSTORE DUP4 PUSH1 0x40 DUP5 ADD MSTORE DUP3 DUP2 SUB PUSH1 0x60 DUP5 ADD MSTORE PUSH1 0x14 DUP2 MSTORE PUSH20 0x105CDCDA59DB9B595B9D0818DBDB5C1B195D1959 PUSH1 0x62 SHL PUSH1 0x20 DUP3 ADD MSTORE PUSH1 0x40 DUP2 ADD SWAP2 POP POP SWAP5 SWAP4 POP POP POP POP JUMP JUMPDEST PUSH1 0x80 DUP2 MSTORE PUSH1 0x0 PUSH2 0x1C7C PUSH1 0x80 DUP4 ADD DUP7 PUSH2 0x1A1F JUMP JUMPDEST DUP5 PUSH1 0x20 DUP5 ADD MSTORE DUP4 PUSH1 0x40 DUP5 ADD MSTORE DUP3 DUP2 SUB PUSH1 0x60 DUP5 ADD MSTORE PUSH1 0x10 DUP2 MSTORE PUSH16 0x14995D9A595DC81CDD589B5A5D1D1959 PUSH1 0x82 SHL PUSH1 0x20 DUP3 ADD MSTORE PUSH1 0x40 DUP2 ADD SWAP2 POP POP SWAP5 SWAP4 POP POP POP POP JUMP JUMPDEST PUSH32 0x416363657373436F6E74726F6C3A206163636F756E7420000000000000000000 DUP2 MSTORE PUSH1 0x0 DUP4 MLOAD PUSH2 0x1CF4 DUP2 PUSH1 0x17 DUP6 ADD PUSH1 0x20 DUP9 ADD PUSH2 0x1949 JUMP JUMPDEST PUSH17 0x1034B99036B4B9B9B4B733903937B6329 PUSH1 0x7D SHL PUSH1 0x17 SWAP2 DUP5 ADD SWAP2 DUP3 ADD MSTORE DUP4 MLOAD PUSH2 0x1D25 DUP2 PUSH1 0x28 DUP5 ADD PUSH1 0x20 DUP9 ADD PUSH2 0x1949 JUMP JUMPDEST ADD PUSH1 0x28 ADD SWAP5 SWAP4 POP POP POP POP JUMP JUMPDEST PUSH1 0x20 DUP2 MSTORE PUSH1 0x0 PUSH2 0x16CD PUSH1 0x20 DUP4 ADD DUP5 PUSH2 0x1A1F JUMP JUMPDEST PUSH4 0x4E487B71 PUSH1 0xE0 SHL PUSH1 0x0 MSTORE PUSH1 0x32 PUSH1 0x4 MSTORE PUSH1 0x24 PUSH1 0x0 REVERT JUMPDEST PUSH1 0x0 DUP2 PUSH2 0x1D69 JUMPI PUSH2 0x1D69 PUSH2 0x19CC JUMP JUMPDEST POP PUSH1 0x0 NOT ADD SWAP1 JUMP INVALID LOG2 0xD9 0xB4 AND 0x4A 0xC PREVRANDAO SWAP8 PUSH13 0x7DFA39703C8B5C1FC4E6DF45E7 SMOD 0xBC 0x4A 0xAC 0x5E SWAP6 DUP13 0xAF 0xCA EXTCODECOPY 0xFB 0xD4 SLOAD RETURN PUSH11 0x7E1A388BD6FC3AB10D434A LOG4 JUMPI DUP16 DUP2 BYTE 0xCB 0xBC RETURN GASPRICE 0xFB SHR PUSH10 0x7486313CA26469706673 PC 0x22 SLT KECCAK256 LOG1 0x23 0xA6 0x4C MSTORE GT LOG0 0x4E EQ PREVRANDAO SWAP4 SIGNEXTEND CALLDATALOAD PUSH18 0x1F2BA03919D6B0F01D2DE659F9247416D965 PUSH5 0x736F6C6343 STOP ADDMOD SGT STOP CALLER "},"methodIdentifiers":{"DEFAULT_ADMIN_ROLE()":"a217fddf","DISTRIBUTOR_ROLE()":"f0bd87cc","assignmentReward()":"8be1c84a","courseCompletionReward()":"50bc5d08","distributeAssignmentReward(address,uint256)":"f2418429","distributeCourseCompletionReward(address,uint256)":"3cf21d48","distributeForumReward(address,uint256)":"a2dcbb32","distributeLessonReward(address,uint256)":"8457e243","distributeQuizReward(address,uint256,uint256)":"d39746a2","distributeReviewReward(address,uint256)":"f41a7832","distributeStreakReward(address,uint256)":"1a50cc19","forumReward()":"16ba6b82","getRoleAdmin(bytes32)":"248a9ca3","grantDistributorRole(address)":"8bba2a0a","grantRole(bytes32,address)":"2f2ff15d","hasRole(bytes32,address)":"91d14854","isRewardClaimed(address,string,uint256)":"25e3dfbc","lessonReward()":"daa3f56b","quizBaseReward()":"f33a7edd","renounceRole(bytes32,address)":"36568abe","reviewReward()":"e07bc592","revokeRole(bytes32,address)":"d547741f","rewardsClaimed(address,string,uint256)":"184fa302","streakReward()":"3efe458a","supportsInterface(bytes4)":"01ffc9a7","token()":"fc0c546a","updateRewardAmounts(uint256,uint256,uint256,uint256,uint256,uint256,uint256)":"11926bc4"}}}}}